:020000040800F2
:1000000000000824155C0008D9510008E1510008DF
:10001000F9510008115200082952000800000000A0
:1000200000000000000000000000000051900108E6
:100030004152000800000000A19201084F52000840
:10004000695C0008695C0008695C0008695C00087C
:10005000695C0008695C0008695C0008695C00086C
:10006000695C0008695C0008695C0008695C00085C
:10007000695C0008695C0008695C0008695C00084C
:10008000695C0008695C0008695C00086952000846
:100090007D520008695C0008695C0008695C000822
:1000A000695C0008695C0008695C0008695C00081C
:1000B000695C0008695C0008695C0008695C00080C
:1000C000695C0008695C0008695C0008695C0008FC
:1000D000695C0008695C0008695C0008695C0008EC
:1000E000695C0008695C000800000000695C0008A9
:1000F000695C0008695C0008695C0008695C0008CC
:10010000695C000891520008695C0008695C00089D
:10011000695C0008695C0008695C0008695C0008AB
:10012000695C0008695C0008695C0008695C00089B
:10013000695C0008695C0008695C0008695C00088B
:1001400000000000000000000000000000000000AF
:10015000695C0008695C0008695C0008695C00086B
:10016000695C0008695C0008695C0008695C00085B
:10017000695C0008695C0008695C00080000000018
:10018000695C0008695C0008695C0008695C00083B
:10019000695C0008695C0008695C0008695C00082B
:1001A000A5520008695C0008B9520008695C0008A3
:1001B000695C0008695C0008695C0008695C00080B
:1001C000695C0008695C0008695C0008695C0008FB
:1001D000695C0008695C0008695C0008695C0008EB
:1001E000695C0008695C0008695C0008695C0008DB
:1001F000695C0008695C0008695C0008695C0008CB
:10020000695C0008695C0008695C0008695C0008BA
:10021000695C0008695C0008695C0008695C0008AA
:10022000695C0008695C0008695C00080000000067
:10023000695C0008695C000800000000695C000857
:10024000695C0008695C0008695C0008695C00087A
:10025000695C0008695C0008695C0008695C00086A
:10026000695C0008695C0008695C0008695C00085A
:10027000695C0008695C0008695C00080000000017
:10028000695C0008695C0008695C00080000000007
:0802900000000000695C000899
:1002A00010B5054C237833B9044B13B10448AFF3B0
:1002B00000800123237010BD2003002400000000F3
:1002C00030A0040808B5034B1BB103490348AFF342
:1002D000008008BD000000002403002430A00408B2
:1002E000034613F8012B002AFBD1181A0138704776
:1002F00001F0FF01102A2BDB10F0070F08D010F8D7
:10030000013B013A8B422DD010F0070F42B3F6D1DA
:10031000F0B441EA012141EA014122F007047FF0F3
:1003200000070023F0E80256083C85EA010586EA4A
:10033000010685FA47F5A3FA87F586FA47F6A5FA86
:1003400087F68EB9EED1F0BC01F0FF0102F0070292
:1003500032B110F8013B013A83EA010313B1F8D13D
:100360000020704701387047002D06BF354603381E
:10037000073815F0010F07D1013015F4807F02BF57
:10038000013015F4C03F0130F0BC0138704700BFA8
:1003900053B94AB9002908BF00281CBF4FF0FF31EC
:1003A0004FF0FF3000F088B9ADF1080C6DE904CED4
:1003B00000F006F8DDF804E0DDE9022304B0704740
:1003C0002DE9F047089D8E4604468846002B4AD109
:1003D0008A42174662D9B2FA82F64EB1C6F12003BC
:1003E00001FA06F820FA03F3B74043EA0808B440DC
:1003F0004FEA174E1FFA87FCB8FBFEF1230C0EFBE9
:10040000118843EA084301FB0CF29A4209D9FB1810
:1004100001F1FF3080F0EA809A4240F2E780023931
:100420003B449A1AA3B2B2FBFEF00EFB102243EA41
:10043000024300FB0CFC9C4509D9FB1800F1FF327C
:1004400080F0D6809C4540F2D3803B44023840EA9D
:100450000140A3EB0C0300211DB1F3400022C5E9CC
:100460000032BDE8F0878B4205D90DB1C5E9000126
:1004700000210846F5E7B3FA83F1002946D1734518
:1004800002D3824200F20581841A6EEB030201203E
:100490009046002DE5D0C5E90048E2E7002A00F0CB
:1004A0009080B2FA82F6002E40F0A4808A1A030CE3
:1004B0004FEA174E80B2BCB20121B2FBFEFC0EFB2C
:1004C0001C2243EA024304FB0CF29A4207D9FB18B0
:1004D0000CF1FF3802D29A4200F2E080C4469B1A27
:1004E000B3FBFEF20EFB123340EA034302FB04F4BB
:1004F0009C4207D9FB1802F1FF3002D29C4200F265
:10050000CA8002461B1B42EA0C40A5E7C1F1200647
:100510008B4022FA06F71F430EFA01F420FA06F385
:100520002EFA06FE4FEA1749234300FA01F81FFA94
:1005300087FCBEFBF9F01C0C09FB10EE44EA0E44EC
:1005400000FB0CFEA64502FA01F209D93C1900F1A4
:10055000FF3A80F09C80A64540F2998002383C44E6
:10056000A4EB0E041FFA83FEB4FBF9F309FB13445A
:100570004EEA044403FB0CFCA44508D93C1903F1E2
:10058000FF3E80F08280A4457FD9023B3C4443EA91
:100590000040A4EB0C04A0FB02EC64457346E1466A
:1005A00062D35FD05DB1B8EB030264EB090404FAD7
:1005B00006F622FA01F31E43CC40C5E9006400218F
:1005C0004FE7B1FBF2FC010C41EA0E4180B240EA78
:1005D00001423B4638463C46B846BE462026B1FB63
:1005E000F7F1A2EB080241EA0C4166E7014618E781
:1005F00010462CE7C6F120022EFA02F3B740B140B4
:1006000020FA02F24FEA174E0A43B3FBFEF8BCB2DF
:100610000EFB1833110C41EA034108FB04F9B0400A
:1006200089454FEA104380B23ED9791808F1FF3C62
:1006300001D289451FD8A1EB0901B1FBFEF909FBE5
:1006400004F80EFB191192B242EA0142424529D246
:10065000BA1809F1FF31C4D24245C2D2A9F1020150
:100660003A44BEE7F0459DD2BEEB02036CEB070CAB
:100670000138E14696E7A7EB09094944A8F1020CC5
:10068000B1FBFEF909FB04F8DBE773467FE7504650
:1006900066E70846FDE63B44023A33E7ACF1020C5C
:1006A0003B441CE749469CE7A1EB0901C446B1FB6A
:1006B000FEF909FB04F8C4E7704700BF80B500AF3E
:1006C0000D4B0E4A1A600C4B00221A710A4B002285
:1006D0005A71094B00225A61074B00229A61064B5E
:1006E00001221A62044805F021FD0346002B01D0C7
:1006F00003F038FE00BF80BD3C030024004C0258CC
:1007000080B485B000AF78607B681B680B4A934269
:100710000ED10B4BD3F8E030094A43F40023C2F862
:10072000E030074BD3F8E03003F40023FB60FB68B4
:1007300000BF1437BD465DF8047B7047004C02587B
:100740000044025880B483B000AF78607B68002B0F
:1007500002D07B6812221A60034B18460C37BD4644
:100760005DF8047B704700BF0CD0040880B586B0EC
:1007700000AF78600023FB6007F10C031846FFF719
:10078000E1FF386100237B6117E07A6913465B0063
:100790001344DB001A463B6913445B687A689A424B
:1007A00008D17A6913465B001344DB001A463B69A3
:1007B000134407E07B6901337B61FB687A699A42E5
:1007C000E3D3002318461837BD4680BD80B400AF80
:1007D0004FF4A2631846BD465DF8047B704780B4B1
:1007E00000AF40F221531846BD465DF8047B7047C8
:1007F00080B584B000AF00233B603B461846FFF74E
:10080000A1FF78600023FB600023BB600EE0BA68A4
:1008100013465B001344DB001A467B6813449B6855
:10082000FA681343FB60BB680133BB603B68BA687E
:100830009A42ECD3FB6818461037BD4680BD0000D5
:1008400080B500AF194B1A4A1A60184B00225A6043
:10085000164B02229A60154B0022DA60134B0022DD
:100860005A64124B02229A64104B0022DA640F4B36
:1008700000221A650D4B00225A650C4B00229A6526
:100880000A4B0022DA65094805F042FD0346002BB9
:1008900001D003F067FD0121044805F0ADFE0346D9
:1008A000002B01D003F05EFD00BF80BD600300247B
:1008B0000010005280B584B000AF78607B681B6880
:1008C0000E4A934216D10E4BD3F8D4300C4A43F063
:1008D0001003C2F8D4300A4BD3F8D43003F010031D
:1008E000FB60FB68002209215A2005F072FB5A20A8
:1008F00005F089FB00BF1037BD4680BD00100052D7
:100900000044025880B500AF2E4B2F4A1A602D4B81
:1009100000229A602B4B0022DA602A4B00221A74C4
:10092000284B00225A74274B00229A74254B06222A
:100930005A61244B01229A61224B0222DA61214B37
:1009400005221A621F4B01225A621E4B01229A6233
:100950001C4B0122DA621B4B01221A63194B002245
:100960005A63184B02229A63164B0022DA63154B26
:1009700020221A64134B04225A64124B00229A64F8
:10098000104B0422DA640F4B00221A650D4B04222F
:100990005A650C4B00229A650A4B0022DA65094B16
:1009A00008221A66074B00225A66064B04229A66F2
:1009B000044805F0CFFE0346002B01D003F0D2FC23
:1009C00000BF80BDC803002400A0004080B500AF78
:1009D0002E4B2F4A1A602D4B00229A602B4B00227F
:1009E000DA602A4B01221A74284B00225A74274BD2
:1009F00000229A74254B06225A61244B01229A61E7
:100A0000224B0222DA61214B05221A621F4B01227E
:100A10005A621E4B01229A621C4B0122DA621B4B66
:100A200001221A63194B81225A63184B00229A63E0
:100A3000164B0022DA63154B00221A64134B042272
:100A40005A64124B00229A64104B0422DA640F4B52
:100A500000221A650D4B04225A650C4B00229A6540
:100A60000A4B0022DA65094B00221A66074B002266
:100A70005A66064B04229A66044805F06BFE03464C
:100A8000002B01D003F06EFC00BF80BD6804002481
:100A900000A4004080B5BCB000AF786007F1DC0373
:100AA00000221A605A609A60DA601A6107F118032E
:100AB000C0220021184647F06CFE7B681B686E4A16
:100AC000934268D14FF400424FF00003C7E9062378
:100AD00020233B6281237B620223BB620223FB62F1
:100AE00006233B6340237B630023BB630023FB633C
:100AF0000023C7F8883007F1180318460AF058F9A0
:100B00000346002B01D003F02DFC5C4B1B68013326
:100B10005A4A1360594B1B68012B0ED1584BD3F81E
:100B2000EC30574A43F48073C2F8EC30544BD3F89E
:100B3000EC3003F480737B617B69514BD3F8E03078
:100B40004F4A43F08003C2F8E0304D4BD3F8E03019
:100B500003F080033B613B694FF4C043C7F8DC30CE
:100B60000223C7F8E0300023C7F8E4300023C7F8B9
:100B7000E8300923C7F8EC3007F1DC031946414897
:100B800006F0D4FF00220521132005F022FA1320DD
:100B900005F039FA6CE07B681B683B4A934267D1E9
:100BA0004FF400424FF00003C7E9062320233B62C5
:100BB00081237B620223BB620223FB6206233B6329
:100BC00040237B630023BB630023FB630023C7F840
:100BD000883007F1180318460AF0EAF80346002B9C
:100BE00001D003F0BFFB254B1B680133234A136080
:100BF000224B1B68012B0ED1214BD3F8EC30204A3D
:100C000043F48073C2F8EC301D4BD3F8EC3003F49E
:100C10008073FB60FB681A4BD3F8E030184A43F04E
:100C20000203C2F8E030164BD3F8E03003F00203C1
:100C3000BB60BB684FF44053C7F8DC300223C7F8F1
:100C4000E0300023C7F8E4300023C7F8E830092378
:100C5000C7F8EC3007F1DC0319460C4806F066FFD4
:100C600000220521142005F0B4F9142005F0CBF979
:100C700000BFF037BD4680BD00A00040080500243D
:100C800000440258001C025800A40040000402580E
:100C900080B588B000AF3B1D00221A605A609A6090
:100CA000DA601A615A619A61214B224A1A60204B1C
:100CB00000225A601E4B00229A601D4B0422DA600B
:100CC0001B4B10221A611A4B40225A61184B4FF4E9
:100CD000C0729A61164B0022DA61154B4FF4006224
:100CE0001A62134B4FF480525A62114B4FF4005268
:100CF0009A6202237B600523BB600323FB6004230D
:100D00003B6102237B610223BB610223FB613B1D2C
:100D1000194607480EF06AFC0346002B01D003F089
:100D200021FB034800F008F800BF2037BD4680BD16
:100D30000C0500244041005280B588B000AF7860B7
:100D400007F10C0300221A605A609A60DA600023EF
:100D5000FB610123FB6010233B6101237B610023C6
:100D6000BB6107F10C034FF6FF72194678680EF06D
:100D700079FC0346002B01D003F0F4FA0A2005F0B9
:100D800007F80223FB6010233B6101237B610023F2
:100D9000BB6107F10C034FF6FF72194678680EF03D
:100DA00061FC0346002B01D003F0DCFA0323FB6057
:100DB00010233B6108237B610023BB6107F10C0317
:100DC0004FF6FF72194678680EF04CFC0346002B74
:100DD00001D003F0C7FA40F23323FB610423FB6028
:100DE00010233B6101237B61FB69BB6107F10C03AD
:100DF0004FF6FF72194678680EF034FC0346002B5C
:100E000001D003F0AFFA40F2963178680EF05FFC43
:100E10000346002B01D003F0A5FA00BF2037BD46E2
:100E200080BD000080B5B8B000AF07F1CC03002250
:100E30001A605A609A60DA601A61514B1B68002B85
:100E400040F099804E4B01221A6007F10803C0223E
:100E50000021184647F09DFC4FF080724FF00003D0
:100E6000C7E9022300233B6507F10803184609F090
:100E70009FFF0346002B01D003F074FA414BD3F8D7
:100E8000D430404A43F48053C2F8D4303D4BD3F8B9
:100E9000D43003F480537B607B684FF63F03C7F880
:100EA000CC300223C7F8D0300023C7F8D430032356
:100EB000C7F8D8300C23C7F8DC3007F1CC0319464B
:100EC000314806F033FE0D23C7F8CC300223C7F8B3
:100ED000D0300023C7F8D4300323C7F8D8300C2310
:100EE000C7F8DC3007F1CC031946284806F01EFE8F
:100EF00048F23313C7F8CC300223C7F8D0300023B0
:100F0000C7F8D4300323C7F8D8300C23C7F8DC3037
:100F100007F1CC0319461E4806F008FE4FF683730E
:100F2000C7F8CC300223C7F8D0300023C7F8D4303C
:100F30000323C7F8D8300C23C7F8DC3007F1CC0303
:100F40001946144806F0F2FD4CF20373C7F8CC3092
:100F50000223C7F8D0300023C7F8D4300323C7F8E2
:100F6000D8300C23C7F8DC3007F1CC0319460A4807
:100F700006F0DCFD00E000BFE037BD4680BD00BFED
:100F8000400500240044025800140258000802588A
:100F90000018025800100258000C025880B582B0A8
:100FA00000AF7860FFF73EFF00BF0837BD4680BD49
:100FB00080B500AF00223821202015F0DBF9034670
:100FC000454A136000223021102015F0D3F9034662
:100FD000424A136000227821102015F0CBF9034615
:100FE0003F4A13603F4A00213F4814F0D2FF0346B6
:100FF0003E4A13603E4A00213E4814F0CAFF0346B1
:101000003D4A13603D4A00213D4814F0C2FF0346AB
:101010003C4A13603C4A00213C4814F0BAFF0346A6
:101020003B4A13603B4A00213B4814F0B2FF0346A1
:101030003A4A1360284B1B68002B01D0384B00E064
:10104000384B184603F09EFB244B1B68002B01D045
:10105000354B00E0354B184603F094FB204B1B68E2
:10106000002B01D0324B00E0324B184603F08AFBD4
:101070001E4B1B68002B01D02F4B00E02F4B184656
:1010800003F080FB1C4B1B68002B01D02C4B00E0B5
:101090002C4B184603F076FB1A4B1B68002B01D033
:1010A000294B00E0294B184603F06CFB184B1B68DA
:1010B000002B01D0264B00E0264B184603F062FBC4
:1010C000164B1B68002B01D0234B00E0234B184626
:1010D00003F058FB00BF80BDE8050024EC050024A8
:1010E000F0050024BCD1040861110008F4050024B7
:1010F000E0D10408C1110008F805002404D2040856
:101100000D120008FC05002428D204085998010893
:10111000000600244CD204087912000804060024BA
:1011200018A5040834A5040854A5040870A50408EB
:1011300090A50408ACA50408CCA50408ECA50408F7
:1011400010A6040830A6040854A6040870A60408D3
:1011500090A60408B0A60408D4A60408ECA60408C7
:1011600080B582B000AF78600F4B0C221A7001225C
:1011700001210E4806F0A2FE0D4803F003FB0D48C6
:1011800003F000FB0C4B1B78002B07D104F04AFA4C
:10119000094B01221A70094803F0F4FA04F074FABA
:1011A000052014F088FFEDE7481B002400000258DA
:1011B00008A7040828A70408BC05002444A70408BD
:1011C00080B590B000AF78600D4803F0DBFA01F015
:1011D0004BF80C4803F0D6FA0B4B186807F10801DE
:1011E0004FF0FF33002215F099F90346002BF3D19D
:1011F00007F10803184601F093FA01F099F8EBE7BC
:1012000060A7040880A70408E805002480B58EB014
:1012100000AF7860144803F0B5FA144B186807F172
:1012200008014FF0FF33002215F078F90346002B38
:10123000F3D102E0012014F03EFF0D4805F0EEFE70
:101240000346002BF6D007F1080303F1240207F14F
:1012500008031946064805F0FCFC0346002BDCD0C9
:10126000044803F08FFAD8E7A8A70408EC05002487
:10127000C8030024C4A7040880B5A0B000AF7860FC
:101280000D4803F07FFA00F03FF80C4B186807F1A7
:1012900008014FF0FF33002215F040F90346002B00
:1012A000F3D1074B1B680133054A136007F10803AC
:1012B000184600F03FFAE8E7E4A70408F005002428
:1012C000E005002480B594B002AF78600B46FB7057
:1012D0007B68002B01D07B6800E0094BFA7807F1AE
:1012E00008000092074A402147F09CF907F10803E3
:1012F000184603F047FA00BF4837BD4680BD00BF1F
:10130000FCA7040800A8040880B500AF034803F058
:1013100039FA00F04DF800BF80BD00BF14A80408E2
:1013200080B582B000AF1B4B1B78002B01D001238E
:101330002CE04FF4FA6000F099F90346002B04D139
:10134000154800F0B5F9002320E0012213491448A4
:1013500013F070FE0346FB71FB79002B0CD0114B90
:1013600000221A70FB7919460F48FFF7ABFF0E48B1
:1013700000F09EF9002309E00C4803F003FA094B42
:1013800001221A70034B01221A70012318460837F4
:10139000BD4680BDE40500242CA80408AC2200242E
:1013A000B0220024B01B002444A8040850A804085C
:1013B00080B5ADF54E7D04AFFFF7B2FF0346002BBD
:1013C00000F0A18007F1FC0301225149184613F0F7
:1013D00091FE0346002B06D04E4803F0D3F94E4B46
:1013E00001221A7090E007F1FC0207F19C036021D2
:1013F000184614F039FC0346002B78D007F1FC02A4
:1014000007F11C038021184614F02EFC0346002B24
:101410006DD007F1140107F1180207F11C003B1D04
:10142000039307F10803029307F10C03019307F1FB
:10143000100300930B46394947F02AF90346062B5F
:1014400055D107F54A73A3F544731B68002B01D0EF
:10145000012200E00022324B1A7007F54A73A3F50F
:1014600045731B689BB21946002001F0A9FB034697
:101470001A462C4B1A8007F54A73A3F546731B686E
:101480009BB21946012001F09BFB03461A46254BEF
:101490005A8007F54A73A3F547731B689BB2194638
:1014A000022001F08DFB03461A461E4B9A8007F579
:1014B0004A73A3F548731B689BB21946032001F0D9
:1014C0007FFB03461A46174BDA8007F54A73A3F5EC
:1014D00049731B689BB21946042001F071FB034657
:1014E0001A46104B1A81104803F04CF902E00F48DD
:1014F00003F048F907F1FC03184614F050FB064BC3
:1015000001221A7000E000BF07F54A77BD4680BD92
:1015100060A8040870A80408E505002498A8040839
:1015200004000024D4050024ACA80408C8A80408BA
:10153000F0B5ADF53D7D06AF07F53673A3F50E7337
:1015400000221A60FFF7ECFE0346002B76D03E4BDC
:101550001B78DBB21E463D4B1B889BB21A463B4BA9
:101560005B889BB21946394B9B889BB21C46374B14
:10157000DB889BB21D46354B1B899BB238460493D2
:1015800003950294019100923346314AA02147F01D
:1015900049F80346C7F8D432D7F8D432002B03D029
:1015A000D7F8D4329F2B03D92A4803F0EBF846E052
:1015B00007F1A4030A222849184613F09BFD0346AD
:1015C00087F8D33297F8D332002B06D097F8D3326E
:1015D00019462248FFF776FE31E007F1A0033946AD
:1015E00007F1A400D7F8D42214F0ACF8034687F82A
:1015F000D33297F8D332002B08D107F53673A3F511
:101600000E731B68D7F8D4229A4206D097F8D332CB
:1016100019461348FFF756FE0AE007F1A4031846DF
:1016200014F034FA0F4B01221A700F4803F0AAF895
:1016300007F1A403184614F0B2FA00E000BF07F562
:101640003777BD46F0BD00BF04000024D405002458
:10165000F4A8040874A9040860A8040898A9040858
:10166000ACA90408E5050024C0A9040880B584B02D
:1016700000AF786004F080FBF8600AE00B480DF0E2
:10168000A9FA0346042B01D101230BE00A2014F030
:1016900012FD04F071FB0246FB68D31A7A689A4285
:1016A000ECD8002318461037BD4680BDB41B00247B
:1016B000F0B5BBB006AF786007F108032422002123
:1016C000184647F066F807F10803194616480DF06A
:1016D00043F9034687F8CF307B68002B01D07C6844
:1016E00000E0124C10480DF075FA05460E480CF05B
:1016F000BBFE064697F8CF303A6A796A07F12C00AC
:10170000049103920293019600952346084AA02172
:1017100046F088FF07F12C03184603F033F800BFAA
:10172000D437BD46F0BD00BFB41B0024DCA90408BB
:10173000E4A90408F0B5ADF2F45D32AF07F5A56396
:10174000A3F2744318600023C7F8243507F5A56396
:10175000A3F274431B68002B00F0AC838D4B1B7805
:10176000002B0AD107F5A563A3F274431B6893F815
:101770007530002B01D1FFF71BFE07F5A563A3F21F
:1017800074431B6893F87530002B02D0FFF7D0FE2E
:1017900091E307F5A563A3F274431B6893F87430D3
:1017A000002B20D07C4B1B78002B18D07B4814F0EA
:1017B0006DF9034687F8223597F82235002B05D0BE
:1017C00097F8223519467648FFF77CFD734814F0E8
:1017D000E6F9714B00221A70724802F0D3FF724B87
:1017E00000221A7067E3714B1B78DBB2002B03D128
:1017F0006D4B00221A705EE36D4B1B78002B69D194
:1018000007F5A563A3F5826318464FF400731A46E3
:10181000002146F0BEFF4FF4FA60FFF727FF0346B2
:10182000002B06D1604B00221A706248FFF740FF80
:1018300041E3614B1B78002B43D107F58C714FF4CA
:101840007A730093012300225C480CF03DF90346B3
:1018500087F8233597F8232507F5A563A3F5826359
:101860001B78194607F5A563A3F582635B781C46D0
:1018700007F5A563A3F582639B781D4607F5A5636D
:10188000A3F58263DB7807F1B80003930295019416
:10189000009113464A4A602146F0C4FE07F1B8039E
:1018A000184602F06FFF97F82335002B03D14FF451
:1018B000FA60FFF7DBFE4348FFF7FAFE3E4B0122DA
:1018C0001A70FFF72DFD0346002B03D1364B002283
:1018D0001A70F0E2304B1B78002B40F0898000F04A
:1018E000E9FE0346002B03D12F4B00221A70E2E2DF
:1018F00006223549294813F0FDFB034687F82235B7
:1019000097F82235002B0CD0274B00221A7097F83D
:10191000223519462D48FFF7D5FC254B00221A70B9
:10192000C9E207F5A563A3F5037300221A6007F562
:10193000477340F269322649184813F003FF034603
:1019400087F8223597F82235002B08D107F5A563D3
:10195000A3F503731B6840F2693293420FD0124B18
:1019600000221A7097F8223519461A48FFF7AAFC88
:101970000A4814F014F90E4B00221A709BE2064B31
:1019800001221A70094B1B78DBB2002B24D00122F4
:1019900023E000BFE5050024080600240C0600240F
:1019A00024AA040834AA0408CC0500240400002456
:1019B000E405002454AA040838080024B41B0024B9
:1019C00064AA04089CAA040808000024ACAA04081D
:1019D00070D20408BCAA04080022034B1A70034802
:1019E00002F0D0FE04E000BFCC050024D0AA040819
:1019F00007F5A563A3F274431B681B68C7F8B030F2
:101A000007F5A563A3F274431B689B88C7F8AC3045
:101A100007F5A563A3F274431B689B79C7F8A83048
:101A200007F5A563A3F274431B68DB79C7F8A430FC
:101A300007F5A563A3F274431B681B89C7F8A030A0
:101A400007F5A563A3F274431B685B89C7F89C3054
:101A500007F5A563A3F274431B689B89C7F8983008
:101A600007F5A563A3F274431B68DB89C7F89430BC
:101A700007F5A563A3F274431B681B7CC7F890307D
:101A800007F5A563A3F274431B685B7CC7F88C3031
:101A900007F5A563A3F274431B689B7CC7F88830E5
:101AA00007F5A563A3F274431B68DB7CC7F8843099
:101AB00007F5A563A3F274431B689B8AC7F88030BF
:101AC00007F5A563A3F274431B689B7DFB6707F5CD
:101AD000A563A3F274431B681B8BBB6707F5A56363
:101AE000A3F274431B685B8B7B6707F5A563A3F2C6
:101AF00074431B689B8B3B6707F5A563A3F2744394
:101B00001B68DB8BFB6607F5A563A3F274431B68B8
:101B10001B8CBB6607F5A563A3F274431B685B8C43
:101B20007B6607F5A563A3F274431B689B8C3B6639
:101B300007F5A563A3F274431B68DB8CFB6507F50F
:101B4000A563A3F274431B681B8DBB6507F5A563F2
:101B5000A3F274431B685B8D7B6507F5A563A3F255
:101B600074431B68B3F92C303B6507F5A563A3F2FA
:101B700074431B68B3F92E30FB6407F5A563A3F229
:101B800074431B68B3F93030BB6407F5A563A3F257
:101B900074431B68B3F932307B6407F5A563A3F285
:101BA00074431B68B3F934303B6407F5A563A3F2B3
:101BB00074431B68B3F93630FB6307F5A563A3F2E2
:101BC00074431B68B3F93830BB6307F5A563A3F210
:101BD00074431B68B3F93A307B6307F5A563A3F23E
:101BE00074431B6893F83C303B6307F5A563A3F28D
:101BF00074431B6893F83D30FB6207F5A563A3F2BD
:101C000074431B6893F83E30BB6207F5A563A3F2EB
:101C100074431B68B3F840307B6207F5A563A3F2F9
:101C200074431B68B3F942303B6207F5A563A3F226
:101C300074431B68B3F94430FB6107F5A563A3F255
:101C400074431B68B3F94630BB6107F5A563A3F283
:101C500074431B689A6C7A6107F5A563A3F2744319
:101C60001B68D96C396107F5A563A3F274431B683F
:101C7000186DF86007F5A563A3F274431B68B3F809
:101C80005430BB6007F5A563A3F274431B68B3F837
:101C900056307B6007F5A563A3F274431B68986D0B
:101CA00007F5A563A3F274431B6893F85C301E46E6
:101CB00007F5A563A3F274431B6893F85D301C46D7
:101CC00007F5A563A3F274431B68B3F85E301946A9
:101CD00007F5A563A3F274431B681A6E07F5A563A5
:101CE000A3F274431B685B6E07F5487530932F921F
:101CF0002E912D942C962B907C682A94BC68299464
:101D0000F8682890396927917A692692BA692592EC
:101D1000FA6924923A6A23927A6A2292BA6A2192E2
:101D2000FA6A20923A6B1F927A6B1E92BA6B1D92DE
:101D3000FA6B1C923A6C1B927A6C1A92BA6C1992DA
:101D4000FA6C18923A6D17927A6D1692BA6D1592D6
:101D5000FA6D14923A6E13927A6E1292BA6E1192D2
:101D6000FA6E10923A6F0F927A6F0E92BA6F0D92CE
:101D7000FA6F0C92D7F880200B92D7F884200A9241
:101D8000D7F888200992D7F88C200892D7F89020AD
:101D90000792D7F894200692D7F898200592D7F8A2
:101DA0009C200492D7F8A0200392D7F8A420029296
:101DB000D7F8A8200192D7F8AC200092D7F8B0301D
:101DC0003F4A4FF40071284646F02CFC0346C7F802
:101DD0002435D7F82435002B04D0D7F82435B3F5B3
:101DE000007F03D3374802F0CDFC64E007F5A5631C
:101DF000A3F5047300221A6007F5467307F54871CE
:101E0000D7F82425304813F09DFC034687F8223587
:101E100097F82235002B08D107F5A563A3F50473C5
:101E20001B68D7F824259A4212D0284B00221A703A
:101E300097F8223519462648FFF744FA224813F04E
:101E4000AEFE244B00221A70234B00221A7032E09F
:101E5000224B1B78DBB2002B01D0012200E00022D4
:101E60001A4B1A701E4B1B6801331D4A13601C4B22
:101E70001B6803F00703002B1DD1134813F006FE67
:101E8000034687F8223597F82235002B13D00F4BE5
:101E900000221A7097F8223519461248FFF712FAF5
:101EA000094813F07CFE0B4B00221A700A4B0022EB
:101EB0001A7000E000BF07F22C57BD46F0BD00BF0E
:101EC000F0AA040890AB04080C060024CC050024FA
:101ED000B0AB040808060024E40500240400002434
:101EE0003C080024C0AB040880B483B000AF786025
:101EF0007B681B781AB27B6801331B781BB21B020C
:101F00001BB213431BB29BB218460C37BD465DF89B
:101F1000047B704780B483B000AF78607B681B7827
:101F20001BB21B021AB27B6801331B781BB213432E
:101F30001BB29BB218460C37BD465DF8047B704758
:101F400080B582B000AF78607868FFF7CDFF0346B8
:101F50001BB218460837BD4680BD80B582B000AFC1
:101F600078607868FFF7D6FF03461BB2184608373B
:101F7000BD4680BD80B483B000AF78607B681B78BD
:101F80001A467B6801331B781B021A437B680233B5
:101F90001B781B041A437B6803331B781B0613430F
:101FA00018460C37BD465DF8047B704780B582B09B
:101FB00000AF78607868FFF7DDFF03461846083702
:101FC000BD4680BD80B58AB000AFF860B9607A6068
:101FD0003B600023BB6100237B6100237B62002305
:101FE0003B620023FB77FB68002B05D0BB68002B0E
:101FF00002D07B68002B01D1002310E1BB689B7AE3
:102000001A463B68934205D3BB68DB7A1A463B68A5
:10201000934201D9002302E1BB685B68BA68127A77
:102020001344682B01D90023F9E0FB68BB61BB684E
:102030005B68BA6913447B61BB685B7B072B00F26A
:10204000B28001A252F823F069200008892000081C
:10205000BB200008E120000807210008312100080A
:102060005B2100087F210008BB685B7A01333A6876
:102070009A4201D20023D2E0BB685B7A1A467B68A1
:1020800013441B787B6290E0BB685B7A01333A684B
:102090009A4201D20023C2E0BB685B7A1A467B6891
:1020A00013441A78BB681B7B1340DBB2002B01D0B2
:1020B000012300E000237B6277E0BB685B7A023398
:1020C0003A689A4201D20023A9E0BB685B7A1A46BB
:1020D0007B6813441846FFF707FF03467B6264E002
:1020E000BB685B7A02333A689A4201D2002396E0D9
:1020F000BB685B7A1A467B6813441846FFF70AFFF1
:1021000003467B6251E0BB685B7A02333A689A42CD
:1021100001D2002383E0BB685B7A1A467B681344D4
:102120001846FFF70DFF03463B620123FB773CE0B7
:10213000BB685B7A02333A689A4201D200236EE0B0
:10214000BB685B7A1A467B6813441846FFF705FFA5
:1021500003463B620123FB7727E0BB685B7A0433CD
:102160003A689A4201D2002359E0BB685B7A1A466A
:102170007B6813441846FFF7FDFE786215E0BB68E4
:102180005B7A04333A689A4201D2002347E0BB6885
:102190005B7A1A467B6813441846FFF707FF3862DC
:1021A0000123FB7701E0002339E0FB7F002B1AD0ED
:1021B000BB681B7A042B10D0042B12DC012B02D03D
:1021C000022B05D00DE03B6A5AB27B691A7025E0FC
:1021D0003B6A1AB27B691A8020E07B693A6A1A600E
:1021E0001CE000231BE0BB681B7A042B10D0042BDF
:1021F00012DC012B02D0022B05D00DE07B6ADAB293
:102200007B691A700AE07B6A9AB27B691A8005E0E2
:102210007B697A6A1A6001E0002300E00123184616
:102220002837BD4680BD00BF80B500AF68220021C1
:10223000084846F0AEFA084B00221A60074B00220D
:102240001A60074B00221A70064B00221A6000BF6A
:1022500080BD00BF44050024AC050024B005002467
:10226000B4050024B805002480B592B000AF07F192
:10227000200320220021184646F08BFA3B462022FC
:102280000021184646F085FAFEF7A0FA7864FEF7BA
:10229000A6FA386400233B6000237B600223BB6006
:1022A0000123FB604FF490733B6140F2FF737B614D
:1022B0003B4619461C4804F02BFC0346002B01D07A
:1022C00002F050F800233B6201237B620023BB62D3
:1022D0000123FB627B6C3B633B6C7B6307F1200358
:1022E0001946114804F014FC0346002B01D002F0FB
:1022F00039F8FFF799FF0C4804F080FC0346002BE7
:1023000001D002F02FF800220121074804F098FEC6
:102310000346002B01D002F025F8044802F032FAFF
:1023200000BF4837BD4680BDC803002490AC0408F8
:1023300080B58EB000AF03E03B46184600F0F0F9E0
:10234000074B186839460023002214F0E7F80346CB
:10235000002BF1D000BF00BF3837BD4680BD00BFA5
:10236000E805002480B588B000AFF860B9607A60F5
:102370003B600023FB6100237B61FB68002B05D0E1
:10238000BB68002B02D07B68002B01D1002355E0F5
:102390002C4B1B6801332B4A1360BFF35F8F00BFC8
:1023A0000023BB6111E0FB681A69BB691B01D118EE
:1023B0007B68BA682448FFF705FE03461A46FB69A6
:1023C0001344FB61BB690133BB61FB685B69BA699C
:1023D0009A42E8D3FB69002B09D1BFF35F8F00BF9E
:1023E000184B1B680133174A1360002326E0FB6873
:1023F0009B687B61154B1A687B691343134A136012
:10240000134B01221A70134B1B680133114A1360DE
:10241000FEF7EEF902460D4B1B689A4202D10B4BB8
:1024200000221A60BFF35F8F00BF064B1B680133A9
:10243000044A1360386800F0A1F8012318462037D9
:10244000BD4680BDAC05002444050024B805002429
:10245000B4050024B005002480B5A0B000AF7860BA
:10246000396000237B670023FB670023BB677B6821
:10247000002B04D0224B1B78DBB2002B01D10023B0
:102480003AE0204B1B687B677B6F03F00103002B56
:1024900014D1BFF35F8F00BF1B4B1B68BB671B4A88
:1024A00007F10C0311466822184646F054FABFF3B0
:1024B0005F8F00BF134B1B68FB6700E000BF7A6FA4
:1024C000FB6F9A42DDD1FB6F03F00103002BD8D1E3
:1024D000BB6F002B01D100230EE07B68184607F18B
:1024E0000C036822194646F036FA3B68002B02D0EE
:1024F0003B68BA6F1A60012318468037BD4680BD1D
:10250000B4050024AC050024B005002444050024D3
:1025100080B483B000AF78607B68082B26D801A216
:1025200052F823F0492500084D25000851250008E0
:1025300055250008592500085D250008612500087B
:102540006525000869250008002310E001230EE03E
:1025500002230CE003230AE0042308E0052306E03D
:10256000062304E0072302E0082300E000231846C6
:102570000C37BD465DF8047B704700BF80B5A0B046
:1025800000AF786007F1080378220021184646F072
:1025900000F907F1080303F1680207F10803114687
:1025A0001846FFF759FF0346002B22D003F0E4FB47
:1025B00003467B677B68BB67002387F87C300F4B43
:1025C0001B68002B16D00E4B1B78DBB2002B11D0F2
:1025D0000A4B186807F108010023002213F03EFFA0
:1025E0000346002B06D0074B1B680133054A1360D6
:1025F00000E000BF8037BD4680BD00BFF00500246D
:1026000004000024C805002480B59EB000AF3B46FE
:1026100078220021184646F0BCF8012387F8743070
:102620000E4B1B68002B14D00C4B1B68184613F084
:10263000D3FF0A4B186839460023002213F00EFF1F
:102640000346002B06D0064B1B680133044A136077
:1026500000E000BF7837BD4680BD00BFF005002414
:10266000C805002480B59EB000AF3B46782200210B
:10267000184646F08EF8012387F875300B4B1B681F
:10268000002B0FD0094B186839460023002213F0A5
:10269000E5FE0346002B06D0054B1B680133044AB8
:1026A000136000E000BF7837BD4680BDF005002410
:1026B000C805002480B588B000AF0023FB8318E074
:1026C000FB8B124A0B21124845F0ACFF104B114A0C
:1026D0001021114845F0A6FF3B1D19460E4813F086
:1026E00083FA0346042B01D101230AE0FB8B01335B
:1026F000FB83FB8BB3F57A7FE2D3084802F042F804
:10270000002318462037BD4680BD00BF1CAD04081D
:102710001800002428AD04080800002430AD040887
:1027200080B586B000AF786000237B617B68002BAA
:102730003AD007F108031946786800F097F8034685
:10274000002B05D007F10803184600F02BF92CE008
:102750007B681B681846FEF709F878617B685B6840
:10276000002B22D17B689B68002B1ED17B69002B3C
:102770001BD07B6893F830207B691B7B9A4214D373
:102780007B6893F830207B695B7B9A420DD87B682D
:1027900003F128017B6893F830301A467B681B6888
:1027A0007869FFF7DFFD00E000BF1837BD4680BD48
:1027B00080B590B000AF786039607B68002B46D060
:1027C0007B681B68254A934241D13B6803F00103B3
:1027D000002B3CD033E007F10803382200211846D3
:1027E00045F0D7FF07F10803283307F1080240211D
:1027F000786804F089FA0346002B2AD17B691846D1
:10280000FFF786FE0346DBB287F8383003F0B4FAF0
:102810000346FB63124B1B680133114A1360114BD3
:10282000186807F108010023002213F017FE034681
:10283000002B04D00C4B1B6801330B4A1360402162
:10284000786804F0CDFB0346002BC4D102E000BF42
:1028500000E000BF4037BD4680BD00BF00A0004083
:10286000C0050024E8050024C405002480B483B01A
:1028700000AF786039607B68002B02D03B68002B8A
:1028800001D1002332E07B681B68B3F5907F04D14F
:102890007B6893F83030012B01D8002326E03B6899
:1028A00000221A707B6893F828203B685A707B6876
:1028B00093F829301A463B685A807B6893F8303089
:1028C000032B0AD93B685A887B6893F82A301B028D
:1028D0009BB213439AB23B685A807B681A683B6884
:1028E0005A607B685A6B3B689A60012318460C3724
:1028F000BD465DF8047B704780B582B000AF78605C
:102900007B68002B01D1002319E07B685B78022BE8
:1029100014D17B685B88002B01D0012200E00022EB
:10292000094B1A70084B1B78DBB2002B04D1074B04
:1029300000221A70FFF768FE012300E0002318460A
:102940000837BD4680BD00BF04000024CC0500242C
:1029500090B585B000AF78607B68002B0AD07B68AB
:102960005B7807F10F021146184600F00BF9034699
:10297000002B01D100230EE0FA7B7B685B88F97B9A
:102980000C461946104600F01BF903461A46044B44
:1029900023F81420012318461437BD4690BD00BF0C
:1029A000D405002490B5A1B004AF7860002387F867
:1029B0006F307B68002B01D100233BE07868FFF784
:1029C0009BFF034687F86F3097F86F30002B05D1D7
:1029D0007868FFF7BDFF034687F86F307B681B7888
:1029E0001C467B685B781A467B685B88194697F8BB
:1029F0006F3007F10C0002930191009223460F4AB9
:102A0000602145F00FFE07F10C03184601F0BAFEF5
:102A10007B681B78002B05D197F86F3019467868D2
:102A200000F00EF897F86F30002B01D0FFF71AFE78
:102A300097F86F3018467437BD4690BD50AD040806
:102A400080B58EB000AF78600B46FB707B68002BC2
:102A50002AD007F1080330220021184645F099FEDC
:102A600007F10803042240F22111184600F040F853
:102A7000042387F834307B685B7887F82C307B68D8
:102A80005B88DBB287F82D307B685B881B0A9BB2C2
:102A9000DBB287F82E30FB7887F82F3007F1080378
:102AA000184600F005F800E000BF3837BD4680BD8D
:102AB00080B582B000AF78607B68002B0FD00A4BE6
:102AC000186800230022796813F0C8FC0346002B25
:102AD00006D0064B1B680133044A136000E000BFB8
:102AE0000837BD4680BD00BFEC050024D00500249A
:102AF00080B485B000AFF860B9607A60FB68002BE5
:102B00001BD0FB68BA681A60FB6800225A60FB6839
:102B100000229A60FB687A68DA60FB6800221A611A
:102B2000FB6800225A61FB6800229A61FB68002260
:102B3000DA61FB6800221A6200E000BF1437BD466C
:102B40005DF8047B704780B483B000AF0346FB712F
:102B5000FB79042B01D8012300E0002318460C3731
:102B6000BD465DF8047B704780B483B000AF034678
:102B7000FB71FB791033DBB218460C37BD465DF8AC
:102B8000047B704780B483B000AF03463960FB71AB
:102B90003B68002B05D0FB790F2B02D9FB79142B56
:102BA00001D9002305E0FB79103BDAB23B681A70CB
:102BB000012318460C37BD465DF8047B70470000C2
:102BC00080B582B000AF03460A46FB711346BB8056
:102BD000FB791846FFF7B7FF0346002B01D100230E
:102BE00008E0FB79054A32F81330BA88934228BFCF
:102BF00013469BB218460837BD4680BDDCD5040895
:102C000080B400AF034B1B78DBB21846BD465DF8BD
:102C1000047B70470400002480B400AF034B1B7892
:102C2000DBB21846BD465DF8047B7047CC05002436
:102C300080B586B000AF0346FB7107F10C0300229C
:102C40001A605A609A6001233B7302237B73FB79FD
:102C5000002B01D0012300E00023FB8100233B6116
:102C600003F08AF803467B6107F10C031846FFF76F
:102C700099FE034618461837BD4680BD80B400AFA4
:102C8000024B1846BD465DF8047B704718000024CF
:102C900080B582B000AF0346FB71FB791846FFF7A1
:102CA00052FF0346002B01D1002304E0FB79044AC4
:102CB00032F813309BB218460837BD4680BD00BFBE
:102CC000D405002480B586B000AF03460A46FB71E8
:102CD0001346BB8007F1080300221A605A609A600D
:102CE000FB791846FFF72FFF0346002B01D1002385
:102CF00026E001233B72FB791846FFF735FF0346B8
:102D00007B72BB887B810023FB6003F035F80346B0
:102D10003B6107F108031846FFF744FE0346FB75C5
:102D2000FB7D002B0BD0FB79074A32F813309BB2A6
:102D30007B817B7A7A891146184600F007F8FB7D83
:102D400018461837BD4680BDD405002480B58EB026
:102D500000AF03460A46FB711346BB8007F1080328
:102D600030220021184645F014FD07F10803042223
:102D70004FF490711846FFF7BBFE042387F83430F8
:102D8000FB7987F82C30BB88DBB287F82D30BB8805
:102D90001B0A9BB2DBB287F82E30002387F82F3056
:102DA00007F108031846FFF783FE0123184638375A
:102DB000BD4680BD80B582B000AF786039600848FC
:102DC00001F0E0FC3B68002B05D0386801F0DAFC2C
:102DD000044801F0D7FC72B600BF00BFFDE700BF9A
:102DE0007CAD040894AD040880B500AF034801F041
:102DF000C9FC72B600BF00BFFDE700BF98AD040874
:102E000080B58EB000AF07F1240300221A605A602B
:102E10009A60DA601A61854BD3F8E030834A43F058
:102E20001003C2F8E030814BD3F8E03003F0100318
:102E30003B623B6A7D4BD3F8E0307C4A43F48073BD
:102E4000C2F8E030794BD3F8E03003F48073FB61D3
:102E5000FB69764BD3F8E030744A43F00403C2F8C0
:102E6000E030724BD3F8E03003F00403BB61BB6980
:102E70006E4BD3F8E0306D4A43F02003C2F8E030E7
:102E80006A4BD3F8E03003F020037B617B69674B2A
:102E9000D3F8E030654A43F08003C2F8E030634B7A
:102EA000D3F8E03003F080033B613B695F4BD3F81C
:102EB000E0305E4A43F00103C2F8E0305B4BD3F8E8
:102EC000E03003F00103FB60FB68584BD3F8E030BF
:102ED000564A43F00203C2F8E030544BD3F8E030D6
:102EE00003F00203BB60BB68504BD3F8E0304F4A9D
:102EF00043F04003C2F8E0304C4BD3F8E03003F02D
:102F000040037B607B68494BD3F8E030474A43F08D
:102F10000803C2F8E030454BD3F8E03003F0080373
:102F20003B603B6801220421414804F0C7FF0022B6
:102F300008213F4804F0C2FF00224FF480713D4851
:102F400004F0BCFF002242F220013B4804F0B6FF2F
:102F500000220121394804F0B1FF0C237B620123D8
:102F6000BB620023FB6200233B6307F12403194685
:102F70002F4804F0DBFD4FF480737B620123BB62BA
:102F80000023FB6200233B6307F124031946294811
:102F900004F0CCFD20237B620023BB620023FB6294
:102FA00007F124031946234804F0C0FD42F2200330
:102FB0007B620123BB620023FB6200233B6307F1BA
:102FC000240319461C4804F0B1FD01237B62012350
:102FD000BB620023FB6200233B6307F12403194615
:102FE000164804F0A3FD4FF470737B620023BB62AC
:102FF0000023FB6207F124031946114804F096FDF3
:1030000080237B620023BB620123FB6207F1240360
:103010001946094804F08AFD00214FF0807002F043
:10302000E7FE00BF3837BD4680BD00BF00440258F0
:1030300000100258002002580008025800000258F0
:10304000001C025880B500AF064B074A1A600548BD
:1030500004F04EFF0346002B01D001F083F900BFBE
:1030600080BD00BF400800240030005280B485B00D
:1030700000AF78607B681B680B4A93420ED10B4B04
:10308000D3F8D430094A43F02003C2F8D430074BB8
:10309000D3F8D43003F02003FB60FB6800BF143783
:1030A000BD465DF8047B7047003000520044025872
:1030B00080B58EB000AF3B1D34220021184645F08C
:1030C00068FB414B00221A70404B01221A70404BA2
:1030D000404A1A603E4B00225A603D4B00229A60E3
:1030E0003B4B4FF00052DA60394B00221A61384BEB
:1030F00000225A61364B00229A61354B0A22DA616E
:10310000334B0A221A62324B40F22A325A62304B57
:103110004FF4F5729A622E4B4FF48462DA622C4BB4
:1031200040F20D221A632A4B002283F83420284BE8
:10313000002283F83520264B002283F836202448CD
:1031400005F0E8FC0346002B01D001F00BF9002349
:103150007B604FF44873BB600023FB604FF4F07357
:103160003B6102237B61FF23BB610023FB614FF4C2
:1031700080633B6205237B624FF04043BB624FF4A8
:103180004873FB624FF4F0733B63002387F83430DD
:10319000002387F83530002387F836303B1D0022A6
:1031A00019460B4805F001FE0346002B01D001F043
:1031B000D9F8054B01221A70044B05221A7000BF82
:1031C0003837BD4680BD00BF980800249908002408
:1031D0009C0800240010005080B5C2B000AF07F575
:1031E0008473A3F58273186007F1F40300221A6058
:1031F0005A609A60DA601A6107F13003C022002138
:10320000184645F0C6FA07F58473A3F582731B6868
:103210001B68D34A934240F09E814FF000524FF01A
:103220000003C7E90C230423BB651423FB650223B9
:103230003B6602237B660B23BB664FF44063FB6651
:1032400000233B6700237B6707F13003184607F034
:10325000AFFD0346002B01D001F084F8C14BD3F839
:10326000E430C04A43F00803C2F8E430BD4BD3F861
:10327000E43003F00803FB62FB6ABA4BD3F8E0309A
:10328000B84A43F01003C2F8E030B64BD3F8E03050
:1032900003F01003BB62BB6AB24BD3F8E030B14A13
:1032A00043F48073C2F8E030AE4BD3F8E03003F45F
:1032B00080737B627B6AAB4BD3F8E030A94A43F062
:1032C0002003C2F8E030A74BD3F8E03003F020032E
:1032D0003B623B6AA34BD3F8E030A24A43F00103C0
:1032E000C2F8E0309F4BD3F8E03003F00103FB61FC
:1032F000FB699C4BD3F8E0309A4A43F08003C2F854
:10330000E030984BD3F8E03003F08003BB61BB6939
:10331000944BD3F8E030934A43F00203C2F8E03014
:10332000904BD3F8E03003F002037B617B698D4B57
:10333000D3F8E0308B4A43F04003C2F8E030894BC9
:10334000D3F8E03003F040033B613B69854BD3F891
:10335000E030844A43F00803C2F8E030814BD3F8F0
:10336000E03003F00803FB60FB687023C7F8F4301B
:103370000223C7F8F8300023C7F8FC300323C7F84E
:1033800000310E23C7F8043107F1F40319467648DB
:1033900004F0CCFB4FF4CA63C7F8F4300223C7F83B
:1033A000F8300023C7F8FC300323C7F800310E23A0
:1033B000C7F8043107F1F40319466C4804F0B6FB72
:1033C0004FF40063C7F8F4300223C7F8F830002345
:1033D000C7F8FC300323C7F800310923C7F80431CC
:1033E00007F1F4031946614804F0A0FB4FF4806331
:1033F000C7F8F4300223C7F8F8300023C7F8FC30D0
:103400000323C7F800310E23C7F8043107F1F40392
:103410001946574804F08AFB4E23C7F8F4300223BC
:10342000C7F8F8300023C7F8FC300323C7F8003191
:103430000E23C7F8043107F1F40319464D4804F090
:1034400075FB40F61443C7F8F4300223C7F8F83090
:103450000023C7F8FC300323C7F800310E23C7F858
:10346000043107F1F4031946434804F05FFB0323DA
:10347000C7F8F4300223C7F8F8300023C7F8FC304F
:103480000323C7F800310923C7F8043107F1F40317
:1034900019463A4804F04AFB4FF42063C7F8F43069
:1034A0000223C7F8F8300023C7F8FC300323C7F81D
:1034B00000310E23C7F8043107F1F40319462F48F1
:1034C00004F034FB4FF4C653C7F8F4300223C7F8B6
:1034D000F8300023C7F8FC300323C7F800310E236F
:1034E000C7F8043107F1F4031946254804F01EFB20
:1034F0004823C7F8F4300223C7F8F8300023C7F890
:10350000FC300323C7F800310E23C7F8043107F15C
:10351000F40319461B4804F009FB4FF48063C7F815
:10352000F4300223C7F8F8300023C7F8FC30032337
:10353000C7F800310923C7F8043107F1F40319462D
:103540000F4804F0F3FA00220921582002F041FD4F
:10355000582002F058FD00BF07F58477BD4680BDB6
:103560000010005000440258001002580020025879
:103570000014025800000258001C025800040258AF
:1035800000180258000C025880B584B000AF786073
:103590007B68D3F8A430FB60FB6803F00203002BC8
:1035A00015D001F0C1F97B681B680222DA637B68E1
:1035B0001B685A6B7B681B6842F002025A637B6887
:1035C000D3F8A43023F002027B68C3F8A42000BF24
:1035D0001037BD4680BD000080B594B000AF07F144
:1035E000180338220021184645F0D3F83B46002244
:1035F0001A605A609A60DA601A615A614FF48073F7
:103600003B630623BB6100237B630023BB63002372
:10361000FB630023FB6200237B640023BB64002365
:10362000FB6407F118034FF4FA621946164805F0D7
:1036300097FF0346002B01D0002321E00523BB6147
:103640004FF08073FB6301233B6402233B60022342
:103650007B6000233B610123FB601023BB604FF4C0
:1036600080037B613A4607F118014FF4FA6306487C
:1036700006F003F90346002B01D0002300E00123EC
:1036800018465037BD4680BD641B002480B596B0F7
:1036900000AF786007F1200338220021184645F07A
:1036A00078F807F1080300221A605A609A60DA601D
:1036B0001A615A614FF48073BB6305233B62002398
:1036C000FB6300233B644FF080737B6400237B63C8
:1036D0000123BB640023FB6400233B6500237B655F
:1036E0000023BB600123FB600023BB6101237B61DE
:1036F00010233B614FF48003FB6107F1080207F1DF
:1037000020017B68064806F0B8F80346002B01D07C
:10371000002300E0012318465837BD4680BD00BF96
:10372000641B002480B592B000AFF860B9607A6085
:1037300007F1100338220021184645F02AF84FF40B
:103740008073BB6203233B614FF48063FB624FF4E1
:103750000053FB61FB687B6100233B634FF0807388
:103760007B6300237B627B68BB630023FB630023D6
:103770003B6400237B6407F110034FF4FA6219469F
:103780000B4805F0EDFE0346002B01D000230BE0B3
:103790004FF4FA62B968064805F0D2FF0346002BE1
:1037A00001D0002300E0012318464837BD4680BD04
:1037B000641B002480B592B000AFF860B9607A60F5
:1037C00007F1100338220021184644F0E2FF7B681D
:1037D000002B03D07B68B3F5807F01D900233FE045
:1037E000FFF7FAFE0346002B01D1002338E04FF427
:1037F0008073BB6202233B614FF48063FB624FF432
:103800000053FB61FB687B6100233B634FF08073D7
:103810007B6300237B627B68BB630023FB63002325
:103820003B6400237B6407F110034FF4FA621946EE
:103830000D4805F095FE0346002B01D000230FE054
:103840004FF4FA62B968084805F0E8FE0346002B19
:1038500001D0002304E04FF4FA60FFF717FF03469E
:1038600018464837BD4680BD641B002480B590B023
:1038700000AF786007F1080338220021184644F0B1
:1038800088FFFFF7A9FE0346002B01D100232AE0A1
:103890004FF480733B622023BB604FF480637B62F4
:1038A0004FF400537B617B68FB600023BB62002305
:1038B000FB620023FB6100237B630023BB630023C7
:1038C000FB6307F108034FF4FA621946084805F054
:1038D00047FE0346002B01D0002304E04FF4FA50CA
:1038E000FFF7D4FE034618464037BD4680BD00BFF3
:1038F000641B002480B586B000AFF860B9607A60C0
:1039000000237B6100233B611DE07A687B69D31A49
:103910003B613B69B3F5807F02D94FF480733B6113
:10392000FA687B69D018BA687B6913443A6919460A
:10393000FFF740FF0346002B01D1002308E07A691E
:103940003B6913447B617A697B689A42DDD301232A
:1039500018461837BD4680BD80B592B000AF3B1DFC
:1039600038220021184644F014FF3B4600210A4645
:103970001A800A469A7000233B640023FB634FF4CD
:103980008073FB619F237B6000233B6200237B628B
:103990004FF08073BB620023BB610323FB620023F3
:1039A0003B6300237B630023BB633B1D4FF47A72B0
:1039B0001946524805F0D4FD0346002B01D00023E0
:1039C00098E03B464FF47A7219464C4805F0B8FE31
:1039D0000346002B01D000238CE03B78002B02D063
:1039E0003B78FF2B01D1002384E07B78002B04D1AE
:1039F000BB78002B01D100237CE03B78202B05D144
:103A00007B78BA2B02D1BB78182B01D0002371E050
:103A1000BB780F2B02D9BB78252B01D9002369E095
:103A2000BB781A46012393403B643B6CB3F5804F4F
:103A300001D200235EE03B6CA3F50053FB634FF41F
:103A400080522F49F86BFFF76DFE0346002B01D122
:103A500000234FE000237B640CE07B6CDBB283F03F
:103A60005A03D9B2274A7B6C13440A461A707B6CFE
:103A700001337B647B6CFF2BEFD9F86BFFF7F6FE0D
:103A80000346002B01D1002334E04FF480721D491E
:103A9000F86BFFF78FFE0346002B01D1002329E0CE
:103AA0004FF480721849F86BFFF73CFE0346002B79
:103AB00001D100231EE04FF480721349114844F0F5
:103AC00058FE0346002B01D0002313E0F86BFFF7EC
:103AD000CDFE0346002B01D100230BE04FF48052B2
:103AE0000749F86BFFF706FF0346002B01D10023BF
:103AF00000E0012318464837BD4680BD641B002402
:103B00004809002448190024481A002480B590B0C0
:103B100000AF07F1080338220021184644F039FEAF
:103B20003B4600221A605A604FF480733B620B23BD
:103B3000BB604FF480637B624FF400537B610023D2
:103B4000FB600023BB624FF08073FB620823FB61C4
:103B500000233B6300237B630023BB630023FB63E1
:103B600000237B6000233B603A4607F108031946B7
:103B7000064805F0F9FE0346002B01D0002300E0C3
:103B8000012318464037BD4680BD00BF641B00249A
:103B900080B487B000AF1B4BFB601B4A194BD31A94
:103BA000BB6000237B6000237B61BB68002B01D1DD
:103BB000002320E0BB68B3F5807F28BF4FF48073FB
:103BC0007B6000233B610CE0FA683B6913441B787F
:103BD000DBB2FF2B02D07B6901337B613B69013390
:103BE0003B613A697B689A42EED37B69082B01D925
:103BF000012300E0002318461C37BD465DF8047B16
:103C0000704700BFF085050840960508F0B5D1B0B3
:103C100012AF574BC7F8F430564A554BD31AC7F872
:103C2000F030554BD3F88830002B00F09D80D7F84A
:103C3000F0300F2B0DD807F13000D7F8F0304F4A95
:103C4000C02144F0EFFC07F13003184600F09AFD64
:103C50008BE0D7F8F440D7F8F4301B78DBB21E467F
:103C6000D7F8F43001331B78DBB2FB62D7F8F430BD
:103C700002331B78DBB2BB62D7F8F43003331B7816
:103C8000DBB27B62D7F8F43004331B78DBB23B62E3
:103C9000D7F8F43005331B78DBB2FB61D7F8F4308A
:103CA00006331B78DBB2BB61D7F8F43007331B78DF
:103CB000DBB27B61D7F8F43008331B78DBB23B61B1
:103CC000D7F8F43009331B78DBB2FB60D7F8F43057
:103CD0000A331B78DBB2BB60D7F8F4300B331B78A8
:103CE000DBB27B60D7F8F4300C331B78DBB21D46B7
:103CF000D7F8F4300D331B78DBB21946D7F8F4301F
:103D00000E331B78DBB21A46D7F8F4300F331B782A
:103D1000DBB207F1300010930F920E910D957A6887
:103D20000C92BA680B92FA680A923A6909927A6917
:103D30000892BA690792FA6906923A6A05927A6A13
:103D40000492BA6A0392FB6A02930196D7F8F030A4
:103D5000009323460A4AC02144F064FC07F1300373
:103D6000184600F00FFD00E000BFFC37BD46F0BD77
:103D7000F085050840960508CC1C0024B0AD040869
:103D8000E8AD040880B584B000AFB24BD3F8E020B2
:103D9000B04940F205131343C1F8E030BFF34F8F31
:103DA00000BF00BF00BFAC4B1B6823F00303AA4A4F
:103DB00043F001031360A94B1B6823F04063A74A3B
:103DC00043F080631360A64B1B6823F44033A44A7E
:103DD00043F480331360A04B4FF480329A61A04BC0
:103DE0004FF080729A619D4B4FF000529A6100F043
:103DF00061FA9C4B5B6903F40033002B1BD1BFF3CA
:103E00004F8F00BFBFF36F8F00BF964B0022C3F8E8
:103E10005022BFF34F8F00BFBFF36F8F00BF914B96
:103E20005B69904A43F400335361BFF34F8F00BF87
:103E3000BFF36F8F00E000BF8A4B5B6903F48033F0
:103E4000002B38D1874B0022C3F88420BFF34F8F5B
:103E500000BF844BD3F88030FB60FB685B0BC3F37F
:103E60000E03BB60FB68DB08C3F309037B60BB6820
:103E70005A0143F6E07313407A6892077949134375
:103E8000C1F860327B685A1E7A60002BEFD1BB68A4
:103E90005A1EBA60002BE5D1BFF34F8F00BF714BA4
:103EA0005B69704A43F480335361BFF34F8F00BFA7
:103EB000BFF36F8F00E000BF01F0D8FE664B012218
:103EC0009A610021012000F03BFC00F047F900213D
:103ED000062000F035FC00F0CFF90021072000F0AB
:103EE0002FFCFEF78DFF6049082000F029FC00211F
:103EF000092000F025FC01F04FFC5C4800F042FC7A
:103F000000210A2000F01CFCFCF79AFC58490B2009
:103F100000F016FCFCF7F6FC56490C2000F010FCF3
:103F2000FCF754FD54490D2000F00AFCFCF7B0FEEC
:103F300052490E2000F004FCFFF784F850490F208E
:103F400000F0FEFBFFF7B4F84E49102000F0F8FB3C
:103F500000F048FD4C49112000F0F2FBFFF7FCFC9B
:103F600003461A46494B1A70484B1B78002B01D068
:103F7000474B00E0474B184600F004FC00F002FEFF
:103F80004549122000F0DCFB01F052FC43491320AC
:103F900000F0D6FB42480BF0C2FB0346012B01D1D7
:103FA000404B00E0404B184600F0ECFB3F4B1B78C9
:103FB000002B01D03E4B00E03E4B184600F0E2FBE8
:103FC00000220021002000F045FC3B4800F0DAFB15
:103FD00000F096FC01F070FD38490B2000F0B0FBBA
:103FE000FCF76CFB36490C2000F0AAFB00F0A6FEA3
:103FF00034490D2000F0A4FB0EF0D0FE32490E2013
:1040000000F09EFBC82001F0C3FE304800F0BAFB70
:104010002F4800F0B7FB15F0FDFB2E49142000F0EF
:104020008FFBFFF773FD03461A462B4B1A702A4B82
:104030001B78002B07D0FFF7E9FDFFF7A9FD03462A
:104040001A46254B1A70244B1B78002B48D0234B63
:1040500047E000BF00440258000002580008025820
:104060000020025800ED00E0D0AF0408ECAF0408D7
:1040700004B0040820B004083CB0040858B0040898
:1040800074B0040890B00408ACB0040844090024DB
:10409000C8B00408ECB0040810B104082CB104083E
:1040A0000C05002448B1040860B1040898080024F5
:1040B0007CB1040894B10408ACB10408CCB1040884
:1040C000E8B1040804B2040820B204083CB20408B1
:1040D0005CB204087CB204084509002498B20408C4
:1040E000164B184600F04EFB154800F04BFB15F040
:1040F0009BFB1449152000F023FB134800F042FB02
:10410000124800F03FFB11F0C3FE1149162000F0E9
:1041100017FBFCF74DFF0F49172000F011FB0E486D
:1041200000F030FB002000F01DFB0021182000F003
:1041300007FB11F0F3FE00BFFDE700BFB8B20408B3
:10414000DCB20408F8B204081CB304083CB3040849
:1041500058B304087CB30408A4B3040880B59CB029
:1041600000AF07F124034C220021184644F011FB54
:104170003B1D20220021184644F00BFB00210220A9
:1041800000F0DEFA022005F02DF900233B60384BE9
:10419000DB6A374A23F00103D362354BDB6A03F055
:1041A00001033B60334B9B69324A43F440439361C4
:1041B000304B9B6903F440433B603B6800BF2D4B91
:1041C0009B6903F40053B3F5005FF8D132237B629F
:1041D00001233B6340237B630123FB6380233B6418
:1041E00020237B640223BB640023FB6408233B651C
:1041F0003C237B650223BB650423FB6502233B66EE
:104200000C237B660023BB660023FB660021042091
:1042100000F096FA07F12403184605F0E3FD034683
:10422000002B01D000F09EF83F237B600323BB608E
:104230000023FB6008233B6140237B614023BB617B
:104240004FF48063FB6140233B620021052000F0B6
:1042500077FA3B1D0521184606F01EFA0346002B8F
:1042600001D000F07FF800BF7037BD4680BD00BFB1
:10427000000400580048025880B5B0B000AF3B467B
:10428000C0220021184644F084FA4FF000424FF05B
:104290000003C7E9002300237B653B46184606F070
:1042A00087FD0346002B01D000F05CF800BFC0374B
:1042B000BD4680BD80B584B000AF3B4600221A6089
:1042C0005A609A60DA6001F0B9FE01233B70002366
:1042D0007B7000237B601F233B7287237B7200234C
:1042E000BB720023FB7201233B7301237B7300230A
:1042F000BB730023FB733B46184601F0D7FE012336
:104300007B704FF010437B601B233B7200237B725A
:104310000323FB7200237B730123BB733B461846C8
:1043200001F0C4FE02237B704FF040437B601823F2
:104330003B7200237B723B46184601F0B7FE032315
:104340007B7014233B7201237B730023BB733B46BA
:10435000184601F0ABFE042001F088FE00BF1037C4
:10436000BD4680BD80B596B000AF07F14003002286
:104370001A605A609A60DA601A61584B1B78DBB297
:10438000002B03D0554B1B78DBB200E0092387F8E4
:104390005630524B1B78DBB207F11000504A3021E7
:1043A00044F040F907F11003184600F0EBF94D4BCB
:1043B000D3F8E0304B4A43F00103C2F8E030494BF8
:1043C000D3F8E03003F00103FB60FB68454BD3F802
:1043D000E030444A43F00403C2F8E030414BD3F8E4
:1043E000E03003F00403BB60BB683E4BD3F8E03021
:1043F0003C4A43F48073C2F8E0303A4BD3F8E030E3
:1044000003F480737B607B6801233B6401237B643E
:104410000023BB640023FB6407F1400319463248C4
:1044200003F084FB4FF480733B6401237B6400231F
:10443000BB640023FB6407F1400319462B4803F0DB
:1044400075FB4FF400533B6401237B640023BB6482
:104450000023FB6407F140031946254803F066FB7F
:1044600072B600BF012201211F4803F027FD01227F
:104470004FF400511E4803F021FD002387F8573008
:1044800016E001224FF48071184803F017FD194817
:1044900000F0CEF900224FF48071144803F00EFDB5
:1044A000144800F0C5F997F85730013387F85730B2
:1044B00097F8572097F856309A42E2D300224FF4EB
:1044C00080710A4803F0FAFC00224FF400510848BA
:1044D00003F0F4FC084800F0ABF9C3E7481B0024E4
:1044E000C0B30408004402580000025800200258DB
:1044F00000080258005A620200E1F50580B582B05A
:1045000000AF78607B68002B01D100231AE00722FE
:104510000E49786844F045F90346002B0FD0152268
:104520000B49786844F03DF90346002B07D014226C
:104530000849786844F035F90346002B01D101237E
:1045400000E0002318460837BD4680BDE0B30408EC
:10455000E8B3040800B4040880B582B000AF786006
:104560007B68002B01D1002382E01C22424978683D
:1045700044F017F90346002B77D023223F4978688F
:1045800044F00FF90346002B6FD01A223C4978689B
:1045900044F007F90346002B67D0172239497868A1
:1045A00044F0FFF80346002B5FD0162236497868A6
:1045B00044F0F7F80346002B57D0182233497868A7
:1045C00044F0EFF80346002B4FD0182230497868AA
:1045D00044F0E7F80346002B47D015222D497868B0
:1045E00044F0DFF80346002B3FD00E222A497868BA
:1045F00044F0D7F80346002B37D0102227497868BB
:1046000044F0CFF80346002B2FD00D2224497868C0
:1046100044F0C7F80346002B27D00E2221497868C2
:1046200044F0BFF80346002B1FD00C221E497868C7
:1046300044F0B7F80346002B17D009221B497868CD
:1046400044F0AFF80346002B0FD00E2218497868CB
:1046500044F0A7F80346002B07D00F2215497868CD
:1046600044F09FF80346002B01D1012300E0002312
:1046700018460837BD4680BD18B4040838B404088D
:104680005CB4040878B4040890B40408A8B404081E
:10469000C4B40408E0B40408F8B4040808B5040875
:1046A0001CB504082CB504083CB504084CB5040836
:1046B00058B5040868B5040880B487B000AF7860C6
:1046C000084611461A460346FB700B46BB7013465C
:1046D0007B70FB781BB21B021AB2174B13401AB245
:1046E000BB781BB2DB001BB203F4FC631BB21343A9
:1046F0001AB27B78DB08DBB21BB213431BB27B829E
:104700007B68FB600D4BBB6000237B6108E07B692D
:104710005B00FA6813447A8A1A807B6901337B61F3
:104720007A69BB689A42F2D300BF00BF1C37BD460E
:104730005DF8047B704700BF00F8FFFF00DC050058
:1047400080B582B000AF03463960FB71044AFB7943
:104750001370386800F016F800BF0837BD4680BDFA
:10476000481B002480B483B000AF0346FB71044AA9
:10477000FB79137000BF0C37BD465DF8047B7047B2
:104780002300002480B584B000AF78607B68002BE4
:104790003DD0244BD3F88830002B38D0EFF305837D
:1047A000BB60BB68FB60FB68002B32D113F0ACFE32
:1047B0000346012B10D01C4B1B78DBB2002B0BD116
:1047C0007868FFF79BFE0346002B05D17868FFF75A
:1047D000C3FE0346002B1ED0144B1B78DBB2002B0C
:1047E0001BD1104BD3F88830202B16D10F4B012250
:1047F0001A707868FBF774FD03469AB20223796851
:1048000008480BF02AF9094B00221A7006E000BF95
:1048100004E000BF02E000BF00E000BF1037BD466B
:1048200080BD00BFCC1C002423000024601B00249A
:1048300080B483B000AF786000E000BF7B685A1E90
:104840007A60002BF9D100BF00BF0C37BD465DF880
:10485000047B704780B586B000AF0346FB710B4602
:10486000BB7113467B717B79BA79F9794FF040407F
:10487000FFF722FF7B79BA79F9791F48FFF71CFF10
:104880001E4B5B6903F48033002B30D01B4B00229E
:10489000C3F88420BFF34F8F00BF184BD3F880308C
:1048A0007B617B695B0BC3F30E033B617B69DB08B8
:1048B000C3F30903FB603B695A0143F6E0731340FD
:1048C000FA6892070D491343C1F86C32FB685A1E0F
:1048D000FA60002BEFD13B695A1E3A61002BE5D1FB
:1048E000BFF34F8F00BFBFF36F8F00BF00BF00BF8C
:1048F0001837BD4680BD00BF00B80BC000ED00E01A
:1049000080B500AF01222021054803F0D7FA3220FC
:1049100001F03EFA0348FFF735FF00BF80BD00BF3E
:104920000008025878B5040890B5ADB004AF184B34
:104930001B680133164A1360164B9B6B164A1360B3
:10494000144B5B6C154A1360154B1B78072B1AD858
:10495000134B1B780133DAB2114B1A700C4B1C68E5
:104960000D4B1B680D4A12680E49896A3846029140
:104970000192009323460C4AA02143F053FE3B468C
:104980001846FFF7FFFE00BFA437BD4690BD00BF2D
:104990004C1B002400100050501B0024541B00240A
:1049A000611B00248410005094B5040880B400AF4B
:1049B000044B1B680133034A136000BFBD465DF81A
:1049C000047B7047581B002480B400AF044B1B6865
:1049D0000133034A136000BFBD465DF8047B704796
:1049E0005C1B002480B500AF124B134A1A60114BB8
:1049F00003225A600F4B04229A600E4B0022DA60A9
:104A00000C4B17221A610B4B4FF480725A61094B01
:104A100000229A61074B0022DA61064B00221A62DB
:104A2000044804F029FD0346002B01D0FFF79AFC4F
:104A300000BF80BD641B00240050005280B5BCB094
:104A400000AF786007F1DC0300221A605A609A60B8
:104A5000DA601A6107F11803C0220021184643F0FA
:104A600098FE7B681B68434A93427FD14FF00072E7
:104A70004FF00003C7E9062300237B6607F1180304
:104A8000184606F095F90346002B01D0FFF76AFCA3
:104A9000394BD3F8D430384A43F48043C2F8D43089
:104AA000354BD3F8D43003F480437B617B69324BC0
:104AB000D3F8E030304A43F02003C2F8E0302E4B08
:104AC000D3F8E03003F020033B613B692A4BD3F875
:104AD000E030294A43F00203C2F8E030264BD3F815
:104AE000E03003F00203FB60FB68C023C7F8DC3052
:104AF0000223C7F8E0300023C7F8E4300023C7F8EA
:104B0000E8300923C7F8EC3007F1DC0319461B48ED
:104B100003F00CF84FF44073C7F8DC300223C7F8F9
:104B2000E0300023C7F8E4300023C7F8E8300A2358
:104B3000C7F8EC3007F1DC031946104802F0F6FF25
:104B400040F20443C7F8DC300223C7F8E03000230A
:104B5000C7F8E4300023C7F8E8300923C7F8EC3081
:104B600007F1DC031946064802F0E0FF00BFF0370A
:104B7000BD4680BD00500052004402580014025847
:104B80000004025880B400AF0B4B0C4A1A600A4B69
:104B900000225A60084B00229A60074B0022DA601C
:104BA000054B00221A61044B08225A6100BFBD4622
:104BB0005DF8047B704700BFB41B002400700052F6
:104BC00080B5BCB000AF786007F1DC0300221A604A
:104BD0005A609A60DA601A6107F11803C022002156
:104BE000184643F0D6FD7B681B68504A934240F05C
:104BF00099804FF480324FF00003C7E90623202349
:104C00003B6281237B620223BB620223FB62062399
:104C10003B6340237B630023BB630023FB634FF4B0
:104C20008033BB6607F11803184606F0C1F8034647
:104C3000002B01D0FFF796FB3D4BD3F8D4303C4A14
:104C400043F48033C2F8D430394BD3F8D43003F472
:104C500080337B617B69364BD3F8E030344A43F0D4
:104C60000403C2F8E030324BD3F8E03003F0040321
:104C70003B613B692E4BD3F8E0302D4A43F00803EB
:104C8000C2F8E0302A4BD3F8E03003F00803FB60B1
:104C9000FB684FF47063C7F8DC300223C7F8E030DC
:104CA0000123C7F8E4300323C7F8E8300C23C7F822
:104CB000EC3007F1DC0319461E4802F037FF4FF4D1
:104CC0008053C7F8DC300223C7F8E0300023C7F870
:104CD000E4300323C7F8E8300C23C7F8EC3007F1C1
:104CE000DC031946134802F021FF0423C7F8DC3027
:104CF0000223C7F8E0300123C7F8E4300323C7F8E4
:104D0000E8300C23C7F8EC3007F1DC0319460A48F9
:104D100002F00CFF00220821312001F05AF9312065
:104D200001F071F900BFF037BD4680BD0070005240
:104D30000044025800080258000C025880B500AF29
:104D4000274B284A1A60264B4FF480025A60244BA6
:104D500000229A60224B0722DA60214B00221A615E
:104D60001F4B00225A611E4B4FF080629A611C4B10
:104D70004FF0A042DA611A4B00221A62184B00224F
:104D80005A62174B00229A62154B0022DA62144BCA
:104D90004FF080425A63124B00229A63104B00225C
:104DA000DA630F4B00221A640D4B00225A640C4B3D
:104DB00000229A640A4B0022DA64094B00221A6529
:104DC000074B00225A65064B00229A6504480AF0F8
:104DD000B5FC0346002B01D0FFF7C4FA00BF80BD2D
:104DE000301C00240030014080B5BCB000AF7860BA
:104DF00007F1DC0300221A605A609A60DA601A61D7
:104E000007F11803C0220021184643F0C2FC7B685A
:104E10001B68394A93426AD14FF480524FF0000325
:104E2000C7E906234FF48043BB6707F11803184610
:104E300005F0BEFF0346002B01D0FFF793FA2F4B7E
:104E4000D3F8F0302D4A43F48053C2F8F0302B4BA6
:104E5000D3F8F03003F480537B617B69274BD3F8A0
:104E6000E030264A43F00103C2F8E030234BD3F888
:104E7000E03003F001033B613B69204BD3F8E030A5
:104E80001E4A43F04003C2F8E0301C4BD3F8E03038
:104E900003F04003FB60FB68A023C7F8DC3002236B
:104EA000C7F8E0300023C7F8E4300023C7F8E83043
:104EB0000523C7F8EC3007F1DC031946104802F06F
:104EC00035FE4FF40073C7F8DC300223C7F8E0303A
:104ED0000023C7F8E4300023C7F8E8300523C7F8FB
:104EE000EC3007F1DC031946064802F01FFE00BF54
:104EF000F037BD4680BD00BF00300140004402587D
:104F0000000002580018025880B582B000AF0C4B68
:104F1000D3F8F4300A4A43F00203C2F8F430084BE5
:104F2000D3F8F43003F002037B607B6800220F218A
:104F30006FF0010001F04DF800BF0837BD4680BD9D
:104F40000044025880B483B000AF786000E000BF36
:104F50007B685A1E7A60002BF9D100BF00BF0C3766
:104F6000BD465DF8047B704780B58CB000AF03464A
:104F7000FB7107F1180300221A605A609A60DA6028
:104F80001A6172B600BF3E4BD3F8E0303C4A43F0A2
:104F90000103C2F8E0303A4BD3F8E03003F00103EC
:104FA0007B617B69364BD3F8E030354A43F004032C
:104FB000C2F8E030324BD3F8E03003F004033B6139
:104FC0003B692F4BD3F8E0302D4A43F48073C2F88D
:104FD000E0302B4BD3F8E03003F48073FB60FB68C8
:104FE0000123BB610123FB6100233B6200237B6241
:104FF00007F118031946234802F098FD4FF4807317
:10500000BB6107F1180319461F4802F08FFD4FF4EA
:105010000053BB6107F1180319461C4802F086FDD6
:1050200001220121174802F049FF00224FF480714C
:10503000154802F043FF002387F82F3016E00122C5
:105040004FF40051114802F039FF1148FFF77AFF81
:1050500000224FF400510D4802F030FF0C48FFF7DA
:1050600071FF97F82F30013387F82F3097F82F20F2
:10507000FB799A42E3D30748FFF764FFD0E700BF0C
:10508000004402580000025800200258000802584C
:1050900080C3C901000E270790B5AFB004AF786098
:1050A000154BD3F88830002B21D0144BDB6A134A00
:1050B000926A1249496B1148806B07F1080403900A
:1050C0000291019200937B680D4AA021204643F093
:1050D000A9FA07F108031846FBF702F903469AB24A
:1050E00007F10801642304480AF0B7FC00E000BFA0
:1050F000AC37BD4690BD00BFCC1C002400ED00E0E5
:1051000098B60408F0B5BFB00AAFF860B960BB68E4
:10511000002B43D0234BD3F88830002B3ED0BB6804
:105120007B60BA681268B96804310968B8680830E9
:105130000068BC680C342468BD6810352D68BE68F2
:1051400014363668BB6803F1180CDCF800303B609D
:10515000BB6803F11C0CDCF8003007F1100C08935D
:105160003B6807930696059504940390029101927B
:105170007B680093FB680C4AC021604643F052FAFA
:1051800007F110031846FBF7ABF803469AB207F194
:105190001001642303480AF060FC00E000BFD4372C
:1051A000BD46F0BDCC1C0024CCB6040880B584B04C
:1051B00000AFF8600B467A60FB72F868FFF76CFF8F
:1051C0007968F868FFF79EFFFB7A1846FFF7CCFE78
:1051D00000BF1037BD4680BD80B400AF00BFFDE703
:1051E00080B500AF002202210248FFF7DFFF00BFB9
:1051F000FDE700BF24B7040880B500AF00220321FB
:105200000248FFF7D3FF00BFFDE700BF38B704082F
:1052100080B500AF002204210248FFF7C7FF00BF9E
:10522000FDE700BF4CB7040880B500AF00220521A0
:105230000248FFF7BBFF00BFFDE700BF60B70408EF
:1052400080B400AF00BFBD465DF8047B704780B5F9
:1052500000AF00F07DFD13F057F90346012B01D09C
:1052600014F052F800BF80BD80B500AF024801F0D5
:1052700061FF00BF80BD00BFC803002480B500AF40
:10528000024801F057FF00BF80BD00BF6804002442
:1052900080B500AF024808F02FFF00BF80BD00BFFF
:1052A000B41B002480B500AF024803F0D0FC00BF5F
:1052B00080BD00BF9C08002480B500AF024801F00B
:1052C0008BF800BF80BD00BF6003002480B400AF36
:1052D00001231846BD465DF8047B704780B582B057
:1052E00000AF7860396043F009FB034616221A606C
:1052F0004FF0FF3318460837BD4680BD80B582B0F9
:1053000000AF78604FF0FF317868FFF7E7FF00BF2C
:10531000FDE780B586B000AFF860B9607A60002321
:105320007B610AE0AFF300800146BB685A1CBA609B
:10533000CAB21A707B6901337B617A697B689A42D1
:10534000F0DB7B6818461837BD4680BD80B586B057
:1053500000AFF860B9607A6000237B6109E0BB6848
:105360005A1CBA601B781846AFF300807B69013382
:105370007B617A697B689A42F1DB7B681846183753
:10538000BD4680BD80B483B000AF78604FF0FF337E
:1053900018460C37BD465DF8047B704780B483B077
:1053A00000AF786039603B684FF400525A600023C8
:1053B00018460C37BD465DF8047B704780B483B057
:1053C00000AF7860012318460C37BD465DF8047BBA
:1053D000704780B485B000AFF860B9607A60002390
:1053E00018461437BD465DF8047B704780B586B01B
:1053F00000AF7860144A154BD31A7B617B693B611F
:10540000134B1B68002B02D1114B124A1A60104B30
:105410001A687B6813443A699A4207D243F06EFADD
:1054200003460C221A604FF0FF3309E0084B1B685B
:10543000FB60074B1A687B681344054A1360FB68DE
:1054400018461837BD4680BD00000824000400003F
:10545000B81C00241078042480B400AF434BD3F868
:105460008830424A43F47003C2F88830404B1B68CE
:1054700003F00F03062B07D83D4B1B6823F00F03E7
:105480003B4A43F0070313603A4B1B68394A43F029
:1054900001031360374B00221A61364B1A683549F5
:1054A000354B13400B60324B1B6803F00803002B95
:1054B00007D02F4B1B6823F00F032D4A43F007033F
:1054C00013602C4B00229A612A4B0022DA61294B8F
:1054D00000221A62274B294A9A62264B284ADA622E
:1054E000244B284A1A63234B00225A63214B254A36
:1054F0009A63204B0022DA631E4B224A1A641D4B2A
:1055000000225A641B4B1B681A4A23F48023136041
:10551000184B00221A661C4B1A681C4B1340B3F13F
:10552000005F02D21A4B01221A60124BD3F8D4301A
:1055300003F48053002B13D10E4BD3F8D4300D4A13
:1055400043F48053C2F8D430124B43F2D2021A60B3
:10555000084BD3F8D430074A23F48053C2F8D43030
:1055600000BFBD465DF8047B704700BF00ED00E062
:1055700000200052004402587FEDF6EA00020202C9
:105580000000FF01800201010010005C0000FFFF2D
:10559000088100510040005280B400AF094BDB6825
:1055A000084A43F00203D36000BF064B5B6803F474
:1055B0000053002BF9D000BF00BFBD465DF8047B4F
:1055C000704700BF0048025880B584B000AF034662
:1055D000FB710023FB73FB79032B01D900231BE034
:1055E000FA790F4913465B0013449B000B4418687B
:1055F000FA790B4913465B0013449B000B440433B8
:105600001B88194602F042FC0346FB73FB7B012B0F
:1056100001D1012300E0002318461037BD4680BDAC
:10562000F8D5040880B582B000AF00237B6018E095
:105630007B68DBB21846FFF7C7FF0346FB700E4AD4
:105640007B681344FA781A700C4A7B681344FA7822
:105650001A700B4A7B68134404221A707B6801336A
:105660007B607B68032BE3D9064B00221A6000BFE6
:105670000837BD4680BD00BFBC1C0024C01C0024F0
:10568000C41C0024C81C002480B582B000AF0023D5
:105690007B604FE07B68DBB21846FFF795FF03465F
:1056A000FB70284A7B6813441B78FA789A4211D120
:1056B000254A7B6813441B78032B15D8224A7B6844
:1056C00013441B780133D9B21F4A7B6813440A463E
:1056D0001A7009E01B4A7B681344FA781A701A4A58
:1056E0007B68134401221A70174A7B6813441B78A5
:1056F000032B1CD9154A7B6813441B78FA789A420D
:1057000015D0124A7B681344FA781A70FB78002B84
:105710000DD00F497A6813465B0013449B000B447D
:1057200008331A680B4B1B6813430A4A13607B68E3
:1057300001337B607B68032BACD900BF00BF083707
:10574000BD4680BDBC1C0024C41C0024C01C002419
:10575000F8D50408C81C002480B485B000AFEFF36E
:1057600010837B607B68FB600023BB6072B600BF68
:10577000084B1B68BB60074B00221A60FB68002BBC
:1057800001D162B600BFBB6818461437BD465DF84C
:10579000047B7047C81C002480B500AF224B234A0D
:1057A0001A60214B4FF4E1325A601F4B00229A607D
:1057B0001D4B0022DA601C4B00221A611A4B0C228E
:1057C0005A61194B00229A61174B0022DA61164B7D
:1057D00000221A62144B00225A62134B00229A6272
:1057E00011480AF0EAF80346002B01D0FEF7BAFD93
:1057F00000210D480BF081F90346002B01D0FEF784
:10580000B1FD002108480BF0B6F90346002B01D08A
:10581000FEF7A8FD04480BF037F90346002B01D032
:10582000FEF7A0FD00BF80BDCC1C0024005000404E
:1058300080B500AF224B234A1A60214B4FF4E1326E
:105840005A601F4B00229A601D4B0022DA601C4BED
:1058500000221A611A4B0C225A61194B00229A61DC
:10586000174B0022DA61164B00221A62144B0022F9
:105870005A62134B00221A6411480BF009FA0346CE
:10588000002B01D0FEF76EFD00210D480BF0ECFF60
:105890000346002B01D0FEF765FD002108480CF0FF
:1058A00021F80346002B01D0FEF75CFD04480BF005
:1058B000A2FF0346002B01D0FEF754FD00BF80BDC0
:1058C000601D00240010014080B5BAB000AF7860C0
:1058D00007F1D40300221A605A609A60DA601A61F4
:1058E00007F11003C0220021184642F052FF7B68E6
:1058F0001B68264A934245D14FF002024FF0000345
:10590000C7E904230423C7F8883007F110031846B9
:1059100005F04EFA0346002B01D0FEF723FD1C4B89
:10592000D3F8E8301A4A43F48013C2F8E830184B31
:10593000D3F8E83003F48013FB60FB68144BD3F812
:10594000E030134A43F00203C2F8E030104BD3F8C2
:10595000E03003F00203BB60BB686023C7F8D430BB
:105960000223C7F8D8300023C7F8DC300023C7F87B
:10597000E0300E23C7F8E43007F1D4031946054898
:1059800002F0D4F800BFE837BD4680BD00500040AB
:10599000004402580004025880B5BCB000AF7860E3
:1059A00007F1DC0300221A605A609A60DA601A611B
:1059B00007F11803C0220021184642F0EAFE7B6876
:1059C0001B68394A93426BD14FF001024FF000033C
:1059D000C7E906232023C7F8943007F118031846B7
:1059E00005F0E6F90346002B01D0FEF7BBFC2F4B78
:1059F000D3F8F0302D4A43F01003C2F8F0302B4BAF
:105A0000D3F8F03003F010037B617B69274BD3F8A8
:105A1000E030264A43F00203C2F8E030234BD3F8CB
:105A2000E03003F002033B613B69204BD3F8E030E8
:105A30001E4A43F00103C2F8E0301C4BD3F8E030BB
:105A400003F00103FB60FB684FF44043C7F8DC3010
:105A50000223C7F8E0300023C7F8E4300023C7F87A
:105A6000E8300423C7F8EC3007F1DC03194610488E
:105A700002F05CF84FF48073C7F8DC300223C7F8FB
:105A8000E0300023C7F8E4300023C7F8E8300723EC
:105A9000C7F8EC3007F1DC031946064802F046F877
:105AA00000BFF037BD4680BD0010014000440258E1
:105AB000000402580000025880B500AF154B164A8A
:105AC0001A60144B09221A71124B0222DA71114B1F
:105AD00000229A710F4B02225A720E4B00229A72C8
