:020000040800F2
:1000000000000524991600085D1400086514000816
:100010006D140008751400087D140008000000002D
:10002000000000000000000000000000851400082F
:100030009314000800000000A1140008AF14000889
:10004000ED160008ED160008ED160008ED16000884
:10005000ED160008ED160008ED160008ED16000874
:10006000ED160008ED160008ED160008ED16000864
:10007000ED160008ED160008ED160008ED16000854
:10008000ED160008ED160008ED160008BD14000876
:10009000D1140008ED160008ED160008ED16000852
:1000A000ED160008ED160008ED160008ED16000824
:1000B000ED160008ED160008ED160008ED16000814
:1000C000ED160008ED160008ED160008E51400080E
:1000D000ED160008ED160008ED160008ED160008F4
:1000E000ED160008ED16000800000000ED160008EF
:1000F000ED160008ED160008ED160008ED160008D4
:10010000ED160008F9140008ED160008ED160008B9
:10011000ED160008ED160008ED160008ED160008B3
:10012000ED160008ED160008ED160008ED160008A3
:10013000ED160008ED160008ED160008ED16000893
:1001400000000000000000000000000000000000AF
:10015000ED160008ED160008ED160008ED16000873
:10016000ED160008ED160008ED160008ED16000863
:10017000ED160008ED160008ED160008ED16000853
:10018000ED160008ED160008ED160008ED16000843
:10019000ED160008ED160008ED160008ED16000833
:1001A000ED160008ED160008ED160008000000002E
:1001B000ED160008ED160008ED160008ED16000813
:1001C000ED160008ED160008000000000000000019
:1001D0000000000000000000ED1600080000000014
:1001E000000000000000000000000000000000000F
:1001F0000000000000000000ED160008ED160008E9
:10020000ED160008ED16000800000000ED160008CD
:10021000ED1600080D150008ED160008ED16000893
:10022000ED16000800000000ED16000800000000B8
:10023000ED160008ED16000800000000ED1600089D
:10024000ED160008ED160008ED160008ED16000882
:10025000ED160008ED160008ED160008ED16000872
:10026000ED160008ED160008ED160008ED16000862
:10027000ED160008ED160008ED160008000000005D
:10028000ED160008ED160008ED160008ED16000842
:1002900000000000ED160008ED160008ED1600083D
:1002A000ED160008ED160008ED160008ED16000822
:1002B00021150008ED160008ED1600083515000898
:0C02C000ED160008ED160008ED16000811
:1002CC0010B5054C237833B9044B13B10448AFF384
:1002DC0000800123237010BD1000002400000000DA
:1002EC00C476000808B5034B1BB103490348AFF3B0
:1002FC00008008BD0000000014000024C476000833
:10030C0080B500AF2E4B2F4A1A602D4B00229A60FD
:10031C002B4B0022DA602A4B00221A74284B002245
:10032C005A74274B00229A74254B06225A61244B8F
:10033C0001229A61224B0222DA61214B05221A62B8
:10034C001F4B01225A621E4B01229A621C4B012246
:10035C00DA621B4B01221A63194B00225A63184BA9
:10036C0001229A63164B0122DA63154B20221A6480
:10037C00134B04225A64124B20229A64104B042211
:10038C00DA640F4B00221A650D4B04225A650C4B94
:10039C0000229A650A4B0022DA65094B20221A6664
:1003AC00074B00225A66064B04229A66044802F058
:1003BC00C3F80346002B01D001F02AF800BF80BD22
:1003CC002C00002400A0004080B5BCB000AF7860C9
:1003DC0007F1DC0300221A605A609A60DA601A6135
:1003EC0007F12003B8220021184607F02BF97B688F
:1003FC001B68954A934267D14FF400424FF00003BB
:10040C00C7E908232023BB628123FB6202233B63E1
:10041C0002237B630623BB634023FB6300233B6403
:10042C0000237B640023C7F88C3007F120031846A7
:10043C0004F016F90346002B01D000F0E9FF834BC2
:10044C001B680133814A1360804B1B68012B0ED152
:10045C007F4BD3F8EC307E4A43F48073C2F8EC3017
:10046C007B4BD3F8EC3003F48073FB61FB69784B66
:10047C00D3F8E030764A43F00803C2F8E030744B0E
:10048C00D3F8E03003F00803BB61BB690323C7F862
:10049C00DC300223C7F8E0300023C7F8E430002337
:1004AC00C7F8E8300923C7F8EC3007F1DC0319462C
:1004BC00684802F0CFFF00220121132001F0A3FABB
:1004CC00132001F0BAFABAE07B681B68624A9342C7
:1004DC0058D14FF400424FF00003C7E90823002322
:1004EC00C7F88C3007F12003184604F0B9F803461E
:1004FC00002B01D000F08CFF544B1B680133534A86
:10050C001360524B1B68012B0ED1514BD3F8EC30BE
:10051C004F4A43F48073C2F8EC304D4BD3F8EC30B7
:10052C0003F480737B617B69494BD3F8E030484A14
:10053C0043F00203C2F8E030454BD3F8E03003F04F
:10054C0002033B613B694FF44053C7F8DC30022394
:10055C00C7F8E0300023C7F8E4300023C7F8E830D0
:10056C000923C7F8EC3007F1DC0319463B4802F0CD
:10057C0071FF00220221142001F045FA142001F031
:10058C005CFA5CE07B681B68354A934257D14FF4A8
:10059C0000424FF00003C7E908230023C7F88C3052
:1005AC0007F12003184604F05BF80346002B01D03A
:1005BC0000F02EFF254B1B680133244A1360234B9C
:1005CC001B68012B0ED1224BD3F8EC30204A43F49C
:1005DC008073C2F8EC301E4BD3F8EC3003F480730C
:1005EC00FB60FB681A4BD3F8E030194A43F0400328
:1005FC00C2F8E030164BD3F8E03003F04003BB6098
:10060C00BB684FF4C063C7F8DC300223C7F8E03096
:10061C000023C7F8E4300023C7F8E8300223C7F8FA
:10062C00EC3007F1DC0319460E4802F013FF0022F0
:10063C0000219F2001F0E7F99F2001F0FEF900BF97
:10064C00F037BD4680BD00BF00A000400C02002466
:10065C0000440258000C025800A400400004025848
:10066C0000D400400018025880B58EB000AF07F1DE
:10067C00240300221A605A609A60DA601A616E4B89
:10068C00D3F8E0306C4A43F01003C2F8E0306A4B08
:10069C00D3F8E03003F010033B623B6A664BD3F8AF
:1006AC00E030654A43F02003C2F8E030624BD3F8E7
:1006BC00E03003F02003FB61FB695F4BD3F8E030C3
:1006CC005D4A43F08003C2F8E0305B4BD3F8E03076
:1006DC0003F08003BB61BB69574BD3F8E030564A3B
:1006EC0043F00403C2F8E030534BD3F8E03003F08E
:1006FC0004037B617B69504BD3F8E0304E4A43F0E6
:10070C000103C2F8E0304C4BD3F8E03003F00103A6
:10071C003B613B69484BD3F8E030474A43F0020356
:10072C00C2F8E030444BD3F8E03003F00203FB6036
:10073C00FB68414BD3F8E0303F4A43F00803C2F862
:10074C00E0303D4BD3F8E03003F00803BB60BB68EE
:10075C00394BD3F8E030384A43F04003C2F8E0306C
:10076C00354BD3F8E03003F040037B607B6800220C
:10077C002021324803F016F8002240F2F1313048C3
:10078C0003F010F800224FF440412E4803F00AF811
:10079C0008237B620023BB620023FB6207F1240366
:1007AC001946294802F056FE10237B620023BB62D7
:1007BC000023FB6207F124031946204802F04AFE8D
:1007CC0020237B620123BB620023FB6200233B637B
:1007DC0007F124031946194802F03CFE40F2F133AC
:1007EC007B620123BB620023FB6200233B6307F1A6
:1007FC0024031946124802F02DFE4FF440437B624D
:10080C000123BB620023FB6200233B6307F124033B
:10081C0019460C4802F01EFE20237B620023BB62AB
:10082C000023FB6207F124031946064802F012FE6E
:10083C0000BF3837BD4680BD00440258000802583E
:10084C0000040258000C02580010025880B483B007
:10085C0000AF78607B68023B062B1BD801A252F8D4
:10086C0023F000BF8D080008A108000891080008BB
:10087C00A108000895080008990800089D080008C0
:10088C00022308E0042306E0062304E0072302E029
:10089C00082300E0002318460C37BD465DF8047BA6
:1008AC00704700BF80B485B000AFF860B9601346E4
:1008BC00FB80FA68BB681344FA88D2B21A70FB88C2
:1008CC001B0A99B2BB680133FA681344CAB21A7096
:1008DC0000BF1437BD465DF8047B704780B584B00B
:1008EC0000AFF860B9601346FB80FB881A46B96804
:1008FC00F868FFF7D7FF00BF1037BD4680BD80B446
:10090C0085B000AFF860B9607A60FA68BB681344D0
:10091C007A68D2B21A707B68190ABB680133FA681C
:10092C001344CAB21A707B68190CBB680233FA689C
:10093C001344CAB21A707B68190EBB680333FA6889
:10094C001344CAB21A7000BF1437BD465DF8047B5D
:10095C00704780B584B000AFF860B9607A607B688E
:10096C001A46B968F868FFF7CAFF00BF1037BD46D2
:10097C0080BD000080B500AF124B00221A60114BF5
:10098C0000225A600F4B00229A600E4B0822DA604C
:10099C000C4B00221A610B4B00225A61094B0022AE
:1009AC009A61084B0022DA61064B00221A62064853
:1009BC0001F0A0FF0346002B01D000F029FD00BF81
:1009CC0080BD00BF100200242C00002480B584B030
:1009DC0000AFF860B9607A600D4AFB681360786804
:1009EC00FFF734FF03460A4AD3600A4802F008F8BE
:1009FC000346002B01D1022305E0BA6804490548DF
:100A0C0001F0A3FF034618461037BD4680BD00BF5A
:100A1C00100200242C00002480B58AB000AFBB4B20
:100A2C001B885A1C91B2B94A1180FB8400F0E0FE7D
:100A3C003862FB8C5A08B649A1FB021252094621B6
:100A4C0001FB02F29B1A9BB20F33FB83FB8CD91D6B
:100A5C00B04BA3FB01239A0913469B011344CA1AFA
:100A6C0093B21233BB83FB8C9B089BB25A08AA49E6
:100A7C00A1FB021252095A2101FB02F29B1A7B8341
:100A8C00FA8CA64BA3FB021399090B469B000B4453
:100A9C001B01D31A9BB21A4613469B001344DA006F
:100AAC00D31A03F596637B61FA8C9C4BA3FB021360
:100ABC0099090B469B000B441B01D31A9BB22333A1
:100ACC003B61F98C964BA3FB0123CA1A52081344C1
:100ADC005A0913465B0013441A01D21A8B1A9BB2A3
:100AEC001933FB60FB8C8F4AA2FB03231B099BB2BF
:100AFC00DBB203F00103FB7203233B70F98C8A4BCE
:100B0C00A3FB0123CA1A520813445A0913469B002B
:100B1C001344DA00D21A8B1A9BB2DBB22833DBB245
:100B2C007B700323BB700123FB7001233B71FB7AA9
:100B3C007B71FA8C3B4606211846FFF7B3FE3B4609
:100B4C00082219464FF4A260FFF740FF0346BB7220
:100B5C00BB7A002B01D0BB7A55E3FA8B3B460021C4
:100B6C001846FFF79FFEBA8B3B4602211846FFF74B
:100B7C0099FE7A8B3B4604211846FFF793FE3B46C1
:100B8C000622194640F21150FFF720FF0346BB72B4
:100B9C00BB7A002B01D0BB7A35E3F98C624BA3FBFB
:100BAC000123CA1A520813445A0913469B001344D2
:100BBC00DA00D21A8B1A9BB203F5B4739AB23B4685
:100BCC0000211846FFF76EFEFA8C584BA3FB02135C
:100BDC0099090B461B015B1ADB00D31A9BB203F677
:100BEC00E4439AB23B4602211846FFF75BFE002312
:100BFC003B7101237B713B460622194640F2125091
:100C0C00FFF7E4FE0346BB72BB7A002B01D0BB7A24
:100C1C00F9E2FA8C464BA3FB021399080B46DB0056
:100C2C000B445B00D31A9BB22D339BB21AB23B46DA
:100C3C0000211846FFF752FEFB8C03F00F039BB20A
:100C4C0026339BB21AB23B4602211846FFF746FEEA
:100C5C00FA8C324BA3FB0213D9080B469B000B44B6
:100C6C005B00D31A9BB21E339BB21AB23B460421D3
:100C7C001846FFF733FE3B460622194640F2135046
:100C8C00FFF7A4FE0346BB72BB7A002B01D0BB7AE4
:100C9C00B9E23B467A6900211846FFF75AFE3B46FB
:100CAC000422194640F21450FFF790FE0346BB7223
:100CBC00BB7A002B01D0BB7AA5E23B463A690021F6
:100CCC001846FFF746FE3B460422194640F21550E3
:100CDC00FFF77CFE0346BB72BB7A002B01D0BB7ABC
:100CEC0091E23B46FA6800211846FFF732FE3B467C
:100CFC000422194640F21650FFF768FE0346BB72F9
:100D0C00BB7A002B16D0BB7A7DE200BF34020024E4
:100D1C00EBA00EEAFDC00FFCB7600BB6CDCCCCCC73
:100D2C006DC1166C1F85EB51D5411DD489888888FF
:100D3C00398EE338FA8CBE4BA3FB021399080B4691
:100D4C005B000B445B00D31A9BB2DBB23B70FA8C9A
:100D5C00B84BA3FB021399080B469B000B44D31A08
:100D6C009BB2DBB27B703B460222194640F2175015
:100D7C00FFF72CFE0346BB72BB7A002B01D0BB7A6B
:100D8C0041E2FA8CAA4BA3FB0213D9080B465B0079
:100D9C000B449B00D31A9BB2DBB2C3F15503DBB2FD
:100DAC003B70FA8CA34BA3FB021319090B469B0057
:100DBC000B449B00D31A9BB212339BB21AB23B4624
:100DCC0001211846FFF78AFDFB8C03F007039BB249
:100DDC0004339BB21AB23B4603211846FFF77EFD43
:100DEC00FB8C03F007039BB222339BB21AB23B4637
:100DFC0005211846FFF772FD3B46072219464FF4B2
:100E0C00A360FFF7E3FD0346BB72BB7A002B01D056
:100E1C00BB7AF8E1FB8C5A088749A1FB02125209F4
:100E2C00462101FB02F29B1A9BB22D339AB23B4630
:100E3C0000211846FFF736FDFB8C9A087F49A1FB71
:100E4C0002125208DC2101FB02F29B1A9BB203F541
:100E5C0061739AB23B4602211846FFF723FDFA8CC8
:100E6C00744BA3FB021319090B469B000B449B000C
:100E7C00D31A9BB203F28A231A463B460421184626
:100E8C00FFF767FD3B460822194640F21950FFF761
:100E9C009DFD0346BB72BB7A002B01D0BB7AB2E13D
:100EAC0003233B70FB8CDBB203F00303DBB2083390
:100EBC00DBB27B70FA8C624BA3FB0213D9080B4696
:100ECC001B015B1AD31A9BB250339AB23B460221D8
:100EDC001846FFF7E7FCFA8C5A4B134438461A466F
:100EEC000421FFF736FD3B460822194640F21A5002
:100EFC00FFF76CFD0346BB72BB7A002B01D0BB7AAB
:100F0C0081E1FA8C504B9B1A38461A460021FFF7A8
:100F1C0020FD3B463A6A04211846FFF7F0FC3B469D
:100F2C000822194640F21B50FFF750FD0346BB72D6
:100F3C00BB7A002B01D0BB7A65E1FA8C3D4BA3FB4D
:100F4C000213D9080B469B000B445B00D31A9BB2CF
:100F5C0003F6E4439AB23B4600211846FFF7A2FC85
:100F6C00FA8C344BA3FB0213D9080B469B000B44A1
:100F7C005B00D31A9BB203F6EE439AB23B460221B6
:100F8C001846FFF78FFCFA8C2A4BA3FB0213D908E7
:100F9C000B469B000B445B00D31A9BB203F6F84341
:100FAC009AB23B4604211846FFF77CFC3B460622CE
:100FBC00194640F21C50FFF709FD0346BB72BB7A81
:100FCC00002B01D0BB7A1EE1FA8C1A4BA3FB021347
:100FDC00D9080B469B000B445B00D31A9BB203F65B
:100FEC0002539AB23B4600211846FFF75BFCFA8C81
:100FFC00104BA3FB0213D9080B469B000B445B0060
:10100C00D31A9BB203F60C539AB23B4602211846F4
:10101C00FFF748FC3B460422194640F21D50FFF7EF
:10102C00D5FC0346BB72BB7A002B0FD0BB7AEAE02F
:10103C00ABAAAAAACDCCCCCCEBA00EEA95204F093A
:10104C0089888888003644186B74C4FDFA8C704B00
:10105C00A3FB0213D9080B469B000B445B00D31A6D
:10106C009AB241F2360313449AB23B460021184619
:10107C00FFF718FCFA8C664BA3FB0213D9080B463E
:10108C009B000B445B00D31A9BB203F582539AB2BC
:10109C003B4602211846FFF705FCFA8C5C4BA3FB80
:1010AC000213D9080B469B000B445B00D31A9AB26F
:1010BC0041F24A0313449AB23B4604211846FFF707
:1010CC00F1FB3B460622194640F21E50FFF77EFC10
:1010DC000346BB72BB7A002B01D0BB7A93E0FA8C2F
:1010EC004B4BA3FB0213D9080B469B000B445B0034
:1010FC00D31A9AB241F2540313449AB23B460021DC
:10110C001846FFF7CFFBFA8C414BA3FB0213D9080F
:10111C000B469B000B445B00D31A9AB241F25E0360
:10112C0013449AB23B4602211846FFF7BBFB3B46E1
:10113C000422194640F21F50FFF748FC0346BB72CD
:10114C00BB7A002B01D0BB7A5DE0FB8C03F007036C
:10115C009BB220339BB21AB23B4600211846FFF7D4
:10116C00BDFBFB8C03F007039BB222339BB21AB27C
:10117C003B4602211846FFF7B1FBFB8C03F007033B
:10118C009BB224339BB21AB23B4604211846FFF79C
:10119C00A5FB3B46062219464FF4A460FFF716FC4C
:1011AC000346BB72BB7A002B01D0BB7A2BE0FB8CC5
:1011BC0003F007039BB226339BB21AB23B460021C5
:1011CC001846FFF78BFBFB8C03F007039BB228330D
:1011DC009BB21AB23B4602211846FFF77FFBFB8CF1
:1011EC0003F007039BB222339BB21AB23B46042195
:1011FC001846FFF773FB3B460622194640F2215076
:10120C00FFF7E4FB034618462837BD4680BD00BFF8
:10121C00CDCCCCCC80B500AF01224FF48041074837
:10122C0002F0C0FA052000F0EFFA00224FF48041E2
:10123C00024802F0B7FA00BF80BD00BF000C025894
:10124C0080B500AF01224FF40041074802F0AAFA22
:10125C00142000F0D9FA00224FF40041024802F0A9
:10126C00A1FA00BF80BD00BF000C025880B582B04F
:10127C0000AF00F037FA00F029F800F097F8FFF70C
:10128C00F3F9FFF73DF8FFF775FB00237B60FFF7E1
:10129C00C3FB0346FB70FB78002B04D1FFF7BAFFAE
:1012AC0005237B6008E0FFF7CBFF14237B60FB7802
:1012BC00012B01D100F0ACF87B68632BE5D87B687F
:1012CC00C3F16403184600F09FFADEE780B59CB0CA
:1012DC0000AF07F124034C220021184606F0B2F9A6
:1012EC003B1D20220021184606F0ACF9022002F02A
:1012FC0073FA00233B602C4B9B692B4A23F440432D
:10130C009361294B9B6903F440433B603B6800BFEE
:10131C00254B9B6903F40053B3F5005FF8D12123EF
:10132C007B624FF48033BB620123FB630223BB64FB
:10133C000223FB6402233B652C237B650123BB65E5
:10134C000423FB6502233B660C237B660023BB66F0
:10135C000023FB6607F12403184602F077FA0346D4
:10136C00002B01D000F054F83F237B600323BB60BB
:10137C000023FB6008233B6140237B614023BB615E
:10138C004FF48063FB6140233B623B1D03211846F5
:10139C0002F036FE0346002B01D000F039F800BFF6
:1013AC007037BD4680BD00BF0048025880B5AEB056
:1013BC0000AF3B46B8220021184606F043F94FF423
:1013CC0010224FF00003C7E900230223BB60102357
:1013DC00FB6002233B6102237B610123BB61C023C1
:1013EC00FB6100233B6200237B624FF480333B653F
:1013FC000023C7F8A0303B46184603F031F90346EA
:10140C00002B01D000F004F800BFB837BD4680BDFA
:10141C0080B400AF72B600BF00BFFDE780B483B0EC
:10142C0000AF0A4BD3F8F430084A43F00203C2F879
:10143C00F430064BD3F8F43003F002037B607B6886
:10144C0000BF0C37BD465DF8047B70470044025862
:10145C0080B400AF00BFFDE780B400AF00BFFDE774
:10146C0080B400AF00BFFDE780B400AF00BFFDE764
:10147C0080B400AF00BFFDE780B400AF00BFBD4635
:10148C005DF8047B704780B400AF00BFBD465DF8CB
:10149C00047B704780B400AF00BFBD465DF8047B91
:1014AC00704780B500AF00F08FF900BF80BD000021
:1014BC0080B500AF024801F0B5FA00BF80BD00BF97
:1014CC002C00002480B500AF024801F0ABFA00BF3D
:1014DC0080BD00BFCC00002480B500AF024804F0F2
:1014EC0051FE00BF80BD00BFB402002480B500AF28
:1014FC00024804F0B9FB00BF80BD00BF38020024D5
:10150C0080B500AF024805F0F7F800BF80BD00BF02
:10151C003C03002480B500AF024805F045FA00BF3B
:10152C0080BD00BF8803002480B500AF024801F0E5
:10153C0079FA00BF80BD00BF6C01002480B400AFFD
:10154C003E4BD3F888303D4A43F47003C2F88830E0
:10155C003B4B1B6803F00F03062B07D8384B1B685B
:10156C0023F00F03364A43F007031360354B1B6817
:10157C00344A43F001031360324B00221A61314BA1
:10158C001A683049304B13400B602D4B1B6803F02D
:10159C000803002B07D02A4B1B6823F00F03284AA3
:1015AC0043F007031360274B00229A61254B00225E
:1015BC00DA61244B00221A62224B244A9A62214B94
:1015CC00234ADA621F4B234A1A631E4B00225A63CA
:1015DC001C4B204A9A631B4B0022DA63194B1D4AA1
:1015EC001A64184B00225A64164B1B68154A23F4D4
:1015FC0080231360134B00221A66124BD3F8D4309D
:10160C0003F48053002B13D10E4BD3F8D4300D4A76
:10161C0043F48053C2F8D4300F4B43F2D2021A6019
:10162C00084BD3F8D430074A23F48053C2F8D43093
:10163C0000BFBD465DF8047B704700BF00ED00E0C5
:10164C0000200052004402587FEDF6EA000202022C
:10165C000000FF01800201010040005280B400AF85
:10166C00094BDB68084A43F00203D36000BF064B0A
:10167C005B6803F40053002BF9D000BF00BFBD46DC
:10168C005DF8047B704700BF00480258DFF838D083
:10169C00FFF7E4FFFFF752FF0C480D490D4A0023FA
:1016AC0002E0D458C4500433C4188C42F9D30A4A0B
:1016BC000A4C002301E013600432A242FBD305F074
:1016CC00C9FFFFF7D3FD704700000524000000247C
:1016DC00100000245077000810000024200400247F
:1016EC00FEE7000080B582B000AF032000F080F967
:1016FC0002F03CFE0246154B9B691B0A03F00F03DC
:10170C001349CB5C03F01F0322FA03F37B600F4BEE
:10171C009B6903F00F030E4AD35C03F01F037A6836
:10172C0022FA03F30B4A13600B4A7B6813600F20F9
:10173C0000F014F80346002B01D0012302E0FFF760
:10174C006DFE002318460837BD4680BD0044025884
:10175C0028770008040000240000002480B582B023
:10176C0000AF7860154B1B78002B01D1012321E0D1
:10177C00134B1A68114B1B7819464FF47A73B3FB51
:10178C00F1F3B2FBF3F3184600F065F90346002BB6
:10179C0001D001230EE07B680F2B0AD80022796858
:1017AC004FF0FF3000F02FF9064A7B6813600023DE
:1017BC0000E0012318460837BD4680BD0C0000240C
:1017CC00000000240800002480B400AF064B1B78F6
:1017DC001A46064B1B681344044A136000BFBD46EF
:1017EC005DF8047B704700BF0C0000241C0400242F
:1017FC0080B400AF034B1B681846BD465DF8047BF4
:10180C00704700BF1C04002480B584B000AF786022
:10181C00FFF7EEFFB8607B68FB60FB68B3F1FF3F3E
:10182C0005D00A4B1B781A46FB681344FB6000BFBB
:10183C00FFF7DEFF0246BB68D31AFA689A42F7D864
:10184C0000BF00BF1037BD4680BD00BF0C00002498
:10185C0080B485B000AF78607B6803F00703FB6051
:10186C000B4BDB68BB60BA684FF6FF031340BB60E1
:10187C00FB681A02BB681A43064B1343BB60044A4D
:10188C00BB68D36000BF1437BD465DF8047B70475E
:10189C0000ED00E00000FA0580B400AF044BDB68FB
:1018AC001B0A03F007031846BD465DF8047B70471E
:1018BC0000ED00E080B483B000AF0346FB80B7F9C5
:1018CC000630002B0BDBFB8803F01F020749B7F92E
:1018DC0006305B09012000FA02F241F8232000BF18
:1018EC000C37BD465DF8047B704700BF00E100E09B
:1018FC0080B483B000AF03463960FB80B7F9063083
:10190C00002B0ADB3B68DAB20C49B7F9063012013E
:10191C00D2B20B4483F800230AE03B68DAB20849E0
:10192C00FB8803F00F03043B1201D2B20B441A766E
:10193C0000BF0C37BD465DF8047B704700E100E04A
:10194C0000ED00E080B489B000AFF860B9607A6057
:10195C00FB6803F00703FB61FB69C3F10703042B6E
:10196C0028BF0423BB61FB690433062B02D9FB6936
:10197C00033B00E000237B614FF0FF32BB6902FAAE
:10198C0003F3DA43BB681A407B699A404FF0FF318E
:10199C007B6901FA03F3D9437B680B401343184668
:1019AC002437BD465DF8047B7047000080B582B0DB
:1019BC0000AF78607B68013BB3F1807F01D30123DA
:1019CC000FE00A4A7B68013B53600F214FF0FF3058
:1019DC00FFF78EFF054B00229A60044B07221A601A
:1019EC00002318460837BD4680BD00BF10E000E05C
:1019FC0080B582B000AF78607868FFF729FF00BF30
:101A0C000837BD4680BD80B586B000AF0346B960CF
:101A1C007A60FB81FFF740FF78617A68B968786972
:101A2C00FFF790FF0246B7F90E3011461846FFF744
:101A3C005FFF00BF1837BD4680BD80B582B000AFD8
:101A4C000346FB80B7F906301846FFF733FF00BF9B
:101A5C000837BD4680BD80B582B000AF786078682D
:101A6C00FFF7A4FF034618460837BD4680BD0000AB
:101A7C0080B586B000AF7860FFF7BAFE38617B683E
:101A8C00002B01D10123DCE27B6893F83530DBB20B
:101A9C00022B08D07B6880225A657B68002283F871
:101AAC0034200123CDE27B681B68764A93424AD0EE
:101ABC007B681B68744A934245D07B681B68734AE9
:101ACC00934240D07B681B68714A93423BD07B6841
:101ADC001B68704A934236D07B681B686E4A9342EF
:101AEC0031D07B681B686D4A93422CD07B681B6895
:101AFC006B4A934227D07B681B686A4A934222D078
:101B0C007B681B68684A93421DD07B681B68674AD8
:101B1C00934218D07B681B68654A934213D07B684C
:101B2C001B68644A93420ED07B681B68624A9342DE
:101B3C0009D07B681B68614A934204D07B681B68A0
:101B4C005F4A934201D1012300E00023002B13D004
:101B5C007B681B681A687B681B6822F01E021A607F
:101B6C007B681B685A697B681B6822F080025A618B
:101B7C007B681B687B610AE07B681B681A687B6862
:101B8C001B6822F00E021A607B681B687B617B6805
:101B9C001B683C4A934272D07B681B683A4A93425A
:101BAC006DD07B681B68394A934268D07B681B6890
:101BBC00374A934263D07B681B68364A93425ED0A7
:101BCC007B681B68344A934259D07B681B68334A44
:101BDC00934254D07B681B68314A93424FD07B6848
:101BEC001B68304A93424AD07B681B682E4A93424A
:101BFC0045D07B681B682D4A934240D07B681B689C
:101C0C002B4A93423BD07B681B682A4A934236D0BE
:101C1C007B681B68284A934231D07B681B68274A33
:101C2C0093422CD07B681B68254A934227D07B6853
:101C3C001B68244A934222D07B681B68224A934239
:101C4C001DD07B681B68214A934218D07B681B68A7
:101C5C001F4A934213D07B681B681E4A93420ED0D6
:101C6C007B681B681C4A934209D07B681B681B4A23
:101C7C00934204D07B681B68194A934232D10123EA
:101C8C0031E000BF1000024028000240400002403A
:101C9C00580002407000024088000240A000024040
:101CAC00B8000240100402402804024040040240E4
:101CBC00580402407004024088040240A004024010
:101CCC00B8040240085402581C54025830540258AC
:101CDC0044540258585402586C54025880540258B8
:101CEC00945402580023002B07D07B681B6E1A6893
:101CFC007B681B6E22F480721A607B681B686D4ACD
:101D0C0093424AD07B681B686B4A934245D07B68F0
:101D1C001B686A4A934240D07B681B68684A9342AE
:101D2C003BD07B681B68674A934236D07B681B6844
:101D3C00654A934231D07B681B68644A93422CD02D
:101D4C007B681B68624A934227D07B681B68614A98
:101D5C00934222D07B681B685F4A93421DD07B68FC
:101D6C001B685E4A934218D07B681B685C4A93429E
:101D7C0013D07B681B685B4A93420ED07B681B6850
:101D8C00594A934209D07B681B68584A934204D045
:101D9C007B681B68564A934208D17B681B681A689B
:101DAC007B681B6822F001021A6007E07B681B68E5
:101DBC001A687B681B6822F001021A6013E0FFF7B7
:101DCC0017FD02463B69D31A052B0CD97B682022E0
:101DDC005A657B68032283F835207B68002283F8E0
:101DEC00342001232DE17B691B6803F00103002BD8
:101DFC00E5D17B681B682F4A93424AD07B681B68ED
:101E0C002D4A934245D07B681B682C4A934240D0A4
:101E1C007B681B682A4A93423BD07B681B68294A23
:101E2C00934236D07B681B68274A934231D07B683B
:101E3C001B68264A93422CD07B681B68244A934229
:101E4C0027D07B681B68234A934222D07B681B688F
:101E5C00214A93421DD07B681B68204A934218D0BC
:101E6C007B681B681E4A934213D07B681B681D4A13
:101E7C0093420ED07B681B681B4A934209D07B6847
:101E8C001B681A4A934204D07B681B68184A934219
:101E9C0001D1012300E00023002B2BD07B689B6D2C
:101EAC00BB607B68DB6D03F01F033F229A40BB686D
:101EBC009A602AE0100002402800024040000240D4
:101ECC00580002407000024088000240A00002400E
:101EDC00B8000240100402402804024040040240B2
:101EEC00580402407004024088040240A0040240DE
:101EFC00B80402407B689B6DFB607B68DB6D03F074
:101F0C001F0301229A40FB685A607B681B684F4A8A
:101F1C00934272D07B681B684D4A93426DD07B68AC
:101F2C001B684C4A934268D07B681B684A4A9342B0
:101F3C0063D07B681B68494A93425ED07B681B6800
:101F4C00474A934259D07B681B68464A934254D007
:101F5C007B681B68444A93424FD07B681B68434A9A
:101F6C0093424AD07B681B68414A934245D07B68B8
:101F7C001B68404A934240D07B681B683E4A9342A0
:101F8C003BD07B681B683D4A934236D07B681B680C
:101F9C003B4A934231D07B681B683A4A93422CD01F
:101FAC007B681B68384A934227D07B681B68374A8A
:101FBC00934222D07B681B68354A93421DD07B68C4
:101FCC001B68344A934218D07B681B68324A934290
:101FDC0013D07B681B68314A93420ED07B681B6818
:101FEC002F4A934209D07B681B682E4A934204D037
:101FFC007B681B682C4A934201D1012300E000232B
:10200C00002B15D07B685B6E7A68926E5A607B6889
:10201C00DB6E002B0CD07B68DB6E1A687B68DB6E8A
:10202C0022F480721A607B681B6F7A68526F5A6058
:10203C007B68012283F835207B68002283F83420EA
:10204C00002318461837BD4680BD00BF1000024063
:10205C00280002404000024058000240700002403C
:10206C0088000240A0000240B80002401004024068
:10207C00280402404004024058040240700402400C
:10208C0088040240A0040240B804024008540258DC
:10209C001C54025830540258445402585854025894
:1020AC006C540258805402589454025880B584B031
:1020BC0000AF78607B68002B01D1012337E27B688D
:1020CC0093F83530DBB2022B04D07B6880225A6542
:1020DC0001232CE27B681B685C4A93424AD07B68E4
:1020EC001B685B4A934245D07B681B68594A9342F4
:1020FC0040D07B681B68584A93423BD07B681B6876
:10210C00564A934236D07B681B68554A934231D06D
:10211C007B681B68534A93422CD07B681B68524ADD
:10212C00934227D07B681B68504A934222D07B682D
:10213C001B684F4A93421DD07B681B684D4A9342E3
:10214C0018D07B681B684C4A934213D07B681B6881
:10215C004A4A93420ED07B681B68494A934209D085
:10216C007B681B68474A934204D07B681B68464ACD
:10217C00934201D1012300E00023002B00F0868064
:10218C007B68042283F835207B681B682F4A9342B6
:10219C004AD07B681B682E4A934245D07B681B68EB
:1021AC002C4A934240D07B681B682B4A93423BD00D
:1021BC007B681B68294A934236D07B681B68284A87
:1021CC00934231D07B681B68264A93422CD07B68A3
:1021DC001B68254A934227D07B681B68234A93428D
:1021EC0022D07B681B68224A93421DD07B681B68F7
:1021FC00204A934218D07B681B681F4A934213D025
:10220C007B681B681D4A93420ED07B681B681C4A76
:10221C00934209D07B681B681A4A934204D07B68AE
:10222C001B68194A934208D17B681B681A687B6843
:10223C001B6822F001021A6078E17B681B681A683F
:10224C007B681B6822F001021A606FE110000240EB
:10225C00280002404000024058000240700002403A
:10226C0088000240A0000240B80002401004024066
:10227C00280402404004024058040240700402400A
:10228C0088040240A0040240B80402407B681B682A
:10229C001A687B681B6822F00E021A607B681B6848
:1022AC006C4A93424AD07B681B686B4A934245D078
:1022BC007B681B68694A934240D07B681B68684AFC
:1022CC0093423BD07B681B68664A934236D07B684E
:1022DC001B68654A934231D07B681B68634A934202
:1022EC002CD07B681B68624A934227D07B681B68A2
:1022FC00604A934222D07B681B685F4A93421DD090
:10230C007B681B685D4A934218D07B681B685C4AEB
:10231C00934213D07B681B685A4A93420ED07B6859
:10232C001B68594A934209D07B681B68574A9342F1
:10233C0004D07B681B68564A934208D17B681B68A3
:10234C001A687B681B6822F001021A6007E07B6840
:10235C001B681A687B681B6822F001021A607B6894
:10236C001B683C4A934272D07B681B683A4A934282
:10237C006DD07B681B68394A934268D07B681B68B8
:10238C00374A934263D07B681B68364A93425ED0CF
:10239C007B681B68344A934259D07B681B68334A6C
:1023AC00934254D07B681B68314A93424FD07B6870
:1023BC001B68304A93424AD07B681B682E4A934272
:1023CC0045D07B681B682D4A934240D07B681B68C4
:1023DC002B4A93423BD07B681B682A4A934236D0E7
:1023EC007B681B68284A934231D07B681B68274A5C
:1023FC0093422CD07B681B68254A934227D07B687C
:10240C001B68244A934222D07B681B68224A934261
:10241C001DD07B681B68214A934218D07B681B68CF
:10242C001F4A934213D07B681B681E4A93420ED0FE
:10243C007B681B681C4A934209D07B681B681B4A4B
:10244C00934204D07B681B68194A934232D1012312
:10245C0031E000BF10000240280002404000024062
:10246C00580002407000024088000240A000024068
:10247C00B80002401004024028040240400402400C
:10248C00580402407004024088040240A004024038
:10249C00B8040240085402581C54025830540258D4
:1024AC0044540258585402586C54025880540258E0
:1024BC00945402580023002B28D07B681B6E1A689A
:1024CC007B681B6E22F480721A607B689B6DFB60CC
:1024DC007B68DB6D03F01F0301229A40FB685A6096
:1024EC007B685B6E7A68926E5A607B68DB6E002B41
:1024FC000CD07B68DB6E1A687B68DB6E22F4807212
:10250C001A607B681B6F7A68526F5A607B68012275
:10251C0083F835207B68002283F834207B681B6DA0
:10252C00002B03D07B681B6D7868984700231846F6
:10253C001037BD4680BD00BF80B598B000AF786045
:10254C00844A07F10C0311464C22184605F0A6F8F4
:10255C007B68002B01D10123C6E17B681B687E4A96
:10256C00934206D17B681B6803F580731A467B681F
:10257C005A607B6893F89830DBB2002B06D17B68ED
:10258C00002283F899207868FDF71EFF7B681B6892
:10259C009A697B681B6822F010029A61FFF728F990
:1025AC00F86514E0FFF724F90246FB6DD31A0A2BE9
:1025BC000DD97B68D3F89C3043F001027B68C3F8DB
:1025CC009C207B68032283F8982001238CE17B6894
:1025DC001B689B6903F00803082BE3D07B681B681E
:1025EC009A697B681B6842F001029A61FFF700F957
:1025FC00F86514E0FFF7FCF80246FB6DD31A0A2BC2
:10260C000DD97B68D3F89C3043F001027B68C3F88A
:10261C009C207B68032283F89820012364E17B686B
:10262C001B689B6903F00103002BE3D07B681B68DC
:10263C009A697B681B6842F002029A617B681B7C7A
:10264C00012B08D17B681B689A697B681B6822F098
:10265C0040029A6107E07B681B689A697B681B687B
:10266C0042F040029A617B685B7C012B08D17B684D
:10267C001B689A697B681B6842F480429A6107E088
:10268C007B681B689A697B681B6822F480429A619C
:10269C007B689B7C012B08D17B681B689A697B68E3
:1026AC001B6822F480529A6107E07B681B689A6968
:1026BC007B681B6842F480529A617B681B689B693B
:1026CC0023F440717B689A687B681B680A439A61A3
:1026DC007B681B689A697B681B6822F0A4029A616C
:1026EC007B681B681A697B681B6822F010021A61F0
:1026FC007B68DB68012B08D17B681B689A697B6857
:10270C001B6842F004029A6130E07B68DB68002BA6
:10271C002CD07B68DB68022B20D07B681B689A6905
:10272C007B681B6842F080029A617B681B681A699F
:10273C007B681B6842F010021A617B68DB68032B14
:10274C0014D17B681B689A697B681B6842F0200275
:10275C009A610BE0DC76000800A000407B681B68E7
:10276C009A697B681B6842F020029A617B689B69BE
:10277C00013B5A067B68DB69013B1B021A437B68F1
:10278C001B6A013B42EA03017B685B69013B1A044B
:10279C007B681B680A43DA617B689B68B3F5407FF2
:1027AC0015D17B689B6A5A1E7B68DB6A013B1B0256
:1027BC001A437B681B6B013B1B0142EA03017B68DC
:1027CC005B6A013B1A047B681B680A43DA607B680E
:1027DC001B6E002B0AD07B681B68D3F8C0107B687B
:1027EC005A6E7B681B680A43C3F8C0207B68DA6D9D
:1027FC007B681B6E1344002B11D07B681B68D3F8CD
:10280C00C83023F007017B689B6E9B0060333B4410
:10281C0053F8542C7B681B680A43C3F8C8207B68A8
:10282C001B6C002B11D07B681B68D3F8BC3023F0D9
:10283C0007017B685B6C9B0060333B4453F8542C62
:10284C007B681B680A43C3F8BC207B689B6C002B1D
:10285C0012D07B681B68D3F8BC3023F070017B6806
:10286C00DB6C9B0060333B4453F8543C1A017B688F
:10287C001B680A43C3F8BC207B681B6D002B12D06D
:10288C007B681B68D3F8BC3023F4E0617B685B6D1C
:10289C009B0060333B4453F8543C1A027B681B6822
:1028AC000A43C3F8BC207B681B68114A934207D1CA
:1028BC007B685B689A687B685B6822F003029A60AD
:1028CC007B680022C3F894207B680022C3F89C200C
:1028DC007B68012283F89820786800F0B7FB0346E8
:1028EC0087F85B3097F85B3018466037BD4680BD83
:1028FC0000A0004080B483B000AF78607B6893F890
:10290C009830DBB2012B11D17B68022283F898201E
:10291C007B681B689A697B681B6822F001029A61CC
:10292C007B680022C3F89C20002308E07B68D3F866
:10293C009C3043F004027B68C3F89C2001231846AA
:10294C000C37BD465DF8047B704780B586B000AF90
:10295C00F860B9607A60FB6893F89830DBB2022BB0
:10296C0041D1FB681B68D3F8C03003F07C53002BBB
:10297C0009D1FB68D3F89C3043F02002FB68C3F804
:10298C009C20012338E0FB681B68D3F8C43003F4A7
:10299C000013002B09D0FB68D3F89C3043F4007271
:1029AC00FB68C3F89C20012326E0FB681B68D3F866
:1029BC00C4301B0C03F01F037B617B697A68B96818
:1029CC00F86800F0C9FCFB681B6801217A6901FA00
:1029DC0002F2C3F8D02001227B699A40FB68C3F84D
:1029EC009420002308E0FB68D3F89C3043F00802E5
:1029FC00FB68C3F89C20012318461837BD4680BDE0
:102A0C0080B485B000AF78607B681B68D3F8C430A5
:102A1C0003F03F03FB60FB6818461437BD465DF8B6
:102A2C00047B704780B596B000AF78609A4B1B69F9
:102A3C009B077B65984B5B699B077A6D13407B65A5
:102A4C007B681B681B6D03F470433B657B681B68DC
:102A5C005B6D3A6D13403B657B681B681B6D03F027
:102A6C000F03FB647B681B685B6DFA6C1340FB64A3
:102A7C007B681B681B6D03F0F003BB647B681B68F1
:102A8C005B6DBA6C1340BB647B681B681B6D03F0F9
:102A9C0071537B647B681B685B6D7A6C13407B6441
:102AAC007B681B681B6D03F060733B647B681B6861
:102ABC005B6D3A6C13403B647B681B685B6DFB631E
:102ACC007B681B681B6DBB63FB6B1B0A03F001036C
:102ADC00002B10D0BB6B1B0A03F00103002B0AD098
:102AEC007B681B684FF480721A656B4B00221A616D
:102AFC00786800F05FFAFB6B9B0A03F00103002B74
:102B0C001DD0BB6B9B0A03F00103002B17D07B6815
:102B1C001B68D3F8DC307B637B681B68D3F8E4302C
:102B2C007A6B13407B637B681B684FF480621A6579
:102B3C00594B00221A61796B786800F012FA7B6DA0
:102B4C00002B0DD07B681A68796D544B0B401365C4
:102B5C00514A7B6D9B0F1361796D786800F0C0F959
:102B6C003B6D002B0DD07B681A68396D4B4B0B40BD
:102B7C001365494A3B6D9B0F1361396D786800F002
:102B8C00BAF9FB6C002B0DD07B681A68F96C434BBF
:102B9C000B401365404AFB6C9B0F1361F96C786812
:102BAC0000F0B4F9BB6C002B0DD07B681A68B96CC3
:102BBC003A4B0B401365384ABB6C9B0F1361B96CD5
:102BCC00786800F0AEF9FB6BDB0A03F00103002B15
:102BDC0010D0BB6BDB0A03F00103002B0AD07B681F
:102BEC001B684FF400621A652B4B00221A6178683F
:102BFC0000F0A2F9FB6B5B0A03F00103002B1DD064
:102C0C00BB6B5B0A03F00103002B17D07B681B68BE
:102C1C00D3F8D8303B637B681B68D3F8E0303A6B51
:102C2C0013403B637B681B684FF400721A651A4BA8
:102C3C0000221A61396B786800F088F9FB6BDB0CA9
:102C4C0003F00103002B10D0BB6BDB0C03F0010372
:102C5C00002B0AD07B681B684FF400221A650E4BC0
:102C6C0000221A61786800F087F9FB6B1B0C03F0EB
:102C7C000103002B16D0BB6B1B0C03F00103002BC4
:102C8C0010D07B681B684FF480321A65024B00220F
:102C9C001A61786804E000BF00A80040FFFFCF3F36
:102CAC0000F074F9FB6B9B0C03F00103002B10D0AC
:102CBC00BB6B9B0C03F00103002B0AD07B681B68D9
:102CCC004FF480221A65834B00221A61786800F059
:102CDC0067F9FB6B5B0C03F00103002B15D0BB6B8E
:102CEC005B0C03F00103002B0FD07B681B684FF4C7
:102CFC0000321A65774B00221A617B68D3F89C303E
:102D0C0043F080027B68C3F89C203B6C002B0DD0F9
:102D1C007B681A68396C704B0B4013656D4A3B6CC1
:102D2C009B0F1361396C786800F058F97B6C002BA1
:102D3C0011D07B681A68796C674B0B401365654A38
:102D4C007B6C9B0F13617B68D3F89C207B6C1A43C4
:102D5C007B68C3F89C207B681B68604A934240F0F8
:102D6C00AC807B685B689B6803F00303002B00F06E
:102D7C00A4807B685B681B6A03F00F03FB627B68B3
:102D8C005B685B6AFA6A1340FB627B685B681B6A70
:102D9C0003F03003BB627B685B685B6ABA6A134002
:102DAC00BB627B685B681B6A03F4C0737B627B68E5
:102DBC005B685B6A7A6A13407B627B685B681B6A40
:102DCC0003F4FC433B627B685B685B6A3A6A1340C2
:102DDC003B627B685B681B6A03F4F023FB617B68D6
:102DEC005B685B6AFA691340FB617B685B685B6AD2
:102DFC00BB617B685B681B6A7B61FB6A002B07D03D
:102E0C007B685B68FA6A1A62F96A786800F0F1F814
:102E1C00BB6A002B07D07B685B68BA6A1A62B96A16
:102E2C00786800F0F1F8BB699B0903F00103002BF3
:102E3C001AD07B699B0903F00103002B14D07B682B
:102E4C005B68DB6B1B0C9BB23B617B685B68DB6B71
:102E5C0003F03F03FB607B685B6840221A62FA68F0
:102E6C003969786800F0DBF87B6A002B07D07B6847
:102E7C005B687A6A1A62796A786800F0DCF83B6AF7
:102E8C00002B0BD07B685B683A6A1A627B68D3F8BC
:102E9C009C203B6A1A437B68C3F89C20FB69002B7F
:102EAC000BD07B685B68FA691A627B68D3F89C204C
:102EBC00FB691A437B68C3F89C207B68D3F89C3071
:102ECC00002B02D0786800F07FF800BF5837BD4661
:102EDC0080BD00BF00A80040FFFFCF3F00A0004016
:102EEC0080B483B000AF7860396000BF0C37BD464A
:102EFC005DF8047B704780B483B000AF78603960B4
:102F0C0000BF0C37BD465DF8047B704780B483B0BE
:102F1C0000AF7860396000BF0C37BD465DF8047BAC
:102F2C00704780B483B000AF7860396000BF0C3755
:102F3C00BD465DF8047B704780B483B000AF786009
:102F4C0000BF0C37BD465DF8047B704780B483B07E
:102F5C0000AF7860396000BF0C37BD465DF8047B6C
:102F6C00704780B483B000AF7860396000BF0C3715
:102F7C00BD465DF8047B704780B483B000AF7860C9
:102F8C0000BF0C37BD465DF8047B704780B483B03E
:102F9C0000AF786000BF0C37BD465DF8047B70470E
:102FAC0080B483B000AF786000BF0C37BD465DF8CD
:102FBC00047B704780B483B000AF786000BF0C37DF
:102FCC00BD465DF8047B704780B483B000AF786079
:102FDC0000BF0C37BD465DF8047B704780B483B0EE
:102FEC0000AF7860396000BF0C37BD465DF8047BDC
:102FFC00704780B483B000AF7860396000BF0C3785
:10300C00BD465DF8047B704780B483B000AF786038
:10301C00396000BF0C37BD465DF8047B704780B447
:10302C0085B000AFF860B9607A6000BF1437BD4658
:10303C005DF8047B704780B483B000AF7860396072
:10304C0000BF0C37BD465DF8047B704780B485B07B
:10305C0000AF78607B685B6BBB607B681B68D3F8E8
:10306C008420A74B1340BA6891007A6812680B430E
:10307C00C2F884307B681B68D3F8843023F47F015A
:10308C007B689B6B1A047B681B680A43C3F884201B
:10309C007B689B6BBA681344BB607B681B68D3F876
:1030AC008820974B1340BA6891007A6812680B43DA
:1030BC00C2F888307B681B68D3F8883023F4FE0193
:1030CC007B68DB6B1A047B681B680A43C3F8882097
:1030DC007B68DB6B5B00BA681344BB607B681B6866
:1030EC00D3F8A020864B1340BA6891007A68126816
:1030FC000B43C2F8A0307B681B68D3F8A03023F4D4
:10310C00FE017B681B6C1A047B681B680A43C3F8BE
:10311C00A0207B681B6C7A68526C02FB03F3BA68C4
:10312C001344BB607B681B68D3F8B020744B13400E
:10313C00BA6891007A6812680B43C2F8B0307B68A9
:10314C001B68D3F8B03023F4FE017B689B6C1A0427
:10315C007B681B680A43C3F8B0207B689B6C7A6859
:10316C00D26C02FB03F3BA681344BB607B681B6828
:10317C00D3F8AC20624B1340BA6891007A6812689D
:10318C000B43C2F8AC307B681B6D7A68526D02FB46
:10319C0003F3BA681344BB607B681B68D3F8F02058
:1031AC00574B1340BA6891007A6812680B43C2F807
:1031BC00F0307B681B68D3F8F03023F47C117B680B
:1031CC009B6D1A047B681B680A43C3F8F0207B686C
:1031DC009B6D5B00BA681344BB607B681B68D3F8BB
:1031EC00C020474B1340BA6891007A6812680B43B1
:1031FC00C2F8C0307B681B68D3F8C03023F47C1154
:10320C007B68DB6D1A047B681B680A43C3F8C0201B
:10321C007B681B68D3F8C03023F07C517B681B6E35
:10322C001A067B681B680A43C3F8C0207B685A6B7C
:10323C00344B13449A007B68DA667B68DA6E7B68E1
:10324C009B6B9B001A447B681A677B681A6F7B68C0
:10325C00DB6BDB001A447B685A677B685A6F7B68B0
:10326C001B6C7968496C01FB03F39B001A447B6867
:10327C009A677B689A6F7B689B6C7968C96C01FB59
:10328C0003F39B001A447B68DA677B68DA6F7B6810
:10329C001B6D7968496D01FB03F39B001A447B6835
:1032AC00C3F880207B68D3F880207B689B6DDB00A3
:1032BC001A447B68C3F884207B68D3F884207B682D
:1032CC00DB6D7968896E01FB03F39B001A447B6804
:1032DC00C3F888207B68D3F888207B681B6E7968DC
:1032EC00896E01FB03F39B001A447B68C3F89020A2
:1032FC007B68D3F89030044A934215D906E000BF9E
:10330C000300FFFF002B0010FCD300407B68D3F8B8
:10331C009C3043F020027B68C3F89C207B6803221E
:10332C0083F89820012310E07B68DB6EFB6005E0DE
:10333C00FB6800221A60FB680433FB607B68D3F8DF
:10334C009030FA689A42F3D3002318461437BD46DE
:10335C005DF8047B704700BF80B489B000AFF860A3
:10336C00B9607A603B60BB685B68002B0AD1BB68B4
:10337C001A69BB689B681A43BB681B689B041343A0
:10338C00FB610AE0BB681A69BB689B681A43BB689F
:10339C001B68134343F08043FB61BB681B6A1A062E
:1033AC00BB68DB691A43BB689B691A43BB685B69E2
:1033BC001A43BB68DB681B0413433B61FB68D3F8FF
:1033CC008420FB689B6E396801FB03F39B0013445C
:1033DC00BB61BB69FA691A60BB690433BB61BB6929
:1033EC003A691A60BB690433BB6100237B6120E03E
:1033FC007B6903337A6813441B781A067B690233A2
:10340C0079680B441B781B041A437B690133796878
:10341C000B441B781B02134379687A690A441278AF
:10342C001A43BB691A60BB690433BB617B69043303
:10343C007B61BB68DB68064AD35C1A467B699342A6
:10344C00D6D300BF00BF2437BD465DF8047B704760
:10345C003877000880B489B000AF786039600023F9
:10346C00FB61864B7B618CE13B681A680121FB692F
:10347C0001FA03F313403B613B69002B00F07E81A2
:10348C003B685B6803F00303012B05D03B685B686A
:10349C0003F00303022B30D17B689B68BB61FB6993
:1034AC005B00032202FA03F3DB43BA691340BB61EE
:1034BC003B68DA68FB695B0002FA03F3BA691343F1
:1034CC00BB617B68BA699A607B685B68BB610122EF
:1034DC00FB6902FA03F3DB43BA691340BB613B6837
:1034EC005B681B0903F00102FB6902FA03F3BA697A
:1034FC001343BB617B68BA695A603B685B6803F035
:10350C000303032B17D07B68DB68BB61FB695B0093
:10351C00032202FA03F3DB43BA691340BB613B6835
:10352C009A68FB695B0002FA03F3BA691343BB6147
:10353C007B68BA69DA603B685B6803F00303022BB3
:10354C0023D1FB69DA087B68083253F82230BB615F
:10355C00FB6903F007039B000F2202FA03F3DB4322
:10356C00BA691340BB613B681A69FB6903F0070336
:10357C009B0002FA03F3BA691343BB61FB69DA08D7
:10358C007B680832B96943F822107B681B68BB6101
:10359C00FB695B00032202FA03F3DB43BA691340B5
:1035AC00BB613B685B6803F00302FB695B0002FADA
:1035BC0003F3BA691343BB617B68BA691A603B6851
:1035CC005B6803F44033002B00F0D8802C4BD3F80D
:1035DC00F4302B4A43F00203C2F8F430284BD3F8F2
:1035EC00F43003F00203FB60FB68264AFB699B087E
:1035FC00023352F82330BB61FB6903F003039B00D9
:10360C000F2202FA03F3DB43BA691340BB617B68F8
:10361C001D4A93424AD07B681C4A93422BD07B684C
:10362C001B4A934225D07B681A4A93421FD07B6871
:10363C00194A934219D07B68184A934213D07B687D
:10364C00174A93420DD07B68164A934207D07B6889
:10365C00154A934201D1092329E00A2327E00723C5
:10366C0025E0062323E0052321E004231FE00323A8
:10367C001DE002231BE0012319E000BF800000586D
:10368C00004402580004005800000258000402587C
:10369C0000080258000C025800100258001402587E
:1036AC0000180258001C0258002402580023FA6922
:1036BC0002F0030292009340BA691343BB6138498C
:1036CC00FB699B080233BA6941F823204FF0B043E1
:1036DC001B68BB613B69DB43BA691340BB613B6848
:1036EC005B6803F48013002B03D0BA693B69134366
:1036FC00BB614FF0B042BB6913604FF0B0435B68E5
:10370C00BB613B69DB43BA691340BB613B685B68D7
:10371C0003F40013002B03D0BA693B691343BB615C
:10372C004FF0B042BB6953607B695B68BB613B691E
:10373C00DB43BA691340BB613B685B6803F400333D
:10374C00002B03D0BA693B691343BB617B69BA692F
:10375C005A607B691B68BB613B69DB43BA691340E8
:10376C00BB613B685B6803F48033002B03D0BA6900
:10377C003B691343BB617B69BA691A60FB6901330E
:10378C00FB613B681A68FB6922FA03F3002B7FF498
:10379C006BAE00BF00BF2437BD465DF8047B70479D
:1037AC000004005880B483B000AF78600B467B8077
:1037BC0013467B707B78002B03D07A887B689A61E8
:1037CC0003E07B881A047B689A6100BF0C37BD4606
:1037DC005DF8047B7047000080B584B000AF786062
:1037EC00194BDB6803F00403042B0AD0164BDB687F
:1037FC0003F007037A689A4201D001231FE00023EB
:10380C001DE0114BDB6823F007020F497B68134363
:10381C00CB60FDF7EDFFF86009E0FDF7E9FF02462C
:10382C00FB68D31AB3F57A7F01D9012307E0064B65
:10383C005B6803F40053B3F5005FEED10023184628
:10384C001037BD4680BD00BF0048025880B58CB013
:10385C0000AF78607B68002B01D10123C8E37B6843
:10386C001B6803F00103002B00F08780884B1B6959
:10387C0003F03803FB62864B9B6ABB62FB6A102B1E
:10388C0007D0FB6A182B10D1BB6A03F00303022B81
:10389C000BD17F4B1B6803F40033002B6CD07B687F
:1038AC005B68002B68D10123A2E37B685B68B3F5EE
:1038BC00803F06D1764B1B68754A43F48033136006
:1038CC002EE07B685B68002B0CD1714B1B68704A37
:1038DC0023F4803313606E4B1B686D4A23F48023F2
:1038EC0013601DE07B685B68B3F5A02F0CD1684BAF
:1038FC001B68674A43F480231360654B1B68644A5A
:10390C0043F4803313600BE0614B1B68604A23F473
:10391C00803313605E4B1B685D4A23F48023136075
:10392C007B685B68002B13D0FDF762FF786208E0C0
:10393C00FDF75EFF02467B6AD31A642B01D9032381
:10394C0056E3534B1B6803F40033002BF0D014E008
:10395C00FDF74EFF786208E0FDF74AFF02467B6AEE
:10396C00D31A642B01D9032342E3494B1B6803F49C
:10397C000033002BF0D100E000BF7B681B6803F024
:10398C000203002B00F08C80414B1B6903F03803C1
:10399C003B623F4B9B6AFB613B6A002B07D03B6A47
:1039AC00182B37D1FB6903F00303002B32D1384BB2
:1039BC001B6803F00403002B05D07B68DB68002B2D
:1039CC0001D1012314E3324B1B6823F019027B68ED
:1039DC00DB682F4913430B60FDF70AFF786208E0A0
:1039EC00FDF706FF02467B6AD31A022B01D903238B
:1039FC00FEE2274B1B6803F00403002BF0D0244B92
:103A0C005B6823F0FE427B681B691B06204913434D
:103A1C004B6045E07B68DB68002B26D01C4B1B6899
:103A2C0023F019027B68DB68194913430B60FDF71F
:103A3C00DFFE786208E0FDF7DBFE02467B6AD31AF4
:103A4C00022B01D90323D3E2114B1B6803F00403AF
:103A5C00002BF0D00E4B5B6823F0FE427B681B6999
:103A6C001B060B4913434B601AE0094B1B68084AB1
:103A7C0023F001031360FDF7BBFE78620AE0FDF74B
:103A8C00B7FE02467B6AD31A022B03D90323AFE29B
:103A9C0000440258964B1B6803F00403002BEED134
:103AAC007B681B6803F01003002B6AD0904B1B69DA
:103ABC0003F03803BB618E4B9B6A7B61BB69082B9F
:103ACC0007D0BB69182B1BD17B6903F00303012BB7
:103ADC0016D1874B1B6803F48073002B05D07B68D1
:103AEC00DB69802B01D0012382E2814BDB6823F060
:103AFC007C527B681B6A1B067D491343CB6040E0FC
:103B0C007B68DB69002B23D0794B1B68784A43F028
:103B1C0080031360FDF76CFE786208E0FDF768FE29
:103B2C0002467B6AD31A022B01D9032360E2704B45
:103B3C001B6803F48073002BF0D06D4BDB6823F013
:103B4C007C527B681B6A1B0669491343CB6018E0E7
:103B5C00674B1B68664A23F080031360FDF748FE31
:103B6C00786208E0FDF744FE02467B6AD31A022B0A
:103B7C0001D903233CE25E4B1B6803F48073002BDA
:103B8C00F0D17B681B6803F00803002B36D07B68F0
:103B9C005B69002B19D0564B5B6F554A43F0010300
:103BAC005367FDF725FE786208E0FDF721FE02461B
:103BBC007B6AD31A022B01D9032319E24C4B5B6F9E
:103BCC0003F00203002BF0D018E0494B5B6F484A1E
:103BDC0023F001035367FDF70BFE786208E0FDF755
:103BEC0007FE02467B6AD31A022B01D90323FFE19D
:103BFC003F4B5B6F03F00203002BF0D17B681B681B
:103C0C0003F02003002B36D07B689B69002B19D066
:103C1C00374B1B68364A43F480531360FDF7E8FDBD
:103C2C00786208E0FDF7E4FD02467B6AD31A022BAA
:103C3C0001D90323DCE12E4B1B6803F40053002B4A
:103C4C00F0D018E02A4B1B68294A23F480531360E8
:103C5C00FDF7CEFD786208E0FDF7CAFD02467B6AEF
:103C6C00D31A022B01D90323C2E1214B1B6803F4A5
:103C7C000053002BF0D17B681B6803F00403002B6E
:103C8C0000F086801B4B1B681A4A43F48073136048
:103C9C00FDF7AEFD786208E0FDF7AAFD02467B6AEF
:103CAC00D31A642B01D90323A2E1124B1B6803F432
:103CBC008073002BF0D07B689B68012B06D10C4BDA
:103CCC001B6F0B4A43F00103136732E07B689B6860
:103CDC00002B11D1064B1B6F054A23F00103136710
:103CEC00034B1B6F024A23F00403136721E000BF50
:103CFC0000440258004802587B689B68052B0CD185
:103D0C00834B1B6F824A43F004031367804B1B6F7A
:103D1C007F4A43F0010313670BE07D4B1B6F7C4A1A
:103D2C0023F0010313677A4B1B6F794A23F00403CA
:103D3C0013677B689B68002B15D0FDF759FD7862E3
:103D4C000AE0FDF755FD02467B6AD31A41F2883230
:103D5C00934201D903234BE16D4B1B6F03F002031C
:103D6C00002BEED014E0FDF743FD78620AE0FDF77E
:103D7C003FFD02467B6AD31A41F28832934201D945
:103D8C00032335E1624B1B6F03F00203002BEED1D2
:103D9C007B685B6A002B00F02A815D4B1B6903F08A
:103DAC003803182B00F0BA807B685B6A022B40F05A
:103DBC009580574B1B68564A23F080731360FDF7B0
:103DCC0017FD786208E0FDF713FD02467B6AD31AF3
:103DDC00022B01D903230BE14D4B1B6803F000733D
:103DEC00002BF0D14A4B9A6A4A4B13407A68916A7D
:103DFC007A68D26A12010A43454913438B627B6885
:103E0C001B6B013BC3F308027B685B6B013B5B02E2
:103E1C009BB21A437B689B6B013B1B0403F4FE03B0
:103E2C001A437B68DB6B013B1B0603F0FE433849EE
:103E3C0013430B63364BDB6A354A23F00103D36221
:103E4C00334B5A6B344B13407A68926CD200304926
:103E5C0013434B632E4BDB6A23F00C027B681B6C09
:103E6C002B491343CB622A4BDB6A23F002027B689B
:103E7C005B6C27491343CB62254BDB6A244A43F422
:103E8C008033D362224BDB6A214A43F40033D36282
:103E9C001F4BDB6A1E4A43F48023D3621C4BDB6A44
:103EAC001B4A43F00103D362194B1B68184A43F0B9
:103EBC0080731360FDF79CFC786208E0FDF798FCBA
:103ECC0002467B6AD31A022B01D9032390E0104BD4
:103EDC001B6803F00073002BF0D088E00C4B1B68C0
:103EEC000B4A23F080731360FDF782FC786208E0C4
:103EFC00FDF77EFC02467B6AD31A022B01D9032301
:103F0C0076E0034B1B6803F00073002BF0D16EE0DE
:103F1C00004402580CFCFFFF0700FFFF364B9B6A66
:103F2C003B61354B1B6BFB607B685B6A012B31D0B3
:103F3C003B6903F003027B689B6A9A422AD13B6976
:103F4C001B0903F03F027B68DB6A9A4222D1FB68B3
:103F5C00C3F308027B681B6B013B9A421AD1FB68C6
:103F6C005B0A03F07F027B685B6B013B9A4211D1C9
:103F7C00FB681B0C03F07F027B689B6B013B9A4236
:103F8C0008D1FB681B0E03F07F027B68DB6B013BE7
:103F9C009A4201D001232BE0174B5B6BDB08C3F378
:103FAC000C033B617B689B6C3A699A421FD0124BA5
:103FBC00DB6A114A23F00103D362FDF719FC786226
:103FCC0000BFFDF715FC02467B6A9342F9D00A4B01
:103FDC005A6B0A4B13407A68926CD2000649134311
:103FEC004B63054BDB6A044A43F00103D3620023A5
:103FFC0018463037BD4680BD004402580700FFFF0D
:10400C0080B586B000AF786039607B68002B01D139
:10401C0001239CE18A4B1B6803F00F033A689A4218
:10402C0010D9874B1B6823F00F0285493B6813435B
:10403C000B60834B1B6803F00F033A689A4201D064
:10404C00012384E17B681B6803F00403002B10D070
:10405C007B681A697B4B9B6903F070039A4208D901
:10406C00784B9B6923F070027B681B69754913437D
:10407C008B617B681B6803F00803002B10D07B68F6
:10408C005A69704BDB6903F070039A4208D96D4B87
:10409C00DB6923F070027B685B696A491343CB616F
:1040AC007B681B6803F01003002B10D07B689A69A7
:1040BC00644BDB6903F4E0639A4208D9614BDB691A
:1040CC0023F4E0627B689B695E491343CB617B6898
:1040DC001B6803F02003002B10D07B68DA69594B66
:1040EC001B6A03F070039A4208D9564B1B6A23F0E3
:1040FC0070027B68DB69534913430B627B681B6856
:10410C0003F00203002B10D07B68DA684D4B9B69DF
:10411C0003F00F039A4208D94A4B9B6923F00F0214
:10412C007B68DB68474913438B617B681B6803F032
:10413C000103002B55D0434B9B6923F470627B68C1
:10414C009B68404913438B617B685B68022B07D1EA
:10415C003C4B1B6803F40033002B21D10123F6E008
:10416C007B685B68032B07D1364B1B6803F000732D
:10417C00002B15D10123EAE07B685B68012B07D18A
:10418C00304B1B6803F48073002B09D10123DEE054
:10419C002C4B1B6803F00403002B01D10123D6E048
:1041AC00284B1B6923F007027B685B682549134386
:1041BC000B61FDF71DFB78610AE0FDF719FB024668
:1041CC007B69D31A41F28832934201D90323BEE0B2
:1041DC001C4B1B6903F038027B685B68DB009A425E
:1041EC00EBD17B681B6803F00203002B10D07B68BB
:1041FC00DA68144B9B6903F00F039A4208D2114BF7
:10420C009B6923F00F027B68DB680E4913438B61BB
:10421C000B4B1B6803F00F033A689A4214D2084BFD
:10422C001B6823F00F0206493B6813430B60044BD9
:10423C001B6803F00F033A689A4205D0012386E00D
:10424C0000200052004402587B681B6803F00403F2
:10425C00002B10D07B681A693F4B9B6903F07003ED
:10426C009A4208D23C4B9B6923F070027B681B6915
:10427C00394913438B617B681B6803F00803002BDF
:10428C0010D07B685A69344BDB6903F070039A4297
:10429C0008D2314BDB6923F070027B685B692E49D5
:1042AC001343CB617B681B6803F01003002B10D009
:1042BC007B689A69284BDB6903F4E0639A4208D265
:1042CC00254BDB6923F4E0627B689B69224913432D
:1042DC00CB617B681B6803F02003002B10D07B683C
:1042EC00DA691D4B1B6A03F070039A4208D21A4B11
:1042FC001B6A23F070027B68DB69174913430B625E
:10430C0000F034F80246144B9B691B0A03F00F03B0
:10431C001249CB5C03F01F0322FA03F33B610E4BF3
:10432C009B6903F00F030D4AD35C03F01F033A693A
:10433C0022FA03F30A4A13600A4A3B6913600A4BD8
:10434C001B681846FDF70AFA0346FB73FB7B1846FD
:10435C001837BD4680BD00BF0044025828770008BE
:10436C0004000024000000240800002480B489B05C
:10437C0000AFB34B1B6903F03803182B00F25581C7
:10438C0001A252F823F000BFF94300083746000899
:10439C0037460008374600083746000837460008FD
:1043AC0037460008374600081F4400083746000807
:1043BC0037460008374600083746000837460008DD
:1043CC0037460008374600082544000837460008E1
:1043DC0037460008374600083746000837460008BD
:1043EC0037460008374600082B440008944B1B68DE
:1043FC0003F02003002B09D0914B1B68DB0803F062
:10440C000303904A22FA03F3BB6111E18D4BBB61AC
:10441C000EE18D4BBB610BE18C4BBB6108E1884B12
:10442C009B6A03F003037B61854B9B6A1B0903F0BA
:10443C003F033B61824BDB6A03F00103FB60804B63
:10444C005B6BDB08C3F30C03FA6802FB03F307EEA8
:10445C00903AF8EE677AC7ED027A3B69002B00F0D0
:10446C00E1807B69022B00F083807B69022B00F2D8
:10447C00A1807B69002B03D07B69012B56D099E07E
:10448C006F4B1B6803F02003002B2DD06C4B1B686B
:10449C00DB0803F003036B4A22FA03F37B607B68AF
:1044AC0007EE903AF8EE676A3B6907EE903AF8EE41
:1044BC00677A86EEA77A624B1B6BC3F3080307EE91
:1044CC00903AF8EE676A97ED026ADFED615AC6EE34
:1044DC00257A76EEA77AF7EE006A77EEA67A67EE83
:1044EC00277AC7ED077A87E03B6907EE903AF8EE3A
:1044FC00677ADFED586A86EEA77A514B1B6BC3F3D4
:10450C00080307EE903AF8EE676A97ED026ADFED62
:10451C00505AC6EE257A76EEA77AF7EE006A77EE59
:10452C00A67A67EE277AC7ED077A65E03B6907EE56
:10453C00903AF8EE677ADFED486A86EEA77A404B40
:10454C001B6BC3F3080307EE903AF8EE676A97ED1E
:10455C00026ADFED3F5AC6EE257A76EEA77AF7EEC1
:10456C00006A77EEA67A67EE277AC7ED077A43E002
:10457C003B6907EE903AF8EE677ADFED386A86EE23
:10458C00A77A2F4B1B6BC3F3080307EE903AF8EE98
:10459C00676A97ED026ADFED2E5AC6EE257A76EE43
:1045AC00A77AF7EE006A77EEA67A67EE277AC7ED60
:1045BC00077A21E03B6907EE903AF8EE677ADFED77
:1045CC00266A86EEA77A1E4B1B6BC3F3080307EE15
:1045DC00903AF8EE676A97ED026ADFED1D5AC6EE67
:1045EC00257A76EEA77AF7EE006A77EEA67A67EE72
:1045FC00277AC7ED077A00BF114B1B6B5B0A03F0E0
:10460C007F0301333B603B6807EE903AB8EE677A64
:10461C00D7ED076AC6EE877AFCEEE77A17EE903A8A
:10462C00BB6105E00023BB6102E0074BBB6100BF2F
:10463C00BB6918462437BD465DF8047B704700BF44
:10464C00004402580090D00300093D0000366E0172
:10465C00000000460024744C0024744A001BB74B25
:10466C002DE9B04FC6B000AFC7F80401002387F89E
:10467C001731002387F81631D7F80431D3E900231A
:10468C0002F00064002554EA050349D0D7F8043140
:10469C005B6EB3F5401F2FD0B3F5401F28D8B3F590
:1046AC00001F1AD0B3F5001F22D8002B03D0B3F58E
:1046BC00801F07D01CE0AB4BDB6AAA4A43F40033E3
:1046CC00D3621AE0D7F8043108330221184601F0FE
:1046DC0067F9034687F817310FE0D7F80431283310
:1046EC000221184601F00EFA034687F8173104E050
:1046FC00012387F8173100E000BF97F81731002B22
:10470C000AD1984B1B6D23F44011D7F804315B6E22
:10471C00944A0B43136503E097F8173187F8163169
:10472C00D7F80431D3E9002302F480784FF0000964
:10473C0058EA090347D0D7F804319B6D042B2AD8CB
:10474C0001A252F823F000BF694700087747000820
:10475C008D470008AB470008AB470008814BDB6A6C
:10476C00804A43F40033D3621AE0D7F8043108339B
:10477C000021184601F014F9034687F817310FE0B1
:10478C00D7F8043128330021184601F0BBF9034651
:10479C0087F8173104E0012387F8173100E000BFD8
:1047AC0097F81731002B0AD16E4B1B6D23F00701C4
:1047BC00D7F804319B6D6B4A0B43136503E097F8F4
:1047CC00173187F81631D7F80431D3E9002302F4F6
:1047DC00806A4FF0000B5AEA0B035BD0D7F8043118
:1047EC00D3F8A430B3F5200F3BD0B3F5200F34D859
:1047FC00B3F5000F37D0B3F5000F2ED8B3F5C00FBB
:10480C0033D0B3F5C00F28D8B3F5800F1AD0B3F559
:10481C00800F22D8002B03D0B3F5001F07D01CE06B
:10482C00504BDB6A4F4A43F40033D3621EE0D7F897
:10483C00043108330021184601F0B2F8034687F81A
:10484C00173113E0D7F8043128330021184601F052
:10485C0059F9034687F8173108E0012387F8173117
:10486C0004E000BF02E000BF00E000BF97F8173182
:10487C00002B0BD13B4B9B6D23F46001D7F804311B
:10488C00D3F8A430374A0B43936503E097F81731FC
:10489C0087F81631D7F80431D3E9002302F400630A
:1048AC00C7F8F8300023C7F8FC30D7E93E120B46A6
:1048BC0013435DD0D7F80431D3F8A830B3F1A06F0F
:1048CC003BD0B3F1A06F34D8B3F1806F37D0B3F1D4
:1048DC00806F2ED8B3F1407F33D0B3F1407F28D80E
:1048EC00B3F1007F1AD0B3F1007F22D8002B03D094
:1048FC00B3F1807F07D01CE01A4BDB6A194A43F4F2
:10490C000033D3621EE0D7F8043108330021184677
:10491C0001F046F8034687F8173113E0D7F8043155
:10492C0028330021184601F0EDF8034687F81731BB
:10493C0008E0012387F8173104E000BF02E000BF54
:10494C0000E000BF97F81731002B0DD1054B9B6D84
:10495C0023F0E061D7F80431D3F8A830014A0B43B7
:10496C00936505E00044025897F8173187F8163123
:10497C00D7F80431D3E9002302F00073C7F8F03004
:10498C000023C7F8F430D7E93C120B4613433AD056
:10499C00D7F80431DB6C302B1FD0302B19D8202BDF
:1049AC000CD0202B15D8002B19D0102B11D1AA4BC1
:1049BC00DB6AA94A43F40033D36211E0D7F804311F
:1049CC0008330221184600F0EBFF034687F8173135
:1049DC0006E0012387F8173102E000BF00E000BFBA
:1049EC0097F81731002B0AD19B4BDB6C23F030016D
:1049FC00D7F80431DB6C984A0B43D36403E097F887
:104A0C00173187F81631D7F80431D3E9002302F4B3
:104A1C008053C7F8E8300023C7F8EC30D7E93A12D6
:104A2C000B46134351D0D7F80431DB6DB3F5804FEF
:104A3C0035D0B3F5804F2ED8B3F5405F31D0B3F5F8
:104A4C00405F28D8B3F5005F1AD0B3F5005F22D8C9
:104A5C00002B03D0B3F5805F07D01CE07E4BDB6AE4
:104A6C007D4A43F40033D3621CE0D7F80431083399
:104A7C000021184600F094FF034687F8173111E027
:104A8C00D7F8043128330021184601F03BF80346CF
:104A9C0087F8173106E0012387F8173102E000BFD1
:104AAC0000E000BF97F81731002B0AD16A4B1B6D41
:104ABC0023F4E041D7F80431DB6D674A0B431365EF
:104ACC0003E097F8173187F81631D7F80431D3E99A
:104ADC00002302F40053C7F8E0300023C7F8E43099
:104AEC00D7E938120B46134353D0D7F804311B6E59
:104AFC00B3F5A02F33D0B3F5A02F2CD8B3F5802F5E
:104B0C002FD0B3F5802F26D8B3F5403F2BD0B3F57B
:104B1C00403F20D8B3F5003F12D0B3F5003F1AD870
:104B2C00002B22D0B3F5803F15D1D7F804310833D0
:104B3C000121184600F034FF034687F8173115E0C1
:104B4C00D7F8043128330121184600F0DBFF034667
:104B5C0087F817310AE0012387F8173106E000BF08
:104B6C0004E000BF02E000BF00E000BF97F817317F
:104B7C00002B0AD1384B1B6D23F4E021D7F80431FC
:104B8C001B6E354A0B43136503E097F8173187F812
:104B9C001631D7F80431D3E9002302F48043C7F867
:104BAC00D8300023C7F8DC30D7E936120B46134354
:104BBC0058D0D7F80431D3F8AC30B3F1A04F33D080
:104BCC00B3F1A04F2CD8B3F1804F2FD0B3F1804F5D
:104BDC0026D8B3F1405F2BD0B3F1405F20D8B3F1AE
:104BEC00005F12D0B3F1005F1AD8002B22D0B3F1C2
:104BFC00805F15D1D7F8043108330121184600F035
:104C0C00CFFE034687F8173115E0D7F80431283367
:104C1C000121184600F076FF034687F817310AE0A9
:104C2C00012387F8173106E000BF04E000BF02E063
:104C3C0000BF00E000BF97F81731002B0ED1064BD8
:104C4C009B6D23F0E041D7F80431D3F8AC30024A25
:104C5C000B43936506E000BF0044025897F81731E8
:104C6C0087F81631D7F80431D3E9002302F4004356
:104C7C00C7F8D0300023C7F8D430D7E934120B462C
:104C8C00134337D0D7F80431DB6EB3F1005F0ED08D
:104C9C00B3F1005F16D8002B18D0B3F1805F11D19F
:104CAC00C44BDB6AC34A43F40033D3620FE0D7F83A
:104CBC00043108330121184600F072FE034687F8D0
:104CCC00173104E0012387F8173100E000BF97F893
:104CDC001731002B0AD1B74B1B6D23F04051D7F87D
:104CEC000431DB6EB34A0B43136503E097F81731BD
:104CFC0087F81631D7F80431D3E9002302F080731A
:104D0C00C7F8C8300023C7F8CC30D7E932120B46AD
:104D1C00134339D0D7F804319B6C032B1CD801A258
:104D2C0052F823F06D4D0008414D00084F4D00081E
:104D3C006D4D00089F4BDB6A9E4A43F40033D362EF
:104D4C000FE0D7F8043108330221184600F028FE92
:104D5C00034687F8173104E0012387F8173100E088
:104D6C0000BF97F81731002B0AD1924BDB6C23F064
:104D7C000301D7F804319B6C8E4A0B43D36403E0D8
:104D8C0097F8173187F81631D7F80431D3E9002397
:104D9C0002F48003C7F8C0300023C7F8C430D7E949
:104DAC0030120B46134300F09980834B1B68824AE8
:104DBC0043F480731360FCF71BFDC7F810010BE084
:104DCC00FCF716FD0246D7F81031D31A642B03D921
:104DDC00032387F8173105E0774B1B6803F48073C6
:104DEC00002BEDD097F81731002B73D1714B1A6F44
:104DFC00D7F80431D3F8B030534003F44073002B90
:104E0C0015D06C4B1B6F23F44073C7F80C31694BF6
:104E1C001B6F684A43F480331367664B1B6F654AFC
:104E2C0023F480331367634AD7F80C311367D7F830
:104E3C000431D3F8B030B3F5807F18D1FCF7D8FC2F
:104E4C00C7F810010DE0FCF7D3FC0246D7F810317F
:104E5C00D21A41F288339A4203D9032387F81731C7
:104E6C0005E0544B1B6F03F00203002BEBD097F8BB
:104E7C001731002B29D1D7F80431D3F8B03003F413
:104E8C004073B3F5407F0ED14A4B1B6923F47C5120
:104E9C00D7F80431D3F8B0301A09484B1340454ABF
:104EAC000B43136105E0434B1B69424A23F47C53CB
:104EBC001361404B196FD7F80431D3F8B030C3F3FA
:104ECC000B033C4A0B43136708E097F8173187F83C
:104EDC00163103E097F8173187F81631D7F80431FB
:104EEC00D3E9002302F00103C7F8B8300023C7F858
:104EFC00BC30D7E92E120B46134300F08F80D7F845
:104F0C0004319B6F282B71D801A252F823F000BFFB
:104F1C0001500008F94F0008F94F0008F94F00083C
:104F2C00F94F0008F94F0008F94F0008F94F000835
:104F3C00CD4F0008F94F0008F94F0008F94F000851
:104F4C00F94F0008F94F0008F94F0008F94F000815
:104F5C00E34F0008F94F0008F94F0008F94F00081B
:104F6C00F94F0008F94F0008F94F0008F94F0008F5
:104F7C0001500008F94F0008F94F0008F94F0008DC
:104F8C00F94F0008F94F0008F94F0008F94F0008D5
:104F9C0001500008F94F0008F94F0008F94F0008BC
:104FAC00F94F0008F94F0008F94F0008F94F0008B5
:104FBC00015000080044025800480258CFFFFF007F
:104FCC00D7F8043108330121184600F0E9FC0346F8
:104FDC0087F817310FE0D7F8043128330121184630
:104FEC0000F090FD034687F8173104E0012387F8A1
:104FFC00173100E000BF97F81731002B0AD1BF4BD7
:10500C005B6D23F03801D7F804319B6FBB4A0B431F
:10501C00536503E097F8173187F81631D7F8043148
:10502C00D3E9002302F00203C7F8B0300023C7F81D
:10503C00B430D7E92C120B46134341D0D7F80431C6
:10504C005B6F052B24D801A252F823F0A550000861
:10505C007150000887500008A5500008A5500008A2
:10506C00A5500008D7F8043108330121184600F088
:10507C0097FC034687F817310FE0D7F80431283333
:10508C000121184600F03EFD034687F8173104E075
:10509C00012387F8173100E000BF97F81731002B78
:1050AC000AD1964B5B6D23F00701D7F804315B6F87
:1050BC00924A0B43536503E097F8173187F8163182
:1050CC00D7F80431D3E9002302F00403C7F8A83061
:1050DC000023C7F8AC30D7E92A120B46134344D04F
:1050EC00D7F80431D3F89030052B25D801A252F80B
:1050FC0023F000BF4D510008195100082F51000832
:10510C004D5100084D5100084D510008D7F804319D
:10511C0008330121184600F043FC034687F8173189
:10512C000FE0D7F8043128330121184600F0EAFCCF
:10513C00034687F8173104E0012387F8173100E0A4
:10514C0000BF97F81731002B0BD16C4B9B6D23F0E4
:10515C000701D7F80431D3F89030684A0B439365B4
:10516C0003E097F8173187F81631D7F80431D3E9F3
:10517C00002302F02003C7F8A0300023C7F8A430A6
:10518C00D7E928120B46134355D0D7F80431D3F87E
:10519C008C30B3F1A04F33D0B3F1A04F2CD8B3F176
:1051AC00804F2FD0B3F1804F26D8B3F1405F2BD076
:1051BC00B3F1405F20D8B3F1005F12D0B3F1005FC0
:1051CC001AD8002B22D0B3F1805F15D1D7F8043157
:1051DC0008330021184600F0E3FB034687F817312B
:1051EC0015E0D7F8043128330221184600F08AFC68
:1051FC00034687F817310AE0012387F8173106E0D8
:10520C0000BF04E000BF02E000BF00E000BF97F861
:10521C001731002B0BD1394B5B6D23F0E041D7F8E4
:10522C000431D3F88C30354A0B43536503E097F8BF
:10523C00173187F81631D7F80431D3E9002302F07F
:10524C004003C7F898300023C7F89C30D7E92612E2
:10525C000B46134358D0D7F80431D3F89830B3F534
:10526C00A05F33D0B3F5A05F2CD8B3F5805F2FD0FF
:10527C00B3F5805F26D8B3F5406F2BD0B3F5406FF4
:10528C0020D8B3F5006F12D0B3F5006F1AD8002BED
:10529C0022D0B3F5806F15D1D7F804310833002133
:1052AC00184600F07DFB034687F8173115E0D7F858
:1052BC00043128330221184600F024FC034687F8F9
:1052CC0017310AE0012387F8173106E000BF04E02C
:1052DC0000BF02E000BF00E000BF97F81731002BC1
:1052EC000ED1064B9B6D23F4E051D7F80431D3F863
:1052FC009830024A0B43936506E000BF0044025805
:10530C0097F8173187F81631D7F80431D3E9002311
:10531C0002F08003C7F890300023C7F89430D7E927
:10532C0024120B46134355D0D7F80431D3F89C30D4
:10533C00B3F5204F33D0B3F5204F2CD8B3F5004F35
:10534C002FD0B3F5004F26D8B3F5C04F2BD0B3F503
:10535C00C04F20D8B3F5804F12D0B3F5804F1AD878
:10536C00002B22D0B3F5005F15D1D7F804310833E8
:10537C000021184600F014FB034687F8173115E09E
:10538C00D7F8043128330221184600F0BBFB034642
:10539C0087F817310AE0012387F8173106E000BFC0
:1053AC0004E000BF02E000BF00E000BF97F8173137
:1053BC00002B0BD1A04B9B6D23F46041D7F804312B
:1053CC00D3F89C309C4A0B43936503E097F8173154
:1053DC0087F81631D7F80431D3E9002302F008031B
:1053EC00C7F888300023C7F88C30D7E922120B4657
:1053FC0013431ED0D7F80431D3F88030B3F5805F57
:10540C000CD1D7F8043128330221184600F07AFB6E
:10541C000346002B02D0012387F81631864B5B6DB7
:10542C0023F44051D7F80431D3F88030824A0B432F
:10543C005365D7F80431D3E9002302F01003C7F801
:10544C0080300023C7F88430D7E920120B46134371
:10545C001ED0D7F80431D3F89430B3F5807F0CD13B
:10546C00D7F8043128330221184600F04BFB0346D1
:10547C00002B02D0012387F816316F4B9B6D23F460
:10548C004071D7F80431D3F894306B4A0B439365D1
:10549C00D7F80431D3E9002302F40023BB670023BF
:1054AC00FB67D7E91E120B4613433ED0D7F80431E5
:1054BC00D3F8A030B3F5003F22D0B3F5003F1BD892
:1054CC00002B03D0B3F5803F0BD015E0D7F8043197
:1054DC0008330021184600F063FA034687F81731A9
:1054EC000FE0D7F8043128330221184600F00AFBEC
:1054FC00034687F8173104E0012387F8173100E0E1
:10550C0000BF97F81731002B0BD14B4B9B6D23F43D
:10551C004031D7F80431D3F8A030474A0B43936598
:10552C0003E097F8173187F81631D7F80431D3E92F
:10553C00002302F480233B6700237B67D7E91C120E
:10554C000B4613433BD0D7F80431D3F88430B3F572
:10555C00401F1FD0B3F5401F18D8B3F5801F03D0E0
:10556C00B3F5001F07D011E0334BDB6A324A43F42A
:10557C000033D3620FE0D7F80431283301211846E9
:10558C0000F0C0FA034687F8173104E0012387F8CE
:10559C00173100E000BF97F81731002B0BD1264BC9
:1055AC005B6D23F44011D7F80431D3F88430224AD0
:1055BC000B43536503E097F8173187F81631D7F88A
:1055CC000431D3E9002302F48033BB660023FB666D
:1055DC00D7E91A120B46134334D0D7F804311B6D9C
:1055EC00002B03D0B3F5803F07D011E0124BDB6AE0
:1055FC00114A43F40033D3620EE0D7F80431083378
:10560C000221184600F0CCF9034687F8173103E065
:10561C00012387F8173100BF97F81731002B0DD1F4
:10562C00054BDB6C23F48031D7F804311B6D024A37
:10563C000B43D36406E000BF0044025897F81731BF
:10564C0087F81631D7F80431D3E9002302F0005360
:10565C003B6600237B66D7E918120B4613430CD02C
:10566C00D7F8043128330221184600F04BFA0346D0
:10567C00002B02D0012387F81631D7F80431D3E977
:10568C00002302F40033BB650023FB65D7E9161237
:10569C000B46134336D0D7F80431DB6FB3F5407F9C
:1056AC0018D0B3F5407F11D8B3F5007F14D0B3F503
:1056BC00007F0BD8002B11D0B3F5807F06D1B74BF0
:1056CC00DB6AB64A43F40033D36208E0012387F85F
:1056DC00173104E000BF02E000BF00E000BF97F804
:1056EC001731002B0AD1AD4B5B6D23F44071D7F809
:1056FC000431DB6FA94A0B43536503E097F817316C
:10570C0087F81631D7F80431D3E9002302F480135B
:10571C003B6500237B65D7E914120B46134309D074
:10572C009E4B1B6D23F00041D7F804311B6F9B4A35
:10573C000B431365D7F80431D3E9002302F40013AB
:10574C00BB640023FB64D7E912120B46134309D048
:10575C00924B1B6D23F08071D7F804319B6E8F4AEE
:10576C000B431365D7F80431D3E9002302F08043CF
:10577C003B6400237B64D7E910120B4613430ED015
:10578C00864B1B69854A23F400431361834B1969CB
:10579C00D7F80431D3F8B430804A0B431361D7F8EF
:1057AC000431D3E9002302F00043BB630023FB6305
:1057BC00D7E90E120B46134309D0784BDB6C23F060
:1057CC004051D7F804315B6D744A0B43D364D7F85E
:1057DC000431D3E9002302F400033B6300237B6311
:1057EC00D7E90C120B4613430AD06C4B5B6D23F4B8
:1057FC004001D7F80431D3F88830684A0B4353651D
:10580C00D7F80431D3E900230021B96203F0010376
:10581C00FB62D7E90A120B46134311D0D7F80431B7
:10582C0008330021184600F0BBF8034687F81731FF
:10583C0097F81731002B03D097F8173187F81631EA
:10584C00D7F80431D3E900230021396203F00203B5
:10585C007B62D7E908120B46134311D0D7F80431F9
:10586C0008330121184600F09BF8034687F81731DE
:10587C0097F81731002B03D097F8173187F81631AA
:10588C00D7F80431D3E900230021B96103F00403F4
:10589C00FB61D7E906120B46134311D0D7F804313C
:1058AC0008330221184600F07BF8034687F81731BD
:1058BC0097F81731002B03D097F8173187F816316A
:1058CC00D7F80431D3E900230021396103F0080330
:1058DC007B61D7E904120B46134311D0D7F804317E
:1058EC0028330021184600F00DF9034687F81731CC
:1058FC0097F81731002B03D097F8173187F816312A
:10590C00D7F80431D3E900230021B96003F0100368
:10591C00FB60D7E902120B46134311D0D7F80431C0
:10592C0028330121184600F0EDF8034687F81731AB
:10593C0097F81731002B03D097F8173187F81631E9
:10594C00D7F80431D3E900230021396003F0200398
:10595C007B60D7E900120B46134311D0D7F8043102
:10596C0028330221184600F0CDF8034687F817318A
:10597C0097F81731002B03D097F8173187F81631A9
:10598C0097F81631002B01D1002300E001231846B3
:10599C0007F58C77BD46BDE8B08F00BF00440258B8
:1059AC0080B584B000AF786039600023FB73534B33
:1059BC009B6A03F00303032B01D1012399E04F4BA6
:1059CC001B684E4A23F080631360FBF711FFB8602D
:1059DC0008E0FBF70DFF0246BB68D31A022B01D976
:1059EC00032386E0454B1B6803F00063002BF0D1CA
:1059FC00424B9B6A23F47C327B681B681B033F4938
:105A0C0013438B627B685B68013BC3F308027B68C2
:105A1C009B68013B5B029BB21A437B68DB68013BD2
:105A2C001B0403F4FE031A437B681B69013B1B0632
:105A3C0003F0FE43314913438B63304BDB6A23F095
:105A4C00C0027B685B692D491343CB622B4BDB6A2D
:105A5C0023F020027B689B6928491343CB62274BB8
:105A6C00DB6A264A23F01003D362244BDA6B244BF7
:105A7C0013407A68D269D20020491343CB631F4B81
:105A8C00DB6A1E4A43F01003D3623B68002B06D13D
:105A9C001A4BDB6A194A43F40023D3620FE03B68CC
:105AAC00012B06D1154BDB6A144A43F48013D362E5
:105ABC0005E0124BDB6A114A43F40013D3620F4B1F
:105ACC001B680E4A43F080631360FBF791FEB860CD
