:020000040800F2
:1000000000000824756100083957000841570008AE
:100010005957000871570008895700080000000070
:10002000000000000000000000000000A195010891
:10003000A157000800000000F1970108AF57000821
:10004000C9610008C9610008C9610008C9610008E8
:10005000C9610008C9610008C9610008C9610008D8
:10006000C9610008C9610008C9610008C9610008C8
:10007000C9610008C9610008C9610008C9610008B8
:10008000C9610008C9610008C9610008C9570008B2
:10009000DD570008C9610008C9610008C96100088E
:1000A000C9610008C9610008C9610008C961000888
:1000B000C9610008C9610008C9610008C961000878
:1000C000C9610008C9610008C9610008C961000868
:1000D000C9610008C9610008C9610008C961000858
:1000E000C9610008C961000800000000C96100087A
:1000F000C9610008C9610008C9610008C961000838
:10010000C9610008F1570008C9610008C961000809
:10011000C9610008C9610008C9610008C961000817
:10012000C9610008C9610008C9610008C961000807
:10013000C9610008C9610008C9610008C9610008F7
:1001400000000000000000000000000000000000AF
:10015000C9610008C9610008C9610008C9610008D7
:10016000C9610008C9610008C9610008C9610008C7
:10017000C9610008C9610008C961000800000000E9
:10018000C9610008C9610008C9610008C9610008A7
:10019000C9610008C9610008C9610008C961000897
:1001A00005580008C961000819580008C96100080D
:1001B000C9610008C9610008C9610008C961000877
:1001C000C9610008C9610008C9610008C961000867
:1001D000C9610008C9610008C9610008C961000857
:1001E000C9610008C9610008C9610008C961000847
:1001F000C9610008C9610008C9610008C961000837
:10020000C9610008C9610008C9610008C961000826
:10021000C9610008C9610008C9610008C961000816
:10022000C9610008C9610008C96100080000000038
:10023000C9610008C961000800000000C961000828
:10024000C9610008C9610008C9610008C9610008E6
:10025000C9610008C9610008C9610008C9610008D6
:10026000C9610008C9610008C9610008C9610008C6
:10027000C9610008C9610008C961000800000000E8
:10028000C9610008C9610008C961000800000000D8
:0802900000000000C961000834
:1002A00010B5054C237833B9044B13B10448AFF3B0
:1002B00000800123237010BD2003002400000000F3
:1002C00084BF040808B5034B1BB103490348AFF3CF
:1002D000008008BD000000002403002484BF04083F
:1002E000034613F8012B002AFBD1181A0138704776
:1002F00001F0FF01102A2BDB10F0070F08D010F8D7
:10030000013B013A8B422DD010F0070F42B3F6D1DA
:10031000F0B441EA012141EA014122F007047FF0F3
:1003200000070023F0E80256083C85EA010586EA4A
:10033000010685FA47F5A3FA87F586FA47F6A5FA86
:1003400087F68EB9EED1F0BC01F0FF0102F0070292
:1003500032B110F8013B013A83EA010313B1F8D13D
:100360000020704701387047002D06BF354603381E
:10037000073815F0010F07D1013015F4807F02BF57
:10038000013015F4C03F0130F0BC0138704700BFA8
:1003900053B94AB9002908BF00281CBF4FF0FF31EC
:1003A0004FF0FF3000F088B9ADF1080C6DE904CED4
:1003B00000F006F8DDF804E0DDE9022304B0704740
:1003C0002DE9F047089D8E4604468846002B4AD109
:1003D0008A42174662D9B2FA82F64EB1C6F12003BC
:1003E00001FA06F820FA03F3B74043EA0808B440DC
:1003F0004FEA174E1FFA87FCB8FBFEF1230C0EFBE9
:10040000118843EA084301FB0CF29A4209D9FB1810
:1004100001F1FF3080F0EA809A4240F2E780023931
:100420003B449A1AA3B2B2FBFEF00EFB102243EA41
:10043000024300FB0CFC9C4509D9FB1800F1FF327C
:1004400080F0D6809C4540F2D3803B44023840EA9D
:100450000140A3EB0C0300211DB1F3400022C5E9CC
:100460000032BDE8F0878B4205D90DB1C5E9000126
:1004700000210846F5E7B3FA83F1002946D1734518
:1004800002D3824200F20581841A6EEB030201203E
:100490009046002DE5D0C5E90048E2E7002A00F0CB
:1004A0009080B2FA82F6002E40F0A4808A1A030CE3
:1004B0004FEA174E80B2BCB20121B2FBFEFC0EFB2C
:1004C0001C2243EA024304FB0CF29A4207D9FB18B0
:1004D0000CF1FF3802D29A4200F2E080C4469B1A27
:1004E000B3FBFEF20EFB123340EA034302FB04F4BB
:1004F0009C4207D9FB1802F1FF3002D29C4200F265
:10050000CA8002461B1B42EA0C40A5E7C1F1200647
:100510008B4022FA06F71F430EFA01F420FA06F385
:100520002EFA06FE4FEA1749234300FA01F81FFA94
:1005300087FCBEFBF9F01C0C09FB10EE44EA0E44EC
:1005400000FB0CFEA64502FA01F209D93C1900F1A4
:10055000FF3A80F09C80A64540F2998002383C44E6
:10056000A4EB0E041FFA83FEB4FBF9F309FB13445A
:100570004EEA044403FB0CFCA44508D93C1903F1E2
:10058000FF3E80F08280A4457FD9023B3C4443EA91
:100590000040A4EB0C04A0FB02EC64457346E1466A
:1005A00062D35FD05DB1B8EB030264EB090404FAD7
:1005B00006F622FA01F31E43CC40C5E9006400218F
:1005C0004FE7B1FBF2FC010C41EA0E4180B240EA78
:1005D00001423B4638463C46B846BE462026B1FB63
:1005E000F7F1A2EB080241EA0C4166E7014618E781
:1005F00010462CE7C6F120022EFA02F3B740B140B4
:1006000020FA02F24FEA174E0A43B3FBFEF8BCB2DF
:100610000EFB1833110C41EA034108FB04F9B0400A
:1006200089454FEA104380B23ED9791808F1FF3C62
:1006300001D289451FD8A1EB0901B1FBFEF909FBE5
:1006400004F80EFB191192B242EA0142424529D246
:10065000BA1809F1FF31C4D24245C2D2A9F1020150
:100660003A44BEE7F0459DD2BEEB02036CEB070CAB
:100670000138E14696E7A7EB09094944A8F1020CC5
:10068000B1FBFEF909FB04F8DBE773467FE7504650
:1006900066E70846FDE63B44023A33E7ACF1020C5C
:1006A0003B441CE749469CE7A1EB0901C446B1FB6A
:1006B000FEF909FB04F8C4E7704700BF80B500AF3E
:1006C0000D4B0E4A1A600C4B00221A710A4B002285
:1006D0005A71094B00225A61074B00229A61064B5E
:1006E00001221A62044805F0D1FF0346002B01D015
:1006F00004F018F800BF80BD3C030024004C0258F1
:1007000080B485B000AF78607B681B680B4A934269
:100710000ED10B4BD3F8E030094A43F40023C2F862
:10072000E030074BD3F8E03003F40023FB60FB68B4
:1007300000BF1437BD465DF8047B7047004C02587B
:100740000044025880B483B000AF78607B68002B0F
:1007500002D07B6812221A60034B18460C37BD4644
:100760005DF8047B704700BFE0E8040880B586B000
:1007700000AF78600023FB6007F10C031846FFF719
:10078000E1FF386100237B6117E07A6913465B0063
:100790001344DB001A463B6913445B687A689A424B
:1007A00008D17A6913465B001344DB001A463B69A3
:1007B000134407E07B6901337B61FB687A699A42E5
:1007C000E3D3002318461837BD4680BD80B400AF80
:1007D0004FF4A2631846BD465DF8047B704780B4B1
:1007E00000AF40F221531846BD465DF8047B7047C8
:1007F00080B584B000AF00233B603B461846FFF74E
:10080000A1FF78600023FB600023BB600EE0BA68A4
:1008100013465B001344DB001A467B6813449B6855
:10082000FA681343FB60BB680133BB603B68BA687E
:100830009A42ECD3FB6818461037BD4680BD0000D5
:1008400080B500AF194B1A4A1A60184B00225A6043
:10085000164B02229A60154B0022DA60134B0022DD
:100860005A64124B02229A64104B0022DA640F4B36
:1008700000221A650D4B00225A650C4B00229A6526
:100880000A4B0022DA65094805F0F2FF0346002B07
:1008900001D003F047FF0121044806F05DF903464B
:1008A000002B01D003F03EFF00BF80BD6003002499
:1008B0000010005280B584B000AF78607B681B6880
:1008C0000E4A934216D10E4BD3F8D4300C4A43F063
:1008D0001003C2F8D4300A4BD3F8D43003F010031D
:1008E000FB60FB68002209215A2005F022FE5A20F5
:1008F00005F039FE00BF1037BD4680BD0010005224
:100900000044025880B500AF2E4B2F4A1A602D4B81
:1009100000229A602B4B0022DA602A4B01221A74C3
:10092000284B00225A74274B00229A74254B06222A
:100930005A61244B0C229A61224B1E22DA61214B10
:100940000C221A621F4B01225A621E4B01229A622C
:100950001C4B0122DA621B4B01221A63194B002245
:100960005A63184B02229A63164B0022DA63154B26
:1009700020221A64134B04225A64124B00229A64F8
:10098000104B0422DA640F4B00221A650D4B04222F
:100990005A650C4B00229A650A4B0022DA65094B16
:1009A00008221A66074B00225A66064B04229A66F2
:1009B000044806F07FF90346002B01D003F0B2FE95
:1009C00000BF80BDC803002400A0004080B500AF78
:1009D0002E4B2F4A1A602D4B00229A602B4B00227F
:1009E000DA602A4B01221A74284B00225A74274BD2
:1009F00000229A74254B06225A61244B0C229A61DC
:100A0000224B1E22DA61214B0C221A621F4B01225B
:100A10005A621E4B01229A621C4B0122DA621B4B66
:100A200001221A63194BA2225A63184B02229A63BD
:100A3000164B0022DA63154B20221A64134B042252
:100A40005A64124B00229A64104B0422DA640F4B52
:100A500000221A650D4B04225A650C4B00229A6540
:100A60000A4B0022DA65094B00221A66074B002266
:100A70005A66064B04229A66044806F01BF90346A0
:100A8000002B01D003F04EFE00BF80BD680400249F
:100A900000A4004080B5BCB000AF786007F1DC0373
:100AA00000221A605A609A60DA601A6107F118032E
:100AB000C022002118464AF082FA7B681B686F4A00
:100AC000934269D14FF400424FF00003C7E9062377
:100AD00020233B6281237B620223BB620223FB62F1
:100AE00006233B6340237B630023BB630023FB633C
:100AF0004FF00053C7F8883007F1180318460AF082
:100B000019FC0346002B01D003F00CFE5C4B1B6864
:100B100001335B4A13605A4B1B68012B0ED1594BB2
:100B2000D3F8EC30574A43F48073C2F8EC30554B9D
:100B3000D3F8EC3003F480737B617B69514BD3F8BD
:100B4000E030504A43F08003C2F8E0304D4BD3F818
:100B5000E03003F080033B613B694FF4C043C7F8CA
:100B6000DC300223C7F8E0300023C7F8E43000236C
:100B7000C7F8E8300923C7F8EC3007F1DC03194661
:100B8000414807F095FA00220521132005F0D1FC19
:100B9000132005F0E8FC6DE07B681B683B4A93423C
:100BA00068D14FF400424FF00003C7E90623202329
:100BB0003B6281237B620223BB620223FB6206232A
:100BC0003B6340237B630023BB630023FB634FF045
:100BD0000053C7F8883007F1180318460AF0AAFB3B
:100BE0000346002B01D003F09DFD254B1B6801330C
:100BF000234A1360224B1B68012B0ED1214BD3F8E3
:100C0000EC30204A43F48073C2F8EC301D4BD3F82B
:100C1000EC3003F48073FB60FB681A4BD3F8E030D0
:100C2000184A43F00203C2F8E030164BD3F8E03024
:100C300003F00203BB60BB684FF44053C7F8DC30DD
:100C40000223C7F8E0300023C7F8E4300023C7F8D8
:100C5000E8300923C7F8EC3007F1DC0319460C48EB
:100C600007F026FA00220521142005F062FC14206A
:100C700005F079FC00BFF037BD4680BD00A0004004
:100C80000805002400440258001C025800A400403B
:100C90000004025880B588B000AF3B1D00221A60E6
:100CA0005A609A60DA601A615A619A61214B224A4D
:100CB0001A60204B00225A601E4B00229A601D4B86
:100CC0000422DA601B4B10221A611A4B40225A612F
:100CD000184B4FF4C0729A61164B0022DA61154B23
:100CE0004FF400621A62134B4FF480525A62114B58
:100CF0004FF400529A6202237B600523BB600323FA
:100D0000FB6004233B6102237B610223BB6102235E
:100D1000FB613B1D194607480EF0DEFF0346002B22
:100D200001D003F0FFFC034800F008F800BF2037B3
:100D3000BD4680BD0C0500244041005280B588B0FE
:100D400000AF786007F10C0300221A605A609A60C5
:100D5000DA600023FB610123FB6010233B61012368
:100D60007B610023BB6107F10C034FF6FF7219464C
:100D700078680EF0EDFF0346002B01D003F0D2FCA3
:100D80000A2005F0B5FA0223FB6010233B61012322
:100D90007B610023BB6107F10C034FF6FF7219461C
:100DA00078680EF0D5FF0346002B01D003F0BAFCA3
:100DB0000323FB6010233B6108237B610023BB619D
:100DC00007F10C034FF6FF72194678680EF0C0FF6A
:100DD0000346002B01D003F0A5FC40F23323FB6156
:100DE0000423FB6010233B6101237B61FB69BB6132
:100DF00007F10C034FF6FF72194678680EF0A8FF52
:100E00000346002B01D003F08DFC40F29631786848
:100E10000EF0D3FF0346002B01D003F083FC00BF8C
:100E20002037BD4680BD000080B5B8B000AF07F1E7
:100E3000CC0300221A605A609A60DA601A61514B42
:100E40001B68002B40F099804E4B01221A6007F17D
:100E50000803C022002118464AF0B1F84FF0807212
:100E60004FF00003C7E9022300233B6507F10803A5
:100E700018460AF05FFA0346002B01D003F052FC3B
:100E8000414BD3F8D430404A43F48053C2F8D430B5
:100E90003D4BD3F8D43003F480537B607B684FF62E
:100EA0003F03C7F8CC300223C7F8D0300023C7F87F
:100EB000D4300323C7F8D8300C23C7F8DC3007F14F
:100EC000CC031946314807F0F3F80D23C7F8CC30AE
:100ED0000223C7F8D0300023C7F8D4300323C7F863
:100EE000D8300C23C7F8DC3007F1CC03194628486A
:100EF00007F0DEF848F23313C7F8CC300223C7F806
:100F0000D0300023C7F8D4300323C7F8D8300C23DF
:100F1000C7F8DC3007F1CC0319461E4807F0C8F8C3
:100F20004FF68373C7F8CC300223C7F8D0300023C4
:100F3000C7F8D4300323C7F8D8300C23C7F8DC3007
:100F400007F1CC031946144807F0B2F84CF20373CA
:100F5000C7F8CC300223C7F8D0300023C7F8D4300C
:100F60000323C7F8D8300C23C7F8DC3007F1CC03D3
:100F700019460A4807F09CF800E000BFE037BD467C
:100F800080BD00BF400500240044025800140258F0
:100F9000000802580018025800100258000C0258AD
:100FA00080B582B000AF7860FFF73EFF00BF083722
:100FB000BD4680BD80B400AF034B1B681846BD46DC
:100FC0005DF8047B704700BFC005002480B400AF0B
:100FD000034B1B681846BD465DF8047B704700BF95
:100FE000C405002480B500AF00223821202015F070
:100FF00011FC0346454A136000223021102015F0F1
:1010000009FC0346424A136000227821102015F0A3
:1010100001FC03463F4A13603F4A00213F4815F058
:1010200008FA03463E4A13603E4A00213E4815F046
:1010300000FA03463D4A13603D4A00213D4815F041
:10104000F8F903463C4A13603C4A00213C4815F03D
:10105000F0F903463B4A13603B4A00213B4815F038
:10106000E8F903463A4A1360284B1B68002B01D06D
:10107000384B00E0384B184603F03CFD244B1B680E
:10108000002B01D0354B00E0354B184603F032FD04
:10109000204B1B68002B01D0324B00E0324B18462E
:1010A00003F028FD1E4B1B68002B01D02F4B00E0E6
:1010B0002F4B184603F01EFD1C4B1B68002B01D064
:1010C0002C4B00E02C4B184603F014FD1A4B1B6808
:1010D000002B01D0294B00E0294B184603F00AFDF4
:1010E000184B1B68002B01D0264B00E0264B1846FE
:1010F00003F000FD164B1B68002B01D0234B00E0D2
:10110000234B184603F0F6FC00BF80BDFC0500240D
:10111000000600240406002490EA04089511000843
:1011200008060024B4EA0408151200080C0600247E
:10113000D8EA04086D12000810060024FCEA04082E
:10114000839D01081406002420EB0408D91200082E
:10115000180600246CC4040888C40408A8C4040841
:10116000C4C40408E4C4040800C5040820C5040875
:1011700040C5040864C5040884C50408A8C504085B
:10118000C4C50408E4C5040804C6040828C6040845
:1011900040C6040880B584B000AF78600023FB60CF
:1011A000164B0C221A7001220121154807F048F94C
:1011B000144803F09FFC144803F09CFC134B1B786D
:1011C000002B07D104F0DEFC104B01221A701048EE
:1011D00003F090FC04F008FD05F07EF80246FB6881
:1011E000D31AB3F57A7F04D305F076F8F86003F0EC
:1011F00095FD052015F0AFF9E0E700BF2C1900249C
:10120000000002585CC604087CC60408BC05002423
:1012100098C6040880B590B000AF78600F4B0122EB
:101220001A700F4803F066FC01F09CF90D4803F0BA
:1012300061FC0D4B186807F108014FF47A73002226
:1012400015F0BCFB0346002BF3D107F10803184649
:1012500001F008FC01F008FAEBE700BFC805002424
:10126000B4C60408D4C60408FC05002480B58EB0BA
:1012700000AF7860144803F03DFC144B186807F188
:1012800008014FF0FF33002215F098FB0346002BB6
:10129000F3D102E0012015F05EF90D4806F06EF979
:1012A0000346002BF6D007F1080303F1240207F1EF
:1012B00008031946064805F07CFF0346002BDCD0E6
:1012C000044803F017FCD8E7FCC604080006002415
:1012D000C803002418C7040880B5A0B000AF786028
:1012E000104803F007FC4FF4FA6015F034F900F0F1
:1012F00041F80D4B186807F108014FF47A7300228A
:1013000015F05CFB0346002B05D107F108031846D6
:1013100000F0B2FBEDE7054B1B78002BE9D100F0A4
:101320008DF9E6E738C7040804060024E705002421
:1013300080B594B002AF78600B46FB707B68002BE1
:1013400001D07B6800E0094BFA7807F108000092B1
:10135000074A402149F0AAFD07F10803184603F0A7
:10136000C9FB00BF4837BD4680BD00BF50C7040859
:1013700054C7040880B500AF00F060F900BF80BD1D
:1013800080B582B000AF144B1B78002B01D0012335
:101390001EE001221149124814F01AF90346FB71AC
:1013A000FB79002B0DD00F4B00221A70FB791946E8
:1013B0000D48FFF7BDFF4FF47A7015F0CCF800230D
:1013C00006E0084B01221A70034B01221A70012318
:1013D00018460837BD4680BDE6050024B820002425
:1013E000BC200024BC19002468C7040880B497B04E
:1013F00000AFF860B9607A603B60002387F857302F
:10140000002387F85630002387F85530FB68002BFF
:1014100014D07B68002B11D03B68002B0ED03B6EA4
:10142000002B0BD07B6E002B08D0BB6E002B05D0A1
:10143000FB6E002B02D03B6F002B01D10023F6E0A6
:101440003B6F1B687B643B6F1B68BB6200233B6583
:10145000A5E0FA683B6D13441B78402B05D9FA6868
:101460003B6D13441B785A2B0BD9FA683B6D134420
:101470001B78602B09D9FA683B6D13441B787A2BD3
:1014800003D8012387F855304AE097F85730062BE8
:1014900046D8FA683B6D13441B782F2B40D9FA6865
:1014A0003B6D13441B78392B3AD80023FB64FA6C4C
:1014B00013469B0013445B001946FA683B6D1344C6
:1014C0001B780B44303BFB643B6D01333B6502E012
:1014D0003B6D01333B653A6DBB689A4205D2FA68B1
:1014E0003B6D13441B78002BF2D03A6DBB689A42D7
:1014F0000BD2FA683B6D13441B782F2B05D9FA6881
:101500003B6D13441B78392BD1D997F857305A1CAF
:1015100087F857209B0058333B44FA6C43F82C2C37
:10152000FA683B6D13441B780A2B05D0FA683B6DB3
:1015300013441B780D2B2FD197F85530002B22D157
:1015400097F85730052B1ED9002387F84B3012E04F
:1015500097F84B3097F84B109B0058333B4453F8A7
:101560002C2C8B0058333B4443F8482C97F84B30D5
:10157000013387F84B3097F84B30062BE8D997F8B2
:10158000573087F856303B6F1B687B64002387F821
:101590005730002387F855303B6D01333B653A6D7A
:1015A000BB689A42FFF455AF97F85530002B22D113
:1015B00097F85730052B1ED9002387F84A3012E0E0
:1015C00097F84A3097F84A109B0058333B4453F839
:1015D0002C2C8B0058333B4443F8482C97F84A3066
:1015E000013387F84A3097F84A30062BE8D997F844
:1015F000573087F8563097F85630052B01D800231E
:1016000015E03A697B681A607A693B681A60BA69C2
:101610003B6E1A60FA697B6E1A603A6ABB6E1A609A
:101620007A6AFB6E1A60BA6A3B6F1A600123184629
:101630005C37BD465DF8047B7047000090B5ADF5A2
:101640005B7D06AF07F55473A3F54D7300221A6056
:1016500007F55473A3F5547300221A60FFF790FE48
:101660000346002B00F0BC8007F59073012260490F
:10167000184614F00DF8034687F84F3397F84F33A8
:10168000002B0BD097F84F33042B40F0AB8000F0C9
:10169000B9F803461A46574B1A70A3E007F11C032A
:1016A00007F1200107F590704FF4807214F0AAF949
:1016B000034687F84F3397F84F33002B40F08A806A
:1016C00007F55473A3F54D73196807F1140407F176
:1016D000180207F120003B4604933B1D039307F1DA
:1016E0000803029307F10C03019307F11003009321
:1016F0002346FFF77BFE0346002B6BD007F55473A0
:10170000A3F54E731B68002B01D0012200E00022DC
:10171000394B1A7007F55473A3F554731A68374B95
:10172000A3FB02139B094FF47A7101FB03F3D31A55
:101730009AB2314B5A8007F55473A3F54F731B6867
:101740009BB21946002001F0E7FB03461A462C4BDA
:101750001A8007F55473A3F550731B689BB21946A2
:10176000012001F0D9FB03461A46254B5A8007F5A4
:101770005473A3F551731B689BB21946022001F004
:10178000CBFB03461A461E4B9A8007F55473A3F50C
:1017900052731B689BB21946032001F0BDFB034640
:1017A0001A46174BDA8007F55473A3F553731B6879
:1017B0009BB21946042001F0AFFB03461A46104BBA
:1017C0001A8107F59073184614F0B7FC094B0122F3
:1017D0001A7008E007F59073184614F0AEFC02E0AA
:1017E00000BF00E000BF07F55577BD4690BD00BFC4
:1017F00074C70408E705002404000024D34D6210D8
:10180000DC050024F0B5ADF53D7D06AF07F5367378
:10181000A3F50E7300221A60FFF7B2FD0346002BFA
:1018200001D1002384E0454B1B78DBB29C46444B3E
:101830001B889BB21A46424B5B889BB21946404BB1
:101840009B889BB21C463E4BDB889BB21D463C4BA3
:101850001B899BB21E46394B5B889BB23846059369
:10186000049603950294019100926346354AA021A3
:1018700049F01CFB0346C7F8D432D7F8D432002B0A
:1018800003D0D7F8D4329F2B01D9002350E007F1C1
:10189000A4030A222C49184613F0FAFE034687F8DF
:1018A000D33297F8D332002B07D097F8D3321946AA
:1018B0002648FFF73DFD00233AE007F1A003394633
:1018C00007F1A400D7F8D42214F00AFA034687F8E7
:1018D000D33297F8D332002B08D107F53673A3F52E
:1018E0000E731B68D7F8D4229A420CD097F8D332E3
:1018F00019461748FFF71CFD07F1A403184614F01A
:101900001CFC002314E007F1A403184614F015FC96
:10191000034687F8D33297F8D332002B07D097F8D5
:10192000D33219460B48FFF703FD002300E00123E3
:10193000184607F53777BD46F0BD00BF0400002408
:10194000DC05002484C7040874C7040818C8040808
:101950002CC8040840C8040880B58CB000AF78607B
:101960007B68002B01D1092372E03B4B5B889BB263
:101970003A4AA2FB031292094FF47A7101FB02F278
:101980009B1AFB850023BB8558E0FB8D07F11C00EB
:10199000334A0D2149F08AFA07F11C0307F10800C8
:1019A000304A122149F082FA07F10803062219464B
:1019B000786813F06DFE034687F82B3097F82B30CC
:1019C000002B1DD107F11C03274A0D21274849F0A0
:1019D0006DFA07F10803244A1221254849F066FAF6
:1019E000FB8D5A1C1D4BA3FB02139B094FF47A710C
:1019F00001FB03F3D31A9AB2174B5A80002327E056
:101A000097F82B30082B0AD01A4A0D21174849F0B5
:101A10004DFA174B00221A7097F82B3018E0FB8D07
:101A20005A1C0E4BA3FB02139B094FF47A7101FB66
:101A300003F3D31AFB85BB8D0133BB85BB8DB3F597
:101A40007A7FA2D30B4A0D21084849F02FFA0723C9
:101A500018463037BD4680BD04000024D34D6210C7
:101A600054C8040864C804086CC8040808000024AA
:101A7000E805002470C80408F0B5ADF2C45D32AFCB
:101A800007F59F63A3F2444318600023C7F8F434BA
:101A900007F59F63A3F244431B68002B00F0888383
:101AA000774B1B78002B0AD107F59F63A3F24443C1
:101AB0001B6893F87530002B01D1FFF7BFFD07F5C8
:101AC0009F63A3F244431B6893F87530002B02D048
:101AD000FFF798FE6DE307F59F63A3F244431B688D
:101AE00093F87430002B06D0664B00221A70664BB8
:101AF00000221A705DE3654B1B78DBB2002B06D128
:101B0000614B00221A70624B00221A7051E35D4B48
:101B10001B78002B0CD15E4B1B78DBB2002B07D15E
:101B20005C4B1B78002B03D1574B00221A7040E30B
:101B3000594B1B78002B08D1FFF722FC0346002BE2
:101B400003D1514B00221A7033E34E4B1B78002B0C
:101B50000AD14F4B1B78DBB2002B05D1494B012238
:101B60001A70494B01221A70464B1B78002B40F02B
:101B7000A78007F1BC031846FFF7EEFE034687F87F
:101B8000F33497F8F334002B0CD03F4B00221A703B
:101B900097F8F33419464148FFF7CAFB3E4B002241
:101BA0001A7006E307F59F63A3F5037300221A601A
:101BB00007F53B7307F1BC000822394914F090F88F
:101BC000034687F8F33497F8F334002B06D107F572
:101BD0009F63A3F503731B68082B19D02A4B0022BF
:101BE0001A7097F8F33419462E48FFF7A1FB07F156
:101BF000BC03184614F0A1FA2B4A0D212B4849F0DA
:101C000055F9244B00221A70234B00221A70D0E29F
:101C100007F1BC03184614F090FA034687F8F33432
:101C200097F8F334002B17D0174B00221A7097F84F
:101C3000F33419461E48FFF77BFB124B00221A7043
:101C4000194A0D21194849F031F9124B00221A7036
:101C5000114B00221A70ACE20A4B01221A700C4B95
:101C600000221A70FFF7CEFD03461A46044B1A7085
:101C7000064B1B78DBB2002B1CD001221BE000BFFF
:101C8000E70500241C060024D405002404000024D9
:101C9000D5050024E8050024E605002478C80408DA
:101CA00044EB040888C8040870C80408080000242D
:101CB0009CC804080022014B1A7001E0D4050024DE
:101CC00007F59F63A3F244431B681B68C7F8B03055
:101CD00007F59F63A3F244431B689B88C7F8AC30A9
:101CE00007F59F63A3F244431B689B79C7F8A830AC
:101CF00007F59F63A3F244431B68DB79C7F8A43060
:101D000007F59F63A3F244431B681B89C7F8A03003
:101D100007F59F63A3F244431B685B89C7F89C30B7
:101D200007F59F63A3F244431B689B89C7F898306B
:101D300007F59F63A3F244431B68DB89C7F894301F
:101D400007F59F63A3F244431B681B7CC7F89030E0
:101D500007F59F63A3F244431B685B7CC7F88C3094
:101D600007F59F63A3F244431B689B7CC7F8883048
:101D700007F59F63A3F244431B68DB7CC7F88430FC
:101D800007F59F63A3F244431B689B8AC7F8803022
:101D900007F59F63A3F244431B689B7DFB6707F530
:101DA0009F63A3F244431B681B8BBB6707F59F63CC
:101DB000A3F244431B685B8B7B6707F59F63A3F229
:101DC00044431B689B8B3B6707F59F63A3F2444327
:101DD0001B68DB8BFB6607F59F63A3F244431B681C
:101DE0001B8CBB6607F59F63A3F244431B685B8CA7
:101DF0007B6607F59F63A3F244431B689B8C3B669D
:101E000007F59F63A3F244431B68DB8CFB6507F572
:101E10009F63A3F244431B681B8DBB6507F59F635B
:101E2000A3F244431B685B8D7B6507F59F63A3F2B8
:101E300044431B68B3F92C303B6507F59F63A3F25D
:101E400044431B68B3F92E30FB6407F59F63A3F28C
:101E500044431B68B3F93030BB6407F59F63A3F2BA
:101E600044431B68B3F932307B6407F59F63A3F2E8
:101E700044431B68B3F934303B6407F59F63A3F216
:101E800044431B68B3F93630FB6307F59F63A3F245
:101E900044431B68B3F93830BB6307F59F63A3F273
:101EA00044431B68B3F93A307B6307F59F63A3F2A1
:101EB00044431B6893F83C303B6307F59F63A3F2F0
:101EC00044431B6893F83D30FB6207F59F63A3F220
:101ED00044431B6893F83E30BB6207F59F63A3F24F
:101EE00044431B68B3F840307B6207F59F63A3F25D
:101EF00044431B68B3F942303B6207F59F63A3F28A
:101F000044431B68B3F94430FB6107F59F63A3F2B8
:101F100044431B68B3F94630BB6107F59F63A3F2E6
:101F200044431B689A6C7A6107F59F63A3F24443AC
:101F30001B68D96C396107F59F63A3F244431B68A2
:101F4000186DF86007F59F63A3F244431B68B3F86C
:101F50005430BB6007F59F63A3F244431B68B3F89A
:101F600056307B6007F59F63A3F244431B68986D6E
:101F700007F59F63A3F244431B6893F85C301E4649
:101F800007F59F63A3F244431B6893F85D301C463A
:101F900007F59F63A3F244431B68B3F85E3019460C
:101FA00007F59F63A3F244431B681A6E07F59F630E
:101FB000A3F244431B685B6E07F53C7530932F9288
:101FC0002E912D942C962B907C682A94BC68299491
:101FD000F8682890396927917A692692BA6925921A
:101FE000FA6924923A6A23927A6A2292BA6A219210
:101FF000FA6A20923A6B1F927A6B1E92BA6B1D920C
:10200000FA6B1C923A6C1B927A6C1A92BA6C199207
:10201000FA6C18923A6D17927A6D1692BA6D159203
:10202000FA6D14923A6E13927A6E1292BA6E1192FF
:10203000FA6E10923A6F0F927A6F0E92BA6F0D92FB
:10204000FA6F0C92D7F880200B92D7F884200A926E
:10205000D7F888200992D7F88C200892D7F89020DA
:102060000792D7F894200692D7F898200592D7F8CF
:102070009C200492D7F8A0200392D7F8A4200292C3
:10208000D7F8A8200192D7F8AC200092D7F8B0304A
:102090004A4A4FF40071284648F008FF0346C7F843
:1020A000F434D7F8F434002B04D0D7F8F434B3F573
:1020B000007F03D3424802F01DFD7AE007F59F63DD
:1020C000A3F5047300221A6007F1BC0332223D49D4
:1020D000184613F0DDFA034687F8F33497F8F33423
:1020E000002B0FD0384B00221A7097F8F3341946A2
:1020F0003648FFF71DF9364B00221A70354B002287
:102100001A7056E007F53A7307F53C7107F1BC0009
:10211000D7F8F42413F0E4FD034687F8F33497F876
:10212000F334002B08D107F59F63A3F504731B68F4
:10213000D7F8F4249A4214D0234B00221A7097F84F
:10214000F33419462448FFF7F3F807F1BC031846A7
:1021500013F0F3FF1E4B00221A701E4B00221A7060
:1021600027E007F1BC03184613F0E7FF034687F8A2
:10217000F33497F8F334002B0FD0134B00221A706E
:1021800097F8F33419461548FFF7D2F8104B0022A0
:102190001A70104B00221A700BE0114B1B78DBB247
:1021A000002B01D0012200E00022074B1A7000E052
:1021B00000BF07F2FC47BD46F0BD00BFB0C8040831
:1021C00050C90408E8050024D405002470C9040897
:1021D0001C060024E605002488C9040898C90408E0
:1021E0000400002480B483B000AF78607B681B7863
:1021F0001AB27B6801331B781BB21B021BB213435C
:102200001BB29BB218460C37BD465DF8047B704785
:1022100080B483B000AF78607B681B781BB21B0270
:102220001AB27B6801331B781BB213431BB29BB2FB
:1022300018460C37BD465DF8047B704780B582B008
:1022400000AF78607868FFF7CDFF03461BB21846F1
:102250000837BD4680BD80B582B000AF7860786831
:10226000FFF7D6FF03461BB218460837BD4680BDB0
:1022700080B483B000AF78607B681B781A467B68B7
:1022800001331B781B021A437B6802331B781B0443
:102290001A437B6803331B781B06134318460C371D
:1022A000BD465DF8047B704780B582B000AF7860B2
:1022B0007868FFF7DDFF034618460837BD4680BD46
:1022C00080B58AB000AFF860B9607A603B600023E7
:1022D000BB6100237B6100237B6200233B62002300
:1022E000FB77FB68002B05D0BB68002B02D07B6816
:1022F000002B01D1002310E1BB689B7A1A463B6892
:10230000934205D3BB68DB7A1A463B68934201D9F6
:10231000002302E1BB685B68BA68127A1344682B39
:1023200001D90023F9E0FB68BB61BB685B68BA694F
:1023300013447B61BB685B7B072B00F2B28001A278
:1023400052F823F06523000885230008B72300080E
:10235000DD230008032400082D240008572400086A
:102360007B240008BB685B7A01333A689A4201D249
:102370000023D2E0BB685B7A1A467B6813441B7863
:102380007B6290E0BB685B7A01333A689A4201D283
:102390000023C2E0BB685B7A1A467B6813441A7854
:1023A000BB681B7B1340DBB2002B01D0012300E094
:1023B00000237B6277E0BB685B7A02333A689A421B
:1023C00001D20023A9E0BB685B7A1A467B681344FC
:1023D0001846FFF707FF03467B6264E0BB685B7A41
:1023E00002333A689A4201D2002396E0BB685B7AD6
:1023F0001A467B6813441846FFF70AFF03467B62C0
:1024000051E0BB685B7A02333A689A4201D20023FA
:1024100083E0BB685B7A1A467B6813441846FFF773
:102420000DFF03463B620123FB773CE0BB685B7A10
:1024300002333A689A4201D200236EE0BB685B7AAD
:102440001A467B6813441846FFF705FF03463B62B4
:102450000123FB7727E0BB685B7A04333A689A4232
:1024600001D2002359E0BB685B7A1A467B681344AB
:102470001846FFF7FDFE786215E0BB685B7A04330F
:102480003A689A4201D2002347E0BB685B7A1A4659
:102490007B6813441846FFF707FF38620123FB7778
:1024A00001E0002339E0FB7F002B1AD0BB681B7AC8
:1024B000042B10D0042B12DC012B02D0022B05D0F0
:1024C0000DE03B6A5AB27B691A7025E03B6A1AB28A
:1024D0007B691A8020E07B693A6A1A601CE000235D
:1024E0001BE0BB681B7A042B10D0042B12DC012BE1
:1024F00002D0022B05D00DE07B6ADAB27B691A703C
:102500000AE07B6A9AB27B691A8005E07B697A6A85
:102510001A6001E0002300E0012318462837BD4679
:1025200080BD00BF80B500AF68220021084848F098
:1025300046FD084B00221A60074B00221A60074B29
:1025400000221A70064B00221A6000BF80BD00BF37
:1025500044050024AC050024B0050024B405002483
:10256000B805002480B500AF094B00221A70094855
:1025700000F016F8084800F013F8FFF7D3FF044BFB
:1025800001221A70054802F0B5FA00BF80BD00BFF5
:10259000C9050024C803002468040024A8C904084D
:1025A00080B594B000AF786007F1280320220021A5
:1025B000184648F004FD07F10803202200211846C0
:1025C00048F0FDFCFEF702F9F864FEF708F9B8647C
:1025D0007B68002B01D102F0A5F80023BB6000232B
:1025E000FB6002233B6101237B614FF49073BB616D
:1025F00040F2FF73FB6107F108031946786804F0A5
:1026000037FD0346002B01D002F08CF80023BB629B
:102610000123FB6200233B6301237B63FB6CBB63F1
:10262000BB6CFB6307F128031946786804F020FDB2
:102630000346002B01D002F075F8786804F08EFD97
:102640000346002B01D002F06DF8002201217868CA
:1026500004F0A6FF0346002B01D002F063F800BF90
:102660005037BD4680BD000080B58EB000AF03E09E
:102670003B46184600F0F6F9074B18683946002328
:10268000002214F09BF90346002BF1D000BF00BFDD
:102690003837BD4680BD00BFFC05002480B588B03A
:1026A00000AFF860B9607A603B600023FB610023F3
:1026B0007B61FB68002B05D0BB68002B02D07B68D8
:1026C000002B01D1002355E02C4B1B6801332B4A12
:1026D0001360BFF35F8F00BF0023BB6111E0FB6895
:1026E0001A69BB691B01D1187B68BA682448FFF7D7
:1026F000E7FD03461A46FB691344FB61BB690133DE
:10270000BB61FB685B69BA699A42E8D3FB69002B3D
:1027100009D1BFF35F8F00BF184B1B680133174A05
:102720001360002326E0FB689B687B61154B1A68E9
:102730007B691343134A1360134B01221A70134B26
:102740001B680133114A1360FEF752F802460D4B25
:102750001B689A4202D10B4B00221A60BFF35F8FB5
:1027600000BF064B1B680133044A1360386800F051
:10277000A1F8012318462037BD4680BDAC050024D2
:1027800044050024B8050024B4050024B005002445
:1027900080B5A0B000AF7860396000237B6700236C
:1027A000FB670023BB677B68002B04D0224B1B78A0
:1027B000DBB2002B01D100233AE0204B1B687B6782
:1027C0007B6F03F00103002B14D1BFF35F8F00BFB9
:1027D0001B4B1B68BB671B4A07F10C0311466822A1
:1027E000184648F0E0FCBFF35F8F00BF134B1B6837
:1027F000FB6700E000BF7A6FFB6F9A42DDD1FB6F91
:1028000003F00103002BD8D1BB6F002B01D10023B3
:102810000EE07B68184607F10C036822194648F061
:10282000C2FC3B68002B02D03B68BA6F1A600123E0
:1028300018468037BD4680BDB4050024AC05002491
:10284000B00500244405002480B483B000AF786054
:102850007B68082B26D801A252F823F081280008B3
:1028600085280008892800088D280008912800087C
:1028700095280008992800089D280008A12800082C
:10288000002310E001230EE002230CE003230AE002
:10289000042308E0052306E0062304E0072302E002
:1028A000082300E0002318460C37BD465DF8047B82
:1028B000704700BF80B5A2B000AF786007F10C038D
:1028C00078220021184648F07AFB03F005FDC7F88E
:1028D000840007F10C0303F1680207F10C031146B1
:1028E0001846FFF755FF0346002B48D0D7F8843031
:1028F000BB677B68FB67002387F88030234B1B682E
:10290000002B3FD0224B1B78DBB2002B3AD0214B5F
:102910001B78DBB2002B08D11F4B1B78DBB2002BDE
:1029200003D11E4B1B78002B2CD01D4B1B68D7F8F6
:102930008420D31AC72B24D9144B1B68184614F0D3
:102940009BF80346002B1CD1104B186807F10C01B3
:102950000023002213F0D2FF0346002B09D1104AB6
:10296000D7F8843013600F4B1B6801330D4A136096
:1029700008E00D4B1B6801330B4A136002E000BFF7
:1029800000E000BF8837BD4680BD00BF04060024BC
:1029900004000024D4050024D5050024E805002403
:1029A00020060024D0050024CC05002480B59EB06C
:1029B00000AF3B4678220021184648F000FB012377
:1029C00087F874300E4B1B68002B14D00C4B1B681F
:1029D000184614F071F80A4B186839460023002293
:1029E00013F08CFF0346002B06D0064B1B68013307
:1029F000044A136000E000BF7837BD4680BD00BFC9
:102A000004060024CC05002480B59EB000AF3B46F0
:102A100078220021184648F0D2FA012387F8753051
:102A20000E4B1B68002B14D00C4B1B68184614F07F
:102A300043F80A4B186839460023002213F05EFF62
:102A40000346002B06D0064B1B680133044A136073
:102A500000E000BF7837BD4680BD00BF04060024FB
:102A6000CC05002480B586B000AF786000237B6180
:102A70007B68002B3AD007F108031946786800F00C
:102A80009DF80346002B05D007F10803184600F017
:102A900035F92CE07B681B681846FDF767FE786106
:102AA0007B685B68002B22D17B689B68002B1ED162
:102AB0007B69002B1BD07B6893F830207B691B7BE4
:102AC0009A4214D37B6893F830207B695B7B9A42EF
:102AD0000DD87B6803F128017B6893F830301A46E3
:102AE0007B681B687869FFF7D9FD00E000BF1837E5
:102AF000BD4680BD80B590B000AF786039607B681E
:102B0000002B4BD07B681B68274A934204D07B681C
:102B10001B68264A934241D13B6803F00103002B16
:102B20003CD033E007F1080338220021184648F072
:102B300046FA07F10803283307F1080240217868B4
:102B400004F092FB0346002B2AD17B691846FFF75D
:102B50007BFE0346DBB287F8383003F0BDFB03464B
:102B6000FB63134B1B680133114A1360114B186848
:102B700007F108010023002213F0C0FE0346002BDA
:102B800004D00D4B1B6801330B4A13604021786859
:102B900004F0D6FC0346002BC4D102E000BF00E0E5
:102BA00000BF4037BD4680BD00A0004000A40040EB
:102BB000C0050024FC050024C405002480B483B0B3
:102BC00000AF786039607B68002B02D03B68002B37
:102BD00001D1002332E07B681B68B3F5907F04D1FC
:102BE0007B6893F83030012B01D8002326E03B6846
:102BF00000221A707B6893F828203B685A707B6823
:102C000093F829301A463B685A807B6893F8303035
:102C1000032B0AD93B685A887B6893F82A301B0239
:102C20009BB213439AB23B685A807B681A683B6830
:102C30005A607B685A6B3B689A60012318460C37D0
:102C4000BD465DF8047B704780B582B000AF786008
:102C50007B68002B01D100231CE07B685B78022B92
:102C600017D17B685B88002B01D0012200E0002295
:102C70000A4B1A70094B1B78DBB2002B07D1084BAB
:102C800000221A70074B00221A70FFF78FFE0123F3
:102C900000E0002318460837BD4680BD040000242C
:102CA000D4050024D505002490B585B000AF786028
:102CB0007B68002B0AD07B685B7807F10F02114616
:102CC000184600F00BF90346002B01D100230EE05B
:102CD000FA7B7B685B88F97B0C461946104600F04E
:102CE0001BF903461A46044B23F814200123184607
:102CF0001437BD4690BD00BFDC05002490B5A1B0DF
:102D000004AF7860002387F86F307B68002B01D117
:102D100000233BE07868FFF797FF034687F86F30A2
:102D200097F86F30002B05D17868FFF7BDFF034699
:102D300087F86F307B681B781C467B685B781A4687
:102D40007B685B88194697F86F3007F10C00029397
:102D50000191009223460F4A602148F0A7F807F13D
:102D60000C03184601F0C6FE7B681B78002B05D1CA
:102D700097F86F301946786800F00EF897F86F30C2
:102D8000002B01D0FFF740FE97F86F3018467437DC
:102D9000BD4690BDD4C9040880B58EB000AF786040
:102DA0000B46FB707B68002B2AD007F1080330220A
:102DB0000021184648F003F907F10803042240F205
:102DC0002111184600F040F8042387F834307B685E
:102DD0005B7887F82C307B685B88DBB287F82D3016
:102DE0007B685B881B0A9BB2DBB287F82E30FB78CE
:102DF00087F82F3007F10803184600F005F800E0C7
:102E000000BF3837BD4680BD80B582B000AF786066
:102E10007B68002B0FD00A4B1868002300227968CA
:102E200013F06CFD0346002B06D0064B1B680133E4
:102E3000044A136000E000BF0837BD4680BD00BFF4
:102E400000060024D805002480B485B000AFF860E7
:102E5000B9607A60FB68002B1BD0FB68BA681A6007
:102E6000FB6800225A60FB6800229A60FB687A685F
:102E7000DA60FB6800221A61FB6800225A61FB6875
:102E800000229A61FB680022DA61FB6800221A6264
:102E900000E000BF1437BD465DF8047B704780B486
:102EA00083B000AF0346FB71FB79042B01D80123EB
:102EB00000E0002318460C37BD465DF8047B7047E0
:102EC00080B483B000AF0346FB71FB791033DBB2F3
:102ED00018460C37BD465DF8047B704780B483B05C
:102EE00000AF03463960FB713B68002B05D0FB79CE
:102EF0000F2B02D9FB79142B01D9002305E0FB79B4
:102F0000103BDAB23B681A70012318460C37BD46F5
:102F10005DF8047B7047000080B582B000AF0346C7
:102F20000A46FB711346BB80FB791846FFF7B7FFD3
:102F30000346002B01D1002308E0FB79054A32F853
:102F40001330BA88934228BF13469BB218460837FD
:102F5000BD4680BD50EB040880B400AF034B1B7826
:102F6000DBB21846BD465DF8047B704704000024C0
:102F700080B400AF034B1B78DBB21846BD465DF84A
:102F8000047B7047D405002480B586B000AF0346AB
:102F9000FB7107F10C0300221A605A609A6001234A
:102FA0003B7302237B73FB79002B01D0012300E0EC
:102FB0000023FB8100233B6103F08EF903467B6114
:102FC00007F10C031846FFF799FE03461846183719
:102FD000BD4680BD80B500AF0B4B1B78DBB2002B2C
:102FE00010D00A4B01221A70094B00221A70094BAB
:102FF00000221A70084A0D21084847F057FFFFF7D2
:10300000D5FC00E000BF80BD04000024D5050024ED
:10301000D4050024E805002470C804080800002432
:1030200080B582B000AF786039607B68002B0DD02E
:103030003B68002B0AD016F07FFB064B064A396826
:10304000786847F033FF16F0A9FB00E000BF0837AF
:10305000BD4680BD080000246CC8040880B582B05D
:1030600000AF0346FB71FB791846FFF718FF0346D4
:10307000002B01D1002304E0FB79044A32F813301D
:103080009BB218460837BD4680BD00BFDC05002452
:1030900080B586B000AF03460A46FB711346BB807D
:1030A00007F1080300221A605A609A60FB791846FB
:1030B000FFF7F5FE0346002B01D1002326E0012394
:1030C0003B72FB791846FFF7FBFE03467B72BB8819
:1030D0007B810023FB6003F0FFF803463B6107F1AF
:1030E00008031846FFF70AFE0346FB75FB7D002B1D
:1030F0000BD0FB79074A32F813309BB27B817B7A85
:103100007A891146184600F007F8FB7D18461837F3
:10311000BD4680BDDC05002480B58EB000AF0346FF
:103120000A46FB711346BB8007F1080330220021D9
:10313000184647F044FF07F1080304224FF490714A
:103140001846FFF781FE042387F83430FB7987F8AF
:103150002C30BB88DBB287F82D30BB881B0A9BB2B2
:10316000DBB287F82E30002387F82F3007F10803F1
:103170001846FFF749FE012318463837BD4680BD83
:1031800080B582B000AF78603960084801F0B2FCC9
:103190003B68002B05D0386801F0ACFC044801F016
:1031A000A9FC72B600BF00BFFDE700BF00CA04085B
:1031B00018CA040880B500AF034801F09BFC72B642
:1031C00000BF00BFFDE700BF1CCA040880B58EB079
:1031D00000AF07F1240300221A605A609A60DA6097
:1031E0001A61854BD3F8E030834A43F01003C2F8EC
:1031F000E030814BD3F8E03003F010033B623B6AD0
:103200007D4BD3F8E0307C4A43F48073C2F8E03061
:10321000794BD3F8E03003F48073FB61FB69764BA4
:10322000D3F8E030744A43F00403C2F8E030724B44
:10323000D3F8E03003F00403BB61BB696E4BD3F8F5
:10324000E0306D4A43F02003C2F8E0306A4BD3F817
:10325000E03003F020037B617B69674BD3F8E030FB
:10326000654A43F08003C2F8E030634BD3F8E030A6
:1032700003F080033B613B695F4BD3F8E0305E4A6B
:1032800043F00103C2F8E0305B4BD3F8E03003F0C9
:103290000103FB60FB68584BD3F8E030564A43F01B
:1032A0000203C2F8E030544BD3F8E03003F00203DD
:1032B000BB60BB68504BD3F8E0304F4A43F040034B
:1032C000C2F8E0304C4BD3F8E03003F040037B60B1
:1032D0007B68494BD3F8E030474A43F00803C2F813
:1032E000E030454BD3F8E03003F008033B603B6827
:1032F00001220421414805F0A3F8002208213F489B
:1033000005F09EF800224FF480713D4805F098F8D2
:10331000002242F220013B4805F092F800220121F0
:10332000394805F08DF80C237B620123BB62002332
:10333000FB6200233B6307F1240319462F4804F086
:10334000B7FE4FF480737B620123BB620023FB62F4
:1033500000233B6307F124031946294804F0A8FE23
:1033600020237B620023BB620023FB6207F124035E
:103370001946234804F09CFE42F220037B6201239D
:10338000BB620023FB6200233B6307F12403194661
:103390001C4804F08DFE01237B620123BB620023E5
:1033A000FB6200233B6307F124031946164804F02F
:1033B0007FFE4FF470737B620023BB620223FB62CB
:1033C00007F124031946114804F072FE80237B6242
:1033D0000023BB620123FB6207F12403194609485D
:1033E00004F066FE00214FF0807002F0B1FF00BFD4
:1033F0003837BD4680BD00BF004402580010025857
:10340000002002580008025800000258001C025810
:1034100080B500AF064B074A1A60054805F02AF848
:103420000346002B01D001F07DF900BF80BD00BF35
:10343000240600240030005280B485B000AF7860CC
:103440007B681B680B4A93420ED10B4BD3F8D430E8
:10345000094A43F02003C2F8D430074BD3F8D430E4
:1034600003F02003FB60FB6800BF1437BD465DF826
:10347000047B7047003000520044025880B58EB083
:1034800000AF3B1D34220021184647F098FD414B08
:1034900000221A70404B01221A70404B404A1A60B9
:1034A0003E4B00225A603D4B00229A603B4B4FF04E
:1034B0000052DA60394B00221A61384B00225A61FF
:1034C000364B00229A61354B0A22DA61334B0A22CD
:1034D0001A62324B40F22A325A62304B4FF4F57284
:1034E0009A622E4B4FF48462DA622C4B40F20D222A
:1034F0001A632A4B002283F83420284B002283F8D9
:103500003520264B002283F83620244805F0C4FDE0
:103510000346002B01D001F005F900237B604FF436
:103520004873BB600023FB604FF4F0733B610223E0
:103530007B61FF23BB610023FB614FF480633B622F
:1035400005237B624FF04043BB624FF44873FB623C
:103550004FF4F0733B63002387F83430002387F87F
:103560003530002387F836303B1D002219460B48C2
:1035700005F0DDFE0346002B01D001F0D3F8054B2A
:1035800001221A70044B05221A7000BF3837BD465D
:1035900080BD00BF7C0600247D0600248006002438
:1035A0000010005080B5C2B000AF07F58473A3F5DA
:1035B0008273186007F1F40300221A605A609A605F
:1035C000DA601A6107F13003C0220021184647F083
:1035D000F6FC07F58473A3F582731B681B68D34A56
:1035E000934240F09E814FF000524FF00003C7E934
:1035F0000C230423BB651423FB6502233B660223D3
:103600007B660B23BB664FF44063FB6600233B677E
:1036100000237B6707F13003184607F08BFE034653
:10362000002B01D001F07EF8C14BD3F8E430C04A42
:1036300043F00803C2F8E430BD4BD3F8E43003F0A4
:103640000803FB62FB6ABA4BD3F8E030B84A43F098
:103650001003C2F8E030B64BD3F8E03003F01003AB
:10366000BB62BB6AB24BD3F8E030B14A43F480731B
:10367000C2F8E030AE4BD3F8E03003F480737B62E5
:103680007B6AAB4BD3F8E030A94A43F02003C2F881
:10369000E030A74BD3F8E03003F020033B623B6AF5
:1036A000A34BD3F8E030A24A43F00103C2F8E03064
:1036B0009F4BD3F8E03003F00103FB61FB699C4BA7
:1036C000D3F8E0309A4A43F08003C2F8E030984BD8
:1036D000D3F8E03003F08003BB61BB69944BD3F8AF
:1036E000E030934A43F00203C2F8E030904BD3F845
:1036F000E03003F002037B617B698D4BD3F8E0304F
:103700008B4A43F04003C2F8E030894BD3F8E030F5
:1037100003F040033B613B69854BD3F8E030844ABA
:1037200043F00803C2F8E030814BD3F8E03003F0F7
:103730000803FB60FB687023C7F8F4300223C7F866
:10374000F8300023C7F8FC300323C7F800310E23FC
:10375000C7F8043107F1F4031946764804F0A8FCD1
:103760004FF4CA63C7F8F4300223C7F8F8300023D7
:10377000C7F8FC300323C7F800310E23C7F8043123
:1037800007F1F40319466C4804F092FC4FF400630F
:10379000C7F8F4300223C7F8F8300023C7F8FC302C
:1037A0000323C7F800310923C7F8043107F1F403F4
:1037B0001946614804F07CFC4FF48063C7F8F4308C
:1037C0000223C7F8F8300023C7F8FC300323C7F8FA
:1037D00000310E23C7F8043107F1F40319465748A6
:1037E00004F066FC4E23C7F8F4300223C7F8F83023
:1037F0000023C7F8FC300323C7F800310E23C7F8B5
:10380000043107F1F40319464D4804F051FC40F629
:103810001443C7F8F4300223C7F8F8300023C7F880
:10382000FC300323C7F800310E23C7F8043107F139
:10383000F4031946434804F03BFC0323C7F8F43073
:103840000223C7F8F8300023C7F8FC300323C7F879
:1038500000310923C7F8043107F1F40319463A4847
:1038600004F026FC4FF42063C7F8F4300223C7F8B5
:10387000F8300023C7F8FC300323C7F800310E23CB
:10388000C7F8043107F1F40319462F4804F010FC7F
:103890004FF4C653C7F8F4300223C7F8F8300023BA
:1038A000C7F8FC300323C7F800310E23C7F80431F2
:1038B00007F1F4031946254804F0FAFB4823C7F83A
:1038C000F4300223C7F8F8300023C7F8FC30032394
:1038D000C7F800310E23C7F8043107F1F403194685
:1038E0001B4804F0E5FB4FF48063C7F8F430022373
:1038F000C7F8F8300023C7F8FC300323C7F80031BD
:103900000923C7F8043107F1F40319460F4804F0FE
:10391000CFFB00220921582002F00BFE582002F0B4
:1039200022FE00BF07F58477BD4680BD0010005021
:103930000044025800100258002002580014025897
:1039400000000258001C02580004025800180258D7
:10395000000C025880B584B000AF78607B68D3F863
:10396000A430FB60FB6803F00203002B15D001F0CC
:1039700093F97B681B680222DA637B681B685A6BC9
:103980007B681B6842F002025A637B68D3F8A4305C
:1039900023F002027B68C3F8A42000BF1037BD46A5
:1039A00080BD000080B594B000AF07F11803382245
:1039B0000021184647F003FB3B4600221A605A607C
:1039C0009A60DA601A615A614FF480733B63062390
:1039D000BB6100237B630023BB630023FB630023E5
:1039E000FB6200237B640023BB640023FB6407F1BC
:1039F00018034FF4FA621946164806F073F80346A6
:103A0000002B01D0002321E00523BB614FF0807320
:103A1000FB6301233B6402233B6002237B600023A2
:103A20003B610123FB601023BB604FF480037B618B
:103A30003A4607F118014FF4FA63064806F0DFF939
:103A40000346002B01D0002300E001231846503725
:103A5000BD4680BD7019002480B596B000AF786077
:103A600007F1200338220021184647F0A8FA07F191
:103A7000080300221A605A609A60DA601A615A617B
:103A80004FF48073BB6305233B620023FB63002379
:103A90003B644FF080737B6400237B630123BB6432
:103AA0000023FB6400233B6500237B650023BB6090
:103AB0000123FB600023BB6101237B6110233B6179
:103AC0004FF48003FB6107F1080207F120017B68D6
:103AD000064806F094F90346002B01D0002300E0CD
:103AE000012318465837BD4680BD00BF7019002419
:103AF00080B592B000AFF860B9607A6007F110034A
:103B000038220021184647F05AFA4FF48073BB62FE
:103B100003233B614FF48063FB624FF40053FB616E
:103B2000FB687B6100233B634FF080737B63002362
:103B30007B627B68BB630023FB6300233B64002341
:103B40007B6407F110034FF4FA6219460B4805F045
:103B5000C9FF0346002B01D000230BE04FF4FA62AB
:103B6000B968064806F0AEF80346002B01D00023E2
:103B700000E0012318464837BD4680BD7019002477
:103B800080B592B000AFF860B9607A6007F11003B9
:103B900038220021184647F012FA7B68002B03D028
:103BA0007B68B3F5807F01D900233FE0FFF7FAFE81
:103BB0000346002B01D1002338E04FF48073BB6231
:103BC00002233B614FF48063FB624FF40053FB61BF
:103BD000FB687B6100233B634FF080737B630023B2
:103BE0007B627B68BB630023FB6300233B64002391
:103BF0007B6407F110034FF4FA6219460D4805F093
:103C000071FF0346002B01D000230FE04FF4FA624E
:103C1000B968084805F0C4FF0346002B01D0002313
:103C200004E04FF4FA60FFF717FF034618464837E1
:103C3000BD4680BD7019002480B590B000AF78609B
:103C400007F1080338220021184647F0B8F9FFF7BA
:103C5000A9FE0346002B01D100232AE04FF4807314
:103C60003B622023BB604FF480637B624FF40053C0
:103C70007B617B68FB600023BB620023FB62002347
:103C8000FB6100237B630023BB630023FB6307F11D
:103C900008034FF4FA621946084805F023FF03466B
:103CA000002B01D0002304E04FF4FA50FFF7D4FEBC
:103CB000034618464037BD4680BD00BF701900243A
:103CC00080B586B000AFF860B9607A6000237B6190
:103CD00000233B611DE07A687B69D31A3B613B6935
:103CE000B3F5807F02D94FF480733B61FA687B693A
:103CF000D018BA687B6913443A691946FFF740FF48
:103D00000346002B01D1002308E07A693B69134484
:103D10007B617A697B689A42DDD3012318461837A4
:103D2000BD4680BD80B592B000AF3B1D382200215A
:103D3000184647F044F93B4600210A461A800A46D5
:103D40009A7000233B640023FB634FF48073FB6194
:103D50009F237B6000233B6200237B624FF08073D4
:103D6000BB620023BB610323FB6200233B63002390
:103D70007B630023BB633B1D4FF47A7219465248A4
:103D800005F0B0FE0346002B01D0002398E03B462F
:103D90004FF47A7219464C4805F094FF0346002B05
:103DA00001D000238CE03B78002B02D03B78FF2B26
:103DB00001D1002384E07B78002B04D1BB78002B59
:103DC00001D100237CE03B78202B05D17B78BA2BF6
:103DD00002D1BB78182B01D0002371E0BB780F2BE8
:103DE00002D9BB78252B01D9002369E0BB781A469C
:103DF000012393403B643B6CB3F5804F01D2002319
:103E00005EE03B6CA3F50053FB634FF480522F49F7
:103E1000F86BFFF76DFE0346002B01D100234FE046
:103E200000237B640CE07B6CDBB283F05A03D9B2D5
:103E3000274A7B6C13440A461A707B6C01337B64FF
:103E40007B6CFF2BEFD9F86BFFF7F6FE0346002BD8
:103E500001D1002334E04FF480721D49F86BFFF765
:103E60008FFE0346002B01D1002329E04FF480721E
:103E70001849F86BFFF73CFE0346002B01D10023E5
:103E80001EE04FF480721349114847F088F803464A
:103E9000002B01D0002313E0F86BFFF7CDFE0346A3
:103EA000002B01D100230BE04FF480520749F86B3F
:103EB000FFF706FF0346002B01D1002300E001239A
:103EC00018464837BD4680BD701900242C070024D1
:103ED0002C1700242C18002480B590B000AF07F1F7
:103EE000080338220021184647F069F83B460022B3
:103EF0001A605A604FF480733B620B23BB604FF42F
:103F000080637B624FF400537B610023FB600023DE
:103F1000BB624FF08073FB620823FB6100233B63AD
:103F200000237B630023BB630023FB6300237B60D0
:103F300000233B603A4607F108031946064805F09E
:103F4000D5FF0346002B01D0002300E001231846D3
:103F50004037BD4680BD00BF7019002480B487B0D3
:103F600000AF1B4BFB601B4A194BD31ABB600023ED
:103F70007B6000237B61BB68002B01D1002320E024
:103F8000BB68B3F5807F28BF4FF480737B6000234C
:103F90003B610CE0FA683B6913441B78DBB2FF2BF2
:103FA00002D07B6901337B613B6901333B613A6934
:103FB0007B689A42EED37B69082B01D9012300E08C
:103FC000002318461C37BD465DF8047B704700BFD0
:103FD00050D70508A0E70508F0B5D1B012AF574B90
:103FE000C7F8F430564A554BD31AC7F8F030554B42
:103FF000D3F88830002B00F09D80D7F8F0300F2BDD
:104000000DD807F13000D7F8F0304F4AC02146F004
:104010004DFF07F13003184600F06CFD8BE0D7F838
:10402000F440D7F8F4301B78DBB21E46D7F8F430F2
:1040300001331B78DBB2FB62D7F8F43002331B7814
:10404000DBB2BB62D7F8F43003331B78DBB27B62A0
:10405000D7F8F43004331B78DBB23B62D7F8F43086
:1040600005331B78DBB2FB61D7F8F43006331B78DD
:10407000DBB2BB61D7F8F43007331B78DBB27B616E
:10408000D7F8F43008331B78DBB23B61D7F8F43053
:1040900009331B78DBB2FB60D7F8F4300A331B78A6
:1040A000DBB2BB60D7F8F4300B331B78DBB27B603C
:1040B000D7F8F4300C331B78DBB21D46D7F8F43058
:1040C0000D331B78DBB21946D7F8F4300E331B786A
:1040D000DBB21A46D7F8F4300F331B78DBB207F1A6
:1040E000300010930F920E910D957A680C92BA6879
:1040F0000B92FA680A923A6909927A690892BA6947
:104100000792FA6906923A6A05927A6A0492BA6A42
:104110000392FB6A02930196D7F8F030009323468E
:104120000A4AC02146F0C2FE07F13003184600F0EB
:10413000E1FC00E000BFFC37BD46F0BD50D70508EC
:10414000A0E70508D81A002434CA04086CCA040879
:1041500080B584B000AFB04BD3F8E020AE4940F258
:1041600005131343C1F8E030BFF34F8F00BF00BF0A
:1041700000BFAA4B1B6823F00303A84A43F00103C6
:104180001360A74B1B6823F04063A54A43F080638C
:104190001360A44B1B6823F44033A24A43F48033DA
:1041A00013609E4B4FF480329A619E4B4FF08072A9
:1041B0009A619B4B4FF000529A6100F05BFA9A4B68
:1041C0005B6903F40033002B1BD1BFF34F8F00BF9B
:1041D000BFF36F8F00BF944B0022C3F85022BFF390
:1041E0004F8F00BFBFF36F8F00BF8F4B5B698E4A4D
:1041F00043F400335361BFF34F8F00BFBFF36F8FA2
:1042000000E000BF884B5B6903F48033002B38D19A
:10421000854B0022C3F88420BFF34F8F00BF824B31
:10422000D3F88030FB60FB685B0BC3F30E03BB600D
:10423000FB68DB08C3F309037B60BB685A0143F6E4
:10424000E07313407A68920777491343C1F86032EC
:104250007B685A1E7A60002BEFD1BB685A1EBA6089
:10426000002BE5D1BFF34F8F00BF6F4B5B696E4AE8
:1042700043F480335361BFF34F8F00BFBFF36F8FA1
:1042800000E000BF01F0A2FF644B01229A6100210F
:10429000012000F00DFC00F041F90021062000F0A3
:1042A00007FC00F0C9F90021072000F001FCFEF72F
:1042B0008DFF5E49082000F0FBFB0021092000F083
:1042C000F7FB01F019FD5A4800F014FC00210A2008
:1042D00000F0EEFBFCF7B4FA56490B2000F0E8FBC7
:1042E000FCF710FB54490C2000F0E2FBFCF76EFBDE
:1042F00052490D2000F0DCFBFCF7CCFC50490E20AD
:1043000000F0D6FBFFF784F84E490F2000F0D0FBF9
:10431000FFF7B4F84C49102000F0CAFB00F012FE81
:104320004A49112000F0C4FBFFF7FCFC03461A4683
:10433000474B1A70464B1B78002B01D0454B00E0D1
:10434000454B184600F0D6FB00F0CCFE4349122046
:1043500000F0AEFB01F01CFD4149132000F0A8FB6A
:1043600040480BF052FD0346012B01D13E4B00E0CB
:104370003E4B184600F0BEFB3D4B1B78002B01D096
:104380003C4B00E03C4B184600F0B4FB00220021FF
:10439000002000F017FC394800F0ACFB00F068FC8E
:1043A00001F03AFE36490B2000F082FBFCF786F95B
:1043B00034490C2000F07CFB00F070FF32490D20E6
:1043C00000F076FB0FF060F830490E2000F070FB33
:1043D000C82001F08DFF2E4800F08CFB15F0C2FCC8
:1043E0002C49142000F064FBFFF776FD03461A46C3
:1043F000294B1A70284B1B78002B07D0FFF7ECFDD8
:10440000FFF7ACFD03461A46234B1A70224B1B786C
:10441000002B45D0214B44E00044025800000258D4
:10442000000802580020025800ED00E0ECCA040821
:1044300008CB040820CB04083CCB040858CB040864
:1044400074CB040890CB0408ACCB0408C8CB040898
:1044500028070024E4CB040808CC04082CCC04086A
:1044600048CC04080C05002464CC04087CCC040867
:104470007C06002498CC0408B0CC0408C8CC0408FE
:10448000E8CC040804CD040820CD04083CCD040881
:1044900058CD040878CD04082907002494CD0408D9
:1044A000164B184600F026FB154800F023FB15F0CC
:1044B00060FC1449152000F0FBFA134800F01AFBC9
:1044C000124800F017FB11F033FF1149162000F0DD
:1044D000EFFAFCF787FD0F49172000F0E9FA0E48C4
:1044E00000F008FB002000F0F5FA0021182000F091
:1044F000DFFA11F063FF00BFFDE700BFB4CD040891
:10450000D8CD0408F4CD040818CE040838CE040829
:1045100054CE040878CE0408A0CE040880B59CB020
:1045200000AF07F124034C220021184646F047FD56
:104530003B1D20220021184646F041FD00210220AB
:1045400000F0B6FA022005F00FFA00233B60384B6A
:10455000DB6A374A23F00103D362354BDB6A03F091
:1045600001033B60334B9B69324A43F44043936100
:10457000304B9B6903F440433B603B6800BF2D4BCD
:104580009B6903F40053B3F5005FF8D132237B62DB
:1045900001233B6340237B630123FB6380233B6454
:1045A00020237B640223BB640023FB6408233B6558
:1045B0003C237B650223BB650423FB6502233B662A
:1045C0000C237B660023BB660023FB6600210420CE
:1045D00000F06EFA07F12403184605F0C5FE034605
:1045E000002B01D000F09EF83F237B600323BB60CB
:1045F0000023FB6008233B6140237B614023BB61B8
:104600004FF48063FB6140233B620021052000F0F2
:104610004FFA3B1D0521184606F000FB0346002B10
:1046200001D000F07FF800BF7037BD4680BD00BFED
:10463000000400580048025880B5B0B000AF3B46B7
:10464000C0220021184646F0BAFC4FF000424FF05D
:104650000003C7E9002300237B653B46184606F0AC
:1046600069FE0346002B01D000F05CF800BFC037A4
:10467000BD4680BD80B584B000AF3B4600221A60C5
:104680005A609A60DA6001F089FF01233B700023D1
:104690007B7000237B601F233B7287237B72002388
:1046A000BB720023FB7201233B7301237B73002346
:1046B000BB730023FB733B46184601F0A7FF0123A1
:1046C0007B704FF010437B601B233B7200237B7297
:1046D0000323FB7200237B730123BB733B46184605
:1046E00001F094FF02237B704FF040437B6018235E
:1046F0003B7200237B723B46184601F087FF032381
:104700007B7014233B7201237B730023BB733B46F6
:10471000184601F07BFF042001F058FF00BF10375E
:10472000BD4680BD80B596B000AF07F140030022C2
:104730001A605A609A60DA601A61584B1B78DBB2D3
:10474000002B03D0554B1B78DBB200E0092387F820
:104750005630524B1B78DBB207F11000504A302123
:1047600046F0A4FB07F11003184600F0C3F94D4BC7
:10477000D3F8E0304B4A43F00103C2F8E030494B34
:10478000D3F8E03003F00103FB60FB68454BD3F83E
:10479000E030444A43F00403C2F8E030414BD3F820
:1047A000E03003F00403BB60BB683E4BD3F8E0305D
:1047B0003C4A43F48073C2F8E0303A4BD3F8E0301F
:1047C00003F480737B607B6801233B6401237B647B
:1047D0000023BB640023FB6407F140031946324801
:1047E00003F066FC4FF480733B6401237B64002379
:1047F000BB640023FB6407F1400319462B4803F018
:1048000057FC4FF400533B6401237B640023BB64DB
:104810000023FB6407F140031946254803F048FCD8
:1048200072B600BF012201211F4803F009FE0122D8
:104830004FF400511E4803F003FE002387F8573061
:1048400016E001224FF48071184803F0F9FD194871
:1048500000F0A6F900224FF48071144803F0F0FD37
:10486000144800F09DF997F85730013387F8573016
:1048700097F8572097F856309A42E2D300224FF427
:1048800080710A4803F0DCFD00224FF40051084813
:1048900003F0D6FD084800F083F9C3E72C19002483
:1048A000BCCE040800440258000002580020025800
:1048B00000080258005A620200E1F50580B582B096
:1048C00000AF78607B68002B01D100231AE007223B
:1048D0000E49786846F07BFB0346002B0FD015226B
:1048E0000B49786846F073FB0346002B07D014226F
:1048F0000849786846F06BFB0346002B01D1012381
:1049000000E0002318460837BD4680BDDCCE040811
:10491000E4CE0408FCCE040880B582B000AF786015
:104920007B68002B01D1002362E01C2232497868A9
:1049300046F04DFB0346002B57D023222F497868C1
:1049400046F045FB0346002B4FD01A222C497868CD
:1049500046F03DFB0346002B47D0172229497868D3
:1049600046F035FB0346002B3FD0162226497868D7
:1049700046F02DFB0346002B37D0182223497868D8
:1049800046F025FB0346002B2FD0152220497868DE
:1049900046F01DFB0346002B27D005221D497868F1
:1049A00046F015FB0346002B1FD006221A497868F3
:1049B00046F00DFB0346002B17D0042217497868F8
:1049C00046F005FB0346002B0FD0052214497868FA
:1049D00046F0FDFA0346002B07D0072211497868FC
:1049E00046F0F5FA0346002B01D1012300E0002335
:1049F00018460837BD4680BD14CF040834CF0408DC
:104A000058CF040874CF04088CCF0408A4CF04083E
:104A1000C0CF0408D8CF0408E0CF0408E8CF0408CA
:104A2000F0CF0408F8CF040880B487B000AF7860F6
:104A3000084611461A460346FB700B46BB701346E8
:104A40007B70FB781BB21B021AB2174B13401AB2D1
:104A5000BB781BB2DB001BB203F4FC631BB2134335
:104A60001AB27B78DB08DBB21BB213431BB27B822A
:104A70007B68FB600D4BBB6000237B6108E07B69BA
:104A80005B00FA6813447A8A1A807B6901337B6180
:104A90007A69BB689A42F2D300BF00BF1C37BD469B
:104AA0005DF8047B704700BF00F8FFFF00DC0500E5
:104AB00080B582B000AF03463960FB71044AFB79D0
:104AC0001370386800F016F800BF0837BD4680BD87
:104AD0002C19002480B483B000AF0346FB71044A54
:104AE000FB79137000BF0C37BD465DF8047B70473F
:104AF0001500002480B584B000AF78607B68002B7F
:104B00003DD0244BD3F88830002B38D0EFF3058309
:104B1000BB60BB68FB60FB68002B32D113F0A2FFC7
:104B20000346012B10D01C4B1B78DBB2002B0BD1A2
:104B30007868FFF7C3FE0346002B05D17868FFF7BE
:104B4000EBFE0346002B1ED0144B1B78DBB2002B70
:104B50001BD1104BD3F88830202B16D10F4B0122DC
:104B60001A707868FBF7BCFB03469AB20223796897
:104B700008480BF0E8FA094B00221A7006E000BF63
:104B800004E000BF02E000BF00E000BF1037BD46F8
:104B900080BD00BFD81A002415000024501900243D
:104BA00080B483B000AF786000E000BF7B685A1E1D
:104BB0007A60002BF9D100BF00BF0C37BD465DF80D
:104BC000047B704780B586B000AF0346FB710B468F
:104BD000BB7113467B717B79BA79F9794FF040400C
:104BE000FFF722FF7B79BA79F9791F48FFF71CFF9D
:104BF0001E4B5B6903F48033002B30D01B4B00222B
:104C0000C3F88420BFF34F8F00BF184BD3F8803018
:104C10007B617B695B0BC3F30E033B617B69DB0844
:104C2000C3F30903FB603B695A0143F6E073134089
:104C3000FA6892070D491343C1F86C32FB685A1E9B
:104C4000FA60002BEFD13B695A1E3A61002BE5D187
:104C5000BFF34F8F00BFBFF36F8F00BF00BF00BF18
:104C60001837BD4680BD00BF00B80BC000ED00E0A6
:104C700080B500AF01222021054803F0E1FB32207E
:104C800001F036FB0348FFF735FF00BF80BD00BFD2
:104C90000008025800D0040890B5ADB004AF184B1E
:104CA0001B680133164A1360164B9B6B164A136040
:104CB000144B5B6C154A1360154B1B78072B1AD8E5
:104CC000134B1B780133DAB2114B1A700C4B1C6872
:104CD0000D4B1B680D4A12680E49896A38460291CD
:104CE0000192009323460C4AA02146F0DFF83B4690
:104CF0001846FFF7FFFE00BFA437BD4690BD00BFBA
:104D000030190024001000503419002438190024F0
:104D100051190024841000501CD00408F0B5F3B0E1
:104D20000CAF664B1B68C7F89431654B1B68C7F81E
:104D30009031644B1B68C7F88C31634B1B68C7F814
:104D40008831624B1B68C7F88431614B1B68C7F818
:104D50008031FCF72FF9C7F87C01FCF737F9C7F869
:104D600078015C4BD3F88830002B00F0A1805A4BBF
:104D70001B68D7F87C21A2EB030E584B1B68D7F8B1
:104D80009421D31A7B60564B1B68D7F89021D31A15
:104D9000544A1268D7F88C118A1A3A605249096845
:104DA000D7F88801411A51480068D7F88441201A81
:104DB0004F4C2468D7F880512C1B4E4DAD6A4E4E97
:104DC000766C4D4A926C07F1880C0A920996089508
:104DD0000794069005913A68049203937B680293C6
:104DE000D7F894310193D7F8783100937346434A4A
:104DF000E021604646F05AF807F188031846FFF7AD
:104E000079FE3F4B5B6CC7F874313D4B1B6CC7F8A8
:104E100070313C4B5B6CC7F86C313A4B1B6CC7F87C
:104E20006831D7F8743103F00706D7F870311B0AE0
:104E300003F07F03D7F87021D2B2D7F86C1101F0DC
:104E40000701D7F86801000A00F07F00D7F8684131
:104E5000E4B207F1080504940390029101920093D3
:104E60003346294A8021284646F020F807F10803F6
:104E70001846FFF73FFE194AD7F894311360184AD5
:104E8000D7F890311360174AD7F88C311360164A5F
:104E9000D7F888311360154AD7F884311360144A63
:104EA000D7F8803113600C4AD7F87C31136000E0EA
:104EB00000BF07F5CE77BD46F0BD00BF3019002416
:104EC0003C190024401900244419002448190024E6
:104ED0004C190024D81A002454190024581900240D
:104EE0005C19002460190024641900246819002446
:104EF0006C19002484100050001000505CD004088D
:104F000000A0004000A40040D8D0040880B400AF46
:104F1000044B1B680133034A136000BFBD465DF8B4
:104F2000047B70474819002480B400AF044B1B6811
:104F30000133034A136000BFBD465DF8047B704730
:104F40004C19002480B500AF124B134A1A60114B64
:104F500003225A600F4B04229A600E4B0022DA6043
:104F60000C4B17221A610B4B4FF480725A61094B9C
:104F700000229A61074B0022DA61064B00221A6276
:104F8000044804F03BFD0346002B01D0FFF7CAFBA9
:104F900000BF80BD701900240050005280B5BCB025
:104FA00000AF786007F1DC0300221A605A609A6053
:104FB000DA601A6107F11803C0220021184645F093
:104FC000FEFF7B681B68434A93427FD14FF000721B
:104FD0004FF00003C7E9062300237B6607F118039F
:104FE000184606F0A7F90346002B01D0FFF79AFBFD
:104FF000394BD3F8D430384A43F48043C2F8D43024
:10500000354BD3F8D43003F480437B617B69324B5A
:10501000D3F8E030304A43F02003C2F8E0302E4BA2
:10502000D3F8E03003F020033B613B692A4BD3F80F
:10503000E030294A43F00203C2F8E030264BD3F8AF
:10504000E03003F00203FB60FB68C023C7F8DC30EC
:105050000223C7F8E0300023C7F8E4300023C7F884
:10506000E8300923C7F8EC3007F1DC0319461B4888
:1050700003F01EF84FF44073C7F8DC300223C7F882
:10508000E0300023C7F8E4300023C7F8E8300A23F3
:10509000C7F8EC3007F1DC031946104803F008F8B4
:1050A00040F20443C7F8DC300223C7F8E0300023A5
:1050B000C7F8E4300023C7F8E8300923C7F8EC301C
:1050C00007F1DC031946064802F0F2FF00BFF03793
:1050D000BD4680BD005000520044025800140258E2
:1050E0000004025880B400AF0B4B0C4A1A600A4B04
:1050F00000225A60084B00229A60074B0022DA60B7
:10510000054B00221A61044B40225A6100BFBD4684
:105110005DF8047B704700BFC01900240070005286
:1051200080B5BCB000AF786007F1DC0300221A60E4
:105130005A609A60DA601A6107F11803C0220021F0
:10514000184645F03CFF7B681B68504A934240F08C
:1051500099804FF480324FF00003C7E906232023E3
:105160003B6281237B620223BB620223FB62062334
:105170003B6340237B630023BB630023FB634FF44B
:105180008033BB6607F11803184606F0D3F80346D0
:10519000002B01D0FFF7C6FA3D4BD3F8D4303C4A80
:1051A00043F48033C2F8D430394BD3F8D43003F40D
:1051B00080337B617B69364BD3F8E030344A43F06F
:1051C0000403C2F8E030324BD3F8E03003F00403BC
:1051D0003B613B692E4BD3F8E0302D4A43F0080386
:1051E000C2F8E0302A4BD3F8E03003F00803FB604C
:1051F000FB684FF47063C7F8DC300223C7F8E03077
:105200000123C7F8E4300323C7F8E8300C23C7F8BC
:10521000EC3007F1DC0319461E4802F049FF4FF459
:105220008053C7F8DC300223C7F8E0300023C7F80A
:10523000E4300323C7F8E8300C23C7F8EC3007F15B
:10524000DC031946134802F033FF0423C7F8DC30AF
:105250000223C7F8E0300123C7F8E4300323C7F87E
:10526000E8300C23C7F8EC3007F1DC0319460A4894
:1052700002F01EFF00220821312001F05AF93120EE
:1052800001F071F900BFF037BD4680BD00700052DB
:105290000044025800080258000C025880B500AFC4
:1052A000274B284A1A60264B4FF480025A60244B41
:1052B00000229A60224B0722DA60214B00221A61F9
:1052C0001F4B00225A611E4B4FF080629A611C4BAB
:1052D0004FF0A042DA611A4B00221A62184B0022EA
:1052E0005A62174B00229A62154B0022DA62144B65
:1052F0004FF080425A63124B00229A63104B0022F7
:10530000DA630F4B00221A640D4B00225A640C4BD7
:1053100000229A640A4B0022DA64094B00221A65C3
:10532000074B00225A65064B00229A6504480AF092
:105330007BFD0346002B01D0FFF7F4F900BF80BDD1
:105340003C1A00240030014080B5BCB000AF78604A
:1053500007F1DC0300221A605A609A60DA601A6171
:1053600007F11803C0220021184645F028FE7B688B
:105370001B68394A93426AD14FF480524FF00003C0
:10538000C7E906234FF48043BB6707F118031846AB
:1053900005F0D0FF0346002B01D0FFF7C3F92F4BD8
:1053A000D3F8F0302D4A43F48053C2F8F0302B4B41
:1053B000D3F8F03003F480537B617B69274BD3F83B
:1053C000E030264A43F00103C2F8E030234BD3F823
:1053D000E03003F001033B613B69204BD3F8E03040
:1053E0001E4A43F04003C2F8E0301C4BD3F8E030D3
:1053F00003F04003FB60FB68A023C7F8DC30022306
:10540000C7F8E0300023C7F8E4300023C7F8E830DD
:105410000523C7F8EC3007F1DC031946104802F009
:1054200047FE4FF40073C7F8DC300223C7F8E030C2
:105430000023C7F8E4300023C7F8E8300523C7F895
:10544000EC3007F1DC031946064802F031FE00BFDC
:10545000F037BD4680BD00BF003001400044025817
:10546000000002580018025880B582B000AF0C4B03
:10547000D3F8F4300A4A43F00203C2F8F430084B80
:10548000D3F8F43003F002037B607B6800220F2125
:105490006FF0010001F04DF800BF0837BD4680BD38
:1054A0000044025880B483B000AF786000E000BFD1
:1054B0007B685A1E7A60002BF9D100BF00BF0C3701
:1054C000BD465DF8047B704780B58CB000AF0346E5
:1054D000FB7107F1180300221A605A609A60DA60C3
:1054E0001A6172B600BF3E4BD3F8E0303C4A43F03D
:1054F0000103C2F8E0303A4BD3F8E03003F0010387
:105500007B617B69364BD3F8E030354A43F00403C6
:10551000C2F8E030324BD3F8E03003F004033B61D3
:105520003B692F4BD3F8E0302D4A43F48073C2F827
:10553000E0302B4BD3F8E03003F48073FB60FB6862
:105540000123BB610123FB6100233B6200237B62DB
:1055500007F118031946234802F0AAFD4FF480739F
:10556000BB6107F1180319461F4802F0A1FD4FF473
:105570000053BB6107F1180319461C4802F098FD5F
:1055800001220121174802F05BFF00224FF48071D5
:10559000154802F055FF002387F82F3016E001224E
:1055A0004FF40051114802F04BFF1148FFF77AFF0A
:1055B00000224FF400510D4802F042FF0C48FFF763
:1055C00071FF97F82F30013387F82F3097F82F208D
:1055D000FB799A42E3D30748FFF764FFD0E700BFA7
:1055E00000440258000002580020025800080258E7
:1055F00080C3C901000E270790B5AFB004AF786033
:10560000154BD3F88830002B21D0144BDB6A134A9A
:10561000926A1249496B1148806B07F108040390A4
:105620000291019200937B680D4AA021204645F02B
:105630003DFC07F108031846FAF752FE03469AB2FA
:1056400007F10801642304480AF07DFD00E000BF73
:10565000AC37BD4690BD00BFD81A002400ED00E075
:105660001CD10408F0B5BFB00AAFF860B960BB68E0
:10567000002B43D0234BD3F88830002B3ED0BB689F
:105680007B60BA681268B96804310968B868083084
:105690000068BC680C342468BD6810352D68BE688D
:1056A00014363668BB6803F1180CDCF800303B6038
:1056B000BB6803F11C0CDCF8003007F1100C0893F8
:1056C0003B68079306960595049403900291019216
:1056D0007B680093FB680C4AC021604645F0E6FBFE
:1056E00007F110031846FAF7FBFD03469AB207F1DB
:1056F0001001642303480AF026FD00E000BFD43700
:10570000BD46F0BDD81A002450D1040880B584B03D
:1057100000AFF8600B467A60FB72F868FFF76CFF29
:105720007968F868FFF79EFFFB7A1846FFF7CCFE12
:1057300000BF1037BD4680BD80B400AF00BFFDE79D
:1057400080B500AF002202210248FFF7DFFF00BF53
:10575000FDE700BFA8D1040880B500AF00220321F7
:105760000248FFF7D3FF00BFFDE700BFBCD104082C
:1057700080B500AF002204210248FFF7C7FF00BF39
:10578000FDE700BFD0D1040880B500AF002205219D
:105790000248FFF7BBFF00BFFDE700BFE4D10408EC
:1057A00080B400AF00BFBD465DF8047B704780B594
:1057B00000AF00F07DFD13F055F90346012B01D039
:1057C00014F04AF800BF80BD80B500AF024801F078
:1057D00061FF00BF80BD00BFC803002480B500AFDB
:1057E000024801F057FF00BF80BD00BF68040024DD
:1057F00080B500AF024808F041FF00BF80BD00BF88
:10580000C019002480B500AF024803F0E2FC00BFDD
:1058100080BD00BF8006002480B500AF024801F0C3
:105820008BF800BF80BD00BF6003002480B400AFD0
:1058300001231846BD465DF8047B704780B582B0F1
:1058400000AF7860396045F081FC034616221A608B
:105850004FF0FF3318460837BD4680BD80B582B093
:1058600000AF78604FF0FF317868FFF7E7FF00BFC7
:10587000FDE780B586B000AFF860B9607A600023BC
:105880007B610AE0AFF300800146BB685A1CBA6036
:10589000CAB21A707B6901337B617A697B689A426C
:1058A000F0DB7B6818461837BD4680BD80B586B0F2
:1058B00000AFF860B9607A6000237B6109E0BB68E3
:1058C0005A1CBA601B781846AFF300807B6901331D
:1058D0007B617A697B689A42F1DB7B6818461837EE
:1058E000BD4680BD80B483B000AF78604FF0FF3319
:1058F00018460C37BD465DF8047B704780B483B012
:1059000000AF786039603B684FF400525A60002362
:1059100018460C37BD465DF8047B704780B483B0F1
:1059200000AF7860012318460C37BD465DF8047B54
:10593000704780B485B000AFF860B9607A6000232A
:1059400018461437BD465DF8047B704780B586B0B5
:1059500000AF7860144A154BD31A7B617B693B61B9
:10596000134B1B68002B02D1114B124A1A60104BCB
:105970001A687B6813443A699A4207D245F0E6FBFD
:1059800003460C221A604FF0FF3309E0084B1B68F6
:10599000FB60074B1A687B681344054A1360FB6879
:1059A00018461837BD4680BD0000082400040000DA
:1059B000C41A00247879042480B400AF434BD3F890
:1059C0008830424A43F47003C2F88830404B1B6869
:1059D00003F00F03062B07D83D4B1B6823F00F0382
:1059E0003B4A43F0070313603A4B1B68394A43F0C4
:1059F00001031360374B00221A61364B1A68354990
:105A0000354B13400B60324B1B6803F00803002B2F
:105A100007D02F4B1B6823F00F032D4A43F00703D9
:105A200013602C4B00229A612A4B0022DA61294B29
:105A300000221A62274B294A9A62264B284ADA62C8
:105A4000244B284A1A63234B00225A63214B254AD0
:105A50009A63204B0022DA631E4B224A1A641D4BC4
:105A600000225A641B4B1B681A4A23F480231360DC
:105A7000184B00221A661C4B1A681C4B1340B3F1DA
:105A8000005F02D21A4B01221A60124BD3F8D430B5
:105A900003F48053002B13D10E4BD3F8D4300D4AAE
:105AA00043F48053C2F8D430124B43F2D2021A604E
:105AB000084BD3F8D430074A23F48053C2F8D430CB
:105AC00000BFBD465DF8047B704700BF00ED00E0FD
:105AD00000200052004402587FEDF6EA0002020264
